:020000040800F2
:20000000482600207D060008790200087B0200087F02000883020008870200080000000018
:200020000000000000000000000000008B0200088D020008000000008F0200089102000860
:20004000930600089306000893060008930600089306000893060008930600089306000898
:20006000930600089306000893060008930600089306000893060008930600089306000878
:20008000930600089306000893060008930600089306000893060008930600089306000858
:2000A000930600089306000893060008930600089306000893060008930600089306000838
:2000C000930600089306000893060008930600089306000879050008930600089306000833
:2000E000930600089306000893060008DFF80CD002F0EEFA004800474F010008482600201B
:2001000030BF72B662B680F3088870471EE05448008810F4004F08D052480078012804D199
:2001200002F084F800204E4908802046611C8CB2642807DD00244C4800686FEA00004B4974
:20014000C1F8BC014FF0010000F0CEF9DFE738B500F00EF900F08CF900F0F2F9322000F0F6
:20016000C3F902F04AF902F031F94FF4E13000F02CFA01F0DFFE02F099FA01F002FD0020A5
:20018000394908604FF00100364908704FF00401374800F0E0FB002844D000203249086071
:2001A0004FF0140409E00421314800F0D4FB08B9FFF7ACFF642000F097F92000A4F1010185
:2001C0008CB2F0D10120284908604FF0140412E00421274800F0BFFB50B902F05DF900202E
:2001E000214908604FF47A7000F07EF901F0EAFF642000F079F92000A4F101018CB2E7D12C
:20020000194908604FF0320402E0642000F06CF92000A4F101018CB2F7D102F02CF901F01F
:20022000D1FF1BE002224FF4F831684601F009FDBDF80000A0F5B441A53901D102F07CF869
:200240000C48006800F07F40B0F1006F04D10948001F01F056FE01E0FFF758FF002038BD56
:20026000180000201B000020BC01214200002142000C014004280008704700BFFEE700BFED
:20028000FEE700BFFEE700BFFEE7704770477047704700000CB50020019000906B48006838
:2002A00040F480306949086000BF6848006800F4003000900198401C0190009818B901982D
:2002C000B0F5A06FF1D16148006810F4003F02D00120009001E0002000900098012842D16C
:2002E0005B48006840F01000594908600846006820F0030008600846006840F00200086028
:2003000052484068514948600846406848600846406840F4806048600846406820F47C1073
:2003200048600846406840F4E81048600846006840F08070086000BF4448006810F0007FDB
:20034000FAD04248406820F00300404948600846406840F00200486000BF3C48406800F0B2
:200360000C000828F9D10CBD10B5FFF793FF10BD10B53648006840F0010034490860084685
:200380004068344908403149486008460068324908402E4908600846006820F480200860A4
:2003A0000846406820F4FE0048604FF41F008860FFF7DAFF4FF000602849086010BD10B56A
:2003C000002100200022214B5B6803F00C0121B1042906D0082928D107E0214B214C236049
:2003E00027E01F4B1F4C236023E0184B5B6803F47010164B5B6803F48032022303EB90404E
:2004000022B9194B4343174C23600DE00F4B5B6813F4003F04D0144B4343124C236003E064
:200420000F4B43430F4C236003E00D4B0D4C236000BF00BF054B5B68C3F303130B4CE15CF6
:20044000084B1B68CB40074C236010BD00100240002002400000FFF8FFFFF6FE08ED00E0A6
:2004600000127A000000002000093D000400002010B56FF0040000F05FF92D4800682D49A3
:20048000B0FBF1F02C4908700846007800EB4001C1EBC0104FF6FF7101EAC000274908801D
:2004A00010BD0146244A12784A434FF0E0235A6100229A611A46126942F001021A6100BF3F
:2004C0004FF0E022106910F0010F02D010F4803FF6D04FF0E022126922F001024FF0E023E4
:2004E0001A6100229A6170470146144A12884A434FF0E0235A6100229A611A46126942F0BA
:2005000001021A6100BF4FF0E022106910F0010F02D010F4803FF6D04FF0E022126922F0AB
:2005200001024FF0E0231A6100229A61704700000000002000127A00140000201600002011
:2005400010B54FF4A06000F0A7F810BD014600BF704700BF434A128812F0400FFAD0C2B205
:20056000404B1B1D1A80704700213F4A118010B1411E3E4A117070473A49098811F0200F08
:2005800022D03849091D0988C8B239490978012919D13549098840F20722914208D232490E
:2005A0000A880988491C304B19803249885409E030492D4A128888542B49098841F400417E
:2005C000294A118000BF00BF704710B586B00446012144F2040000F0E3FB4FF40070ADF81B
:2005E000140003208DF8160018208DF8170005A9214800F01FF94FF48060ADF81400042036
:200600008DF8170005A91C4800F014F901940020ADF80800ADF80A00ADF80C00ADF81000B8
:200620000C20ADF80E0001A90E4800F064FC25208DF8000003208DF801008DF80200012070
:200640008DF80300684600F02CF8012240F22551044800F0E8FC0121024800F0D8FC06B07F
:2006600010BD000000380140180000201A0000201B0000204000002000080140054800474A
:20068000FEE7FEE7FEE7FEE7FEE7FEE7FEE7FEE7FEE7FEE7ED00000831490143314A1160C9
:2006A000704770B5002100230F22C4780CB32D4C246804F4E064C4F5E064210AC1F10403CC
:2006C000CA40447804FA03F18478144021430901254C0678A155047804F01F050124AC401A
:2006E00005786D114FF0E02606EB8505C5F8004109E0047804F01F050124AC401B4D0678CD
:20070000761145F8264070BD194A0A400243154B1B1F1A60704739B1124A121D1268024391
:20072000104B1B1D1A6006E00E4A121D126882430C4B1B1D1A607047042808D14FF0E021FB
:20074000096941F004014FF0E022116107E04FF0E021096921F004014FF0E0221161704725
:200760000000FA050CED00E000E400E080E100E080FFFF1F10B50446CA48844208D101211D
:20078000042000F027FB0021042000F023FB46E0C548844208D10121082000F01BFB00218D
:2007A000082000F017FB3AE0C048844208D10121102000F00FFB0021102000F00BFB2EE0AD
:2007C000BB48844208D10121202000F003FB0021202000F0FFFA22E0B648844208D101211C
:2007E000402000F0F7FA0021402000F0F3FA16E0B148844208D10121802000F0EBFA002114
:20080000802000F0E7FA0AE0AC48844207D10121801500F0DFFA0021A01500F0DBFA10BD03
:2008200010B50121084600F0D5FA0021012000F0D1FA10BD2DE9F041024600250026002000
:2008400000230024002791F803C00CF00F0591F803C01CF0100F03D091F802C04CEA0505F9
:2008600091F800C0BCF1000F31D0146800202BE04FF0010C0CFA00F3B1F800C00CEA03061E
:200880009E4220D183004FF00F0C0CFA03F7BC4305FA03FC4CEA040491F803C0BCF1280F3F
:2008A00006D14FF0010C0CFA00FCC2F814C00AE091F803C0BCF1480F05D14FF0010C0CFA23
:2008C00000FCC2F810C0401C0828D1D31460B1F800C0BCF1FF0F34DD546800202EE000F1DE
:2008E000080C4FF0010808FA0CF3B1F800C00CEA03069E4221D183004FF00F0C0CFA03F784
:20090000BC4305FA03FC4CEA040491F803C0BCF1280F05D100F1080C08FA0CF8C2F814803D
:2009200091F803C0BCF1480F07D100F1080C4FF0010808FA0CF8C2F81080401C0828CED3C5
:200940005460BDE8F0814FF6FF710180022181700421C17070470246002093680B4201D0F5
:20096000012000E0002070470146886880B2704702460020D3680B4201D0012000E000209D
:2009800070470146C86880B2704701617047416170470AB1016100E041617047C1607047A0
:2009A0004FF480320A4382618161826182698269704702460020424B18684FF680731840BB
:2009C00040EA021008433E4B186070473D49C8617047F0B50A46002300240021002500F000
:2009E0000046B6F1004F02D1354EF16901E0344E7168C0F3034583B200F44016B6F5401F4B
:200A000008D121F070612E4E766826F070662C4F7E6012E000F48016B6F5801F06D10326B6
:200A200006FA05F4A14341F0706106E0460D360103FA06F6B14341F0706122B1460D36011B
:200A400003FA06F6314300F00046B6F1004F02D11B4EF16101E01A4E7160F0BD30B50022A1
:200A60008B071C0F0F2303FA04F2154B08338C1053F824309343124C08348D1044F8253020
:200A800023468C1053F824308C07240F00FA04F423430B4C08348D1044F8253030BD0A4993
:200AA0000860704700080140000C0140001001400014014000180140001C014000200140C4
:200AC0000000014000002042DC002042DD48006840F00100DB49086008464068DA4908408A
:200AE000D849486008460068D8490840D54908600846006820F4802008600846406820F4AC
:200B0000FE0048604FF41F0088607047CD49096821F48031CB4A11601146096821F48021DD
:200B20001160B0F5803F03D0B0F5802F0ED106E0C449096841F48031C24A116007E0C14922
:200B4000096841F4A021BF4A116000E000BF00BF704710B501460022002300204A11012AA8
:200B600002D1B84C236806E0022A02D1B54C236A01E0B44C636A01F01F02012494401C4289
:200B800001D0012000E0002010BD38B5002000900024002500BF3120FFF7DBFF05460098ED
:200BA000401C00900098B0F5A06F01D0002DF2D03120FFF7CEFF08B1012400E000242046E1
:200BC00038BD014600209F4A106820F0F80040EAC100106070479E490860704702460020D0
:200BE000984B586820F47C1042EA01031843954B5860704796490866704701460020914A92
:200C0000506820F003000843506070478D48406800F00C007047014600208A4A506820F024
:200C2000F00008435060704701460020854A506820F4E06008435060704701460020814AEC
:200C4000506820F4605040EAC1005060704729B17C4A527A02437B4B5A7204E0794A527A10
:200C60008243784B5A7270477A490860704701460020744A506820F4404008435060704764
:200C80000021754A11706F4A82F82010012802D0042808D103E001216F4A117004E0052147
:200CA0006D4A117000E000BF00BF70476B49086070476449096A0143624A1162704767492A
:200CC00044390860704730B500210022002400235C4D6D6805F00C0121B1042905D0082984
:200CE00023D105E05E4D056022E05D4D05601FE0544D6D6805F47012524D6D6805F48034E9
:200D0000022505EB92421CB9564D554305600BE04C4D6D6815F4003F03D0524D5543056063
:200D200002E04F4D5543056002E04D4D056000BF00BF444D6D6805F0F00109094A4D6B5C1D
:200D40000568DD4045603F4D6D6805F4E061090A454D6B5C4568DD4085603A4D6D6805F459
:200D60006051C90A404D6B5C4568DD40C560354D6D6805F44041890B3C4D6B5CC568B5FB1A
:200D8000F3F5056130BD29B12E4A526902432D4B5A6104E02B4A526982432A4B5A617047D3
:200DA00029B1284A92690243264B9A6104E0254A92698243234B9A61704729B1214AD26988
:200DC0000243204BDA6104E01E4AD26982431D4BDA61704729B11B4AD2680243194BDA6026
:200DE00004E0184AD2688243164BDA60704729B1144A12690243134B1A6104E0114A1269D1
:200E00008243104B1A61704714494039086070470F49C86470470B49C87170470948406A11
:200E200040F0807007494862704701460020054A92680A4201D0012000E0002070470149F2
:200E400088727047001002400000FFF8FFFFF6FE00004242D800424220100240800442424C
:200E600000127A0000093D00200000203000002010B50446FB48844209D101218803FFF77B
:200E8000A9FF00214FF48040FFF7A4FF32E0F648844209D101214804FFF7A9FF00214FF48D
:200EA0000030FFF7A4FF25E0F048844209D101218804FFF79CFF00214FF48020FFF797FFBD
:200EC00018E0EB48844209D10121C804FFF78FFF00214FF40020FFF78AFF0BE0E5488442F4
:200EE00008D101210805FFF782FF00214FF48010FFF77DFF10BD2DE9F04786B005460E461E
:200F00000024A24600BFA1460027B08900B100BF2F462C8A4CF6FF700440F08804432C82C2
:200F2000AC894EF6F3100440B08831890843718908430443AC81AC8A4FF6FF400440B089C4
:200F40000443AC8201A8FFF7BEFEC648874202D1DDF810A001E0DDF80CA0A88910F4004FAC
:200F600008D00AEBCA0000EB0A1031684900B0FBF1F807E00AEBCA0000EB0A103168890092
:200F8000B0FBF1F86420B8FBF0F004012009642101FB1089A88910F4004F08D0322000EBC5
:200FA000C900B0FBF1F000F00700044308E0322000EB09106421B0FBF1F000F00F00044309
:200FC0002C8106B0BDE8F0874FF41651016000218180C18001810C214181002181817047D9
:200FE00010B502460020108A4FF2FF0318400B884C8823438C882343CC88234318431082A1
:2010000010BD0021018041808180C180704721B1828942F40052828104E082894DF6FF739B
:201020001A4082817047F0B503460024002600250020A1F510676A3F00D100BF1846C1F3C7
:20104000421401F01F06012707FA06F5012C01D10C3004E0022C01D1103000E014301AB1B2
:2010600007682F43076002E00768AF430760F0BD1AB1838A0B43838202E0838A8B438382E4
:201080007047028A4FF6F0731A400282028A0A430282704782894FF2FF731A40828182894D
:2010A0000A438281704721B1828942F00202828104E082894FF6FD731A4082817047028ACF
:2010C0004FF6DF731A400282028A0A430282704721B1028A42F48042028204E0028A4BF6FC
:2010E000FF731A4002827047C1F308028280704701468888C0F308007047818941F001016C
:2011000081817047028BD2B20283028B42EA012202837047028B02F47F420283028B0A43C5
:201120000283704721B1828A42F02002828204E0828A4FF6DF731A408282704721B1828AC3
:2011400042F01002828204E0828A4FF6EF731A408282704721B1828A42F00802828204E099
:20116000828A4FF6F7731A408282704721B1828942F40042828103E08289C2F30E02828191
:20118000704721B1828A42F40062828204E0828A4FF2FF731A4082827047828A4FF6FB73A7
:2011A0001A408282828A0A438282704721B1828A42F00202828204E0828A4FF6FD731A40A6
:2011C0008282704702460020B1F5007F00D100BF13880B4201D0012000E00020704701F4B1
:2011E0000072B2F5007F00D100BFCA430280704770B502460024002300250020A1F510667C
:201200006A3E00D100BFC1F3421501F01F03012606FA03F3012D02D19689334006E0022DB3
:2012200002D1168A334001E0968A33400C12012606FA04F41688344013B10CB1012000E083
:20124000002070BD10B500220023A1F510646A3C00D100BF0A1201249440A3B2DC430480EA
:2012600010BD0000003801400044004000480040004C00400050004001460020FE4A1068D9
:2012800000F03800084310607047FB49096821F00801F94A116011460968014311607047FD
:2012A000F549096821F01001F34A116011460968014311607047F148EF494860F048486082
:2012C0007047EE48EC494860ED4848607047EA48006940F08000E84908617047E64800697D
:2012E00040F08000E449086170470420E249C96811F0010F01D001200EE0DF49C96811F026
:20130000040F01D0022007E0DB49C96811F0100F01D0032000E00420704700B50246042398
:20132000FFF7E3FF034603E0FFF7DFFF0346521E012B01D1002AF7D102B90523184600BD2E
:2013400030B5044604254FF43020FFF7E6FF0546042D17D1C848006940F00200C649086140
:2013600008464461006940F0400008614FF43020FFF7D3FF0546C048006941F6FD71084034
:20138000BD490861284630BD10B504244FF43020FFF7C3FF0446042C16D1B748006940F052
:2013A0000400B54908610846006940F0400008614FF43020FFF7B1FF0446AF48006941F618
:2013C000FB710840AC490861204610BD00B502460423FFF78AFF034603E0FFF786FF034635
:2013E000521E012B01D1002AF7D102B90523184600BD10B504244FF43020FFF7E7FF0446E9
:20140000042C16D19C48006940F004009A4908610846006940F0400008614FF43020FFF7CF
:20142000D5FF04469448006941F6FB71084092490861204610BD00208F49C96911F0020FAB
:2014400001D0012000E00020704730B5A5250424FFF7F1FF00B100254FF43020FFF75DFF6B
:201460000446042C3AD1854883498860844888600846006940F0200008610846006940F05B
:20148000400008614FF43020FFF747FF0446042C1BD17948006941F6DF710840764908614D
:2014A0000846006940F01000086176480580E002FFF733FF0446052C10D06F48006941F6CD
:2014C000EF7108406C49086108E0052C06D06A48006941F6EF71084067490861204630BDF1
:2014E00078B506460C46042500200090E802FFF714FF0546042D24D15F48006940F00100A3
:201500005D4908613480E802FFF707FF0546042D10D1B01C0090200C00990880E802FFF73C
:20152000FCFE05465448006941F6FE7108405249086106E05048006941F6FE7108404E4903
:201540000861284678BD70B504460D460426F002FFF7E3FE0646042E11D14748006940F042
:201560000100454908612580F002FFF7D6FE06464148006941F6FE7108403F49086130467F
:2015800070BD70B505460E460424E002FFF7C5FE0446042C17D139483749886038488860E4
:2015A0000846006940F0100008612E80E002FFF7B4FE0446052C06D02F48006941F6EF71CB
:2015C00008402D490861204670BD2DE9F04304464FF6FF763746B046B1460425E443E6B2B2
:2015E000C4F30727C4F307484FEA1469E802FFF794FE0546042D49D120481F498860204822
:2016000088600846006940F010000861FF2E06D01C4808300680E802FFF77FFE0546042D84
:2016200008D1FF2F06D017480A300780E802FFF774FE0546042D0AD1B8F1FF0F07D011481D
:201640000C30A0F80080E802FFF767FE0546042D0AD1B9F1FF0F07D00A480E30A0F8009053
:20166000E802FFF75AFE0546052D0FD00248006941F6EF71084007E000200240230167452B
:20168000AB89EFCD00F8FF1F664908612846BDE8F08330B5054604244FF43020FFF73DFE8A
:2016A0000446042C41D160485E4988605F4888600846006940F0200008610846006940F081
:2016C000400008614FF43020FFF727FE0446042C22D15448006941F6DF710840514908616F
:2016E0000846006940F0100008611DB100205049088002E0A5204E4908804FF43020FFF72C
:201700000CFE0446052C10D04648006941F6EF7108404449086108E0052C06D041480069B7
:2017200041F6DF7108403F490861204630BDF0B505460E46174604243B483A4988603B485C
:201740008860E002FFF7E9FD0446042C19D13548006940F010003349086147F0F8003043D2
:2017600028433349891C0880E002FFF7D6FD0446052C06D02B48006941F6EF71084029492C
:2017800008612046F0BD2748C069800870472548006A704700202349096811F0200F01D06A
:2017A000012000E00020704729B11E4A126902431C4B1A6104E01B4A12698243194B1A6105
:2017C000704701460020012908D1164AD26912F0010F01D0012008E0002006E0114AD268C6
:2017E0000A4201D0012000E0002070470D49C860704704200B49C96811F0010F01D0012013
:201800000EE00849C96811F0040F01D0022007E00449C96811F0100F01D0032000E00420D4
:20182000704700000020024023016745AB89EFCD00F8FF1F10B50446BE48844208D10121E3
:201840008014FFF7C7FA0021A014FFF7C3FA16E0B948844208D101210014FFF7C8FA002110
:201860002014FFF7C4FA0AE0B448844207D10121C013FFF7BCFA0021E013FFF7B8FA10BDD2
:2018800010B50022028802F441520B884C8823438C882343CC8823430C8923434C89234317
:2018A0008C892343CC8923431A430280838B4FF2FF74234083830B8A038210BD2DE9F04FAC
:2018C00085B005460C464FF0000902274FF000084FF0010B0026B246A88B4FF24001084018
:2018E000A88302202884B5F81C90A068022801D100BF38E0A08810B94FF0010B01E04FF05F
:20190000020B8D48854200D100E000BF6846FFF7DAF9DDF800A0E088B0F5007F0AD14FEA22
:201920001A2000EB80004000A168B0FBF1F0401D86B20BE04FEA4B10BAFBF0F000EB800019
:201940004000A168B0FBF1F0401D86B20A20B6FBF0F606F00108A6EB0800C0F34F074FF676
:20196000FF7000EA0828022F01DBFF2F02DD02274FF00008E08840EA080038432884A0886B
:20198000A1890843618808432188084340F4006040EA0909A5F81C9005B0BDE8F08F002197
:2019A000018041808180C180018141818181C1810721018270470021018041808180C18014
:2019C0000221816000218181704721B1028842F04002028004E002884FF6BF731A40028016
:2019E000704721B1828B42F48062828304E0828B4FF6FF331A408283704730B5002400238A
:201A00000C110125A540ABB21AB185881D43858002E085889D43858030BD1AB183880B431F
:201A2000838002E083888B438380704781817047014688897047A1F57E42FF3A04D0028879
:201A400042F48072028004E002884FF6FF631A400280704721B1828842F00402828004E03A
:201A600082884FF6FB731A408280704702884FF2FF731A40028002880A43028070470188E4
:201A800041F480510180704721B1028842F40052028004E002884DF6FF731A4002807047EC
:201AA00002460020012901D0108B00E0908A70470146088A7047B1F5804F04D1028842F4DD
:201AC0008042028004E002884BF6FF731A40028070470246002013890B4201D0012000E0EB
:201AE00000207047CA4302817047F0B50246002000240023002501F00F070126BE40B4B2BD
:201B00000B1101269E40B3B2968806EA03051689264202D00DB1012000E00020F0BD10B5FF
:201B2000002201F00F040123A3409AB2D343038110BD00000030014000380040003C004060
:201B400010B500240020D14908604FF0900000F013FA002000F010FA002000F00DFA0020DD
:201B600000F00AFAFF2000F007FA44EA0024FF2000F002FA04430120C549C1F8B0012046BE
:201B800010BD08B501210820FFF70AF94FF48050ADF8000010208DF8030003208DF802005E
:201BA0006946BC48FEF746FE4FF48051B948FEF7ECFE00F008FA002000F04BFAFFF7C0FF49
:201BC000B549088008BD10B500240020AF4908604FF0050000F0D0F9FF2000F0CDF9044635
:201BE0000120AB49C1F8B001204610BD10B504460020A64908604FF0010000F0BDF9204661
:201C000000F0BAF90120A249C1F8B00110BD10B500209E4908604FF0060000F0ADF90120AE
:201C20009B49C1F8B00110BD10B50020974908604FF0040000F0A0F901209549C1F8B00127
:201C400010BD2DE9F04106460C46174600208F4908604FF0030000F08FF9C4F3074000F06D
:201C60008BF9C4F3072000F087F9E0B200F084F9002505E0FF2000F07FF97055681C85B282
:201C8000BD42F7DB012081490860BDE8F08110B500BFFFF798FF10F0010FFAD110BD2DE93B
:201CA000F04106460C461746FFF7B1FF0020774908604FF0020000F05FF9C4F3074000F093
:201CC0005BF9C4F3072000F057F9E0B200F054F9002504E0705D00F04FF9681C85B2BD42FB
:201CE000F8DB012069490860FFF7D1FFBDE8F0812DE9F04107460E461446F0B2C0F580756C
:201D0000AC4200DC254612E02A4631463846FFF7C6FFAC4200D10BE02F442E44601B84B23C
:201D2000B4F5807F02DD4FF4807500E02546EBE700BFBDE8F08110B504462403FFF767FF60
:201D4000FFF7A5FF0020514908604FF0200000F013F9C4F3074000F00FF9C4F3072000F0A8
:201D60000BF9E0B200F008F901204949C1F8B001FFF78DFF10BD2DE9F04781460F461646AB
:201D80004FEA1738C7F30B0ACAF58054A64200DC344644E04FEA08314FF480523F48FFF7F3
:201DA00050FF002508E00AEB05003C49085CFF2800D003E0681C85B2A542F4DB00BFA542F3
:201DC00016DA4046FFF7B7FF002507E019F8050005EB0A01314A5054681C85B2A542F5DB33
:201DE0004FEA08314FF480522C48FFF781FF04E0224639464846FFF77BFFA64200D10FE001
:201E000008F101084FF0000AA1442744301B86B2B6F5805F02DD4FF4805400E03446B9E72A
:201E200000BFBDE8F08710B5FFF7F1FEFFF72FFF0020164908604FF0C70000F09DF8012066
:201E40001349C1F8B001FFF722FF10BD10B500200E4908604FF0B90000F08EF801200C4950
:201E6000C1F8B0010320FEF71CFB10BD10B50020064908604FF0AB0000F07EF801200449A2
:201E8000C1F8B0010320FEF70CFB10BDB081214200802142000C014034000020480200206A
:201EA0002DE9F05F06460F4690460024B3463D46A1461CE068784FEA002A287850441FFA33
:201EC00080FAAD1C2046611C8CB2174921F810A0B4F5806F07D100244FF48062584600F02E
:201EE000F6F80BF5006B09F102001FFA80F9C145E0D324B122460C49584600F0E8F8BDE89D
:201F0000F09F10B50446206808490840B0F1005F08D16068064908602068FEF7F4F80448F5
:201F20000068804710BD0000481200200000FE2F3800002008B501210520FEF731FF01215B
:201F40000B48FEF746FD4FF40040ADF8000010208DF8030003208DF8020069460548FEF77B
:201F600069FC4FF400410348FEF70FFD08BD0000000230000008014070B50546002405E073
:201F8000601CC4B2C82C01DD002070BD02213A48FFF79FFD0028F3D029463748FFF746FDE7
:201FA000002405E0601CC4B2C82C01DD0020ECE701213148FFF78DFD0028F3D02E48FFF7EF
:201FC00037FDC0B2E1E700B587B001210820FEF7E7FE01218803FEF7F0FE4FF46040ADF86B
:201FE000180018208DF81B0003208DF81A0006A92248FEF71FFC4FF460412048FEF7C5FC04
:202000000020ADF804004FF48270ADF806000020ADF808000220ADF80A000120ADF80C00A7
:202020004002ADF80E003820ADF810000020ADF812000720ADF8140001A90F48FFF720FCD4
:2020400001210D48FFF7C1FCFF20FFF795FF07B000BD10B50446084800884FF6C77108408D
:2020600005490880084600882043088001210248FFF7ABFC10BD000000380040000C01402E
:202080000146088870472DE9F04105460E461746002407E036F814102846FFF754FAAD1C97
:2020A000601C84B2BC42F5DBBDE8F08130B503460C461546002207E01846FFF7E1FF24F856
:2020C00012009B1C501C82B2AA42F5DB30BD2DE9F05F80468A461746B8F1006F02D337482A
:2020E000804501D3BDE8F09FFFF7E5F8A8F1006B4FEA9B25CBF34809C9F50074A74200DC3D
:202100003C464DE04FF0006101EB85208A142C49FFF7CCFF00260BE009EB0600284931F866
:202120001000A0F57F41FF3900D003E0701C86B2A642F1DB00BFA6421BDA4FF0006101EBAF
:202140008520FFF7FDF8002608E03AF8160006EB09011B4A22F81100701C86B2A642F4DB93
:202160004FF0006101EB85208A141549FFF78BFF04E0224651464046FFF785FFA74200D115
:202180000FE06D1C4FF000090AEB440AA044381B87B2B7F5007F02DD4FF4007400E03C46A9
:2021A000B0E700BFFFF793F800BF9BE713B50446012201A92046FFF78AFF1CBD0000010861
:2021C000481A0020FDF79DFF00BF7948006800F4E06078490843001D75490860BFF3408F01
:2021E00000BF00BFFEE789B10AE000BF724A128812F0400FFAD010F8012B6F4B1B1D1A8068
:202200000A00A1F1010399B2EFD10EE00AE000BF694A128812F0400FFAD010F8012B664B2F
:202220001B1D1A800278002AF1D170472DE9FC41624C0027002503E0605D0744681C85B2BC
:20224000B5F5007FF8DBD4F80402B84208D0F620009001216846FFF7C6FF0120BDE8FC816A
:20226000D4F80002A0F57D41FD3910D1002504E02846FFF760FD681C85B21F2DF8DDF5206B
:20228000009001216846FFF7AEFF0020E6E7D4F80002012802D14A4908801AE04848008857
:2022A000401CD4F80012814205D0D4F80002A0F57E41FE3905D142480088401C404908809E
:2022C00007E0F620009001216846FFF78CFF0120C4E73B480088401E4602B6F5F03F07D3EF
:2022E000F620009001216846FFF77DFF0120B5E74FF4007231463148FFF7FAFCF520009003
:2023000001216846FFF76FFFD4F80002A0F57E41FE390FD145F6A520019002224FF4F8312F
:2023200001A8FFF7E5FC022226492548FFF7E0FCFFF748FF002091E77CB502224FF4F831B5
:2023400001A8FFF77EFCBDF80400A0F5B441A5392DD102221B496846FFF773FC00240FE097
:20236000A1024FF480621548FFF76BFC164800EB8425421411492846FFF792FD601C84B294
:20238000BDF800008442EBDB4FF6FF70019002224FF4F83101A8FFF7EEFC002000900222CA
:2023A00008496846FFF7E7FC0748FFF7AAFD7CBD0CED00E00000FA0500380140400000206F
:2023C0003C00002010F001000028000810B50020604908606049C1F8A4014FF0C800FEF777
:2023E00083F801205B4908604FF03C00FEF77CF801205949C1F8A40110BD08B50121042060
:20240000FEF7CEFC4FF4C850ADF8000010208DF8030003208DF8020069465048FEF70AFA5B
:202420004FF4C8514D48FEF7B0FA01210420FEF7B7FC4FF40070ADF8000003208DF802001C
:2024400018208DF8030069464448FEF7F3F94FF400714248FEF799FA08BD70B505460C4653
:202460000220FEF781F800212846FFF7BCFE2046FEF73AF870BD10B50020394908604FF4C1
:202480004870FEF731F801203349C1F8B001C82134A0FFF7E2FF10BD10B500203049086038
:2024A0004FF44870FEF720F801202B49C1F8B001C8212FA0FFF7D1FFC82130A0FFF7CDFF1C
:2024C000C82134A0FFF7C9FFC82136A0FFF7C5FFC82137A0FFF7C1FFC8213AA0FFF7BDFF1D
:2024E000C8213BA0FFF7B9FFC8213CA0FFF7B5FFC8213DA0FFF7B1FFC82141A0FFF7ADFF23
:20250000C82145A0FFF7A9FFC82148A0FFF7A5FFC8214CA0FFF7A1FFC8214DA0FFF79DFF11
:20252000C8214EA0FFF799FFC82150A0FFF795FFC82152A0FFF791FFC82153A0FFF78DFF14
:20254000C82154A0FFF789FFC82155A0FFF785FF10BD0000AC01214200002142000801403F
:20256000B001214261742B44663D310D0000000061742B57413D310D0000000061742B41CE
:20258000737369643D53616E726973655F6366670D00000061742B41737369646C3D3131DB
:2025A0000D00000061742B41616D3D370D00000061742B4170773D31323334353637380D68
:2025C0000000000061742B4170776C3D380D000061742B416368616E3D330D0061742B6429
:2025E0006863703D300D000061742B4169703D3139322C3136382C302C39390D0000000061
:2026000061742B6D61736B3D3235352C3235352C3235352C300D000061742B67773D3139B7
:20262000322C3136382C302C39390D0061742B646E733D3139322C3136382C302C39390DA6
:202640000000000061742B55547970653D310D0061742B5549703D300D00000061742B552B
:202660004C506F72743D383038300D0061742B55623D3131353230300D00000061742B55D0
:20268000643D380D0000000061742B55703D300D0000000061742B55733D310D00000000D2
:2026A00061742B52623D310D0000000008B501210820FEF775FB0420ADF8000028208DF8E9
:2026C000030069460148FEF7B5F808BD000C0140064C074D06E0E06840F0010394E80700C0
:2026E00098471034AC42F6D3FDF704FD142700083427000802E008C8121F08C1002AFAD1C4
:2027000070477047002001E001C1121F002AFBD170470000342700080000002040000000E7
:20272000F42600087427000840000020082600000427000800A24A04000000000000000023
:2027400001020304060708090000000000000000000000000000000001020304010203043D
:20276000060708090204060816EF00000000000000000000FFFFFFFFFFFFFFFFFFFFFFFF2E
:20278000FFFFFFFFFFFFFFFFFFFFFFFFFFFFFFFFFFFFFFFFFFFFFFFFFFFFFFFFFFFFFFFF59
:2027A000FFFFFFFFFFFFFFFFFFFFFFFFFFFFFFFFFFFFFFFFFFFFFFFFFFFFFFFFFFFFFFFF39
:2027C000FFFFFFFFFFFFFFFFFFFFFFFFFFFFFFFFFFFFFFFFFFFFFFFFFFFFFFFFFFFFFFFF19
:2027E000FFFFFFFFFFFFFFFFFFFFFFFFFFFFFFFFFFFFFFFFFFFFFFFFFFFFFFFFFFFFFFFFF9
:00000001FF
