:020000040800F2
:20000000482600207D060008790200087B0200087F02000883020008870200080000000018
:200020000000000000000000000000008B0200088D020008000000008F0200089102000860
:20004000930600089306000893060008930600089306000893060008930600089306000898
:20006000930600089306000893060008930600089306000893060008930600089306000878
:20008000930600089306000893060008930600089306000893060008930600089306000858
:2000A000930600089306000893060008930600089306000893060008930600089306000838
:2000C000930600089306000893060008930600089306000879050008930600089306000833
:2000E000930600089306000893060008DFF80CD002F0EEFA004800474F010008482600201B
:2001000030BF72B662B680F3088870471EE05448008810F4004F08D052480078012804D199
:2001200002F084F800204E4908802046611C8CB2642807DD00244C4800686FEA00004B4974
:20014000C1F8BC014FF0010000F0CEF9DFE738B500F00EF900F08CF900F0F2F9322000F0F6
:20016000C3F902F04AF902F031F94FF4E13000F02CFA01F0DFFE02F099FA01F002FD0020A5
:20018000394908604FF00100364908704FF00401374800F0E0FB002844D000203249086071
:2001A0004FF0140409E00421314800F0D4FB08B9FFF7ACFF642000F097F92000A4F1010185
:2001C0008CB2F0D10120284908604FF0140412E00421274800F0BFFB50B902F05DF900202E
:2001E000214908604FF47A7000F07EF901F0EAFF642000F079F92000A4F101018CB2E7D12C
:20020000194908604FF0320402E0642000F06CF92000A4F101018CB2F7D102F02CF901F01F
:20022000D1FF1BE002224FF4F831684601F009FDBDF80000A0F5B441A53901D102F07CF869
:200240000C48006800F07F40B0F1006F04D10948001F01F056FE01E0FFF758FF002038BD56
:20026000180000201B000020BC01214200002142000C014004280008704700BFFEE700BFED
:20028000FEE700BFFEE700BFFEE7704770477047704700000CB50020019000906B48006838
:2002A00040F480306949086000BF6848006800F4003000900198401C0190009818B901982D
:2002C000B0F5A06FF1D16148006810F4003F02D00120009001E0002000900098012842D16C
:2002E0005B48006840F01000594908600846006820F0030008600846006840F00200086028
:2003000052484068514948600846406848600846406840F4806048600846406820F47C1073
:2003200048600846406840F4E81048600846006840F08070086000BF4448006810F0007FDB
:20034000FAD04248406820F00300404948600846406840F00200486000BF3C48406800F0B2
:200360000C000828F9D10CBD10B5FFF793FF10BD10B53648006840F0010034490860084685
:200380004068344908403149486008460068324908402E4908600846006820F480200860A4
:2003A0000846406820F4FE0048604FF41F008860FFF7DAFF4FF000602849086010BD10B56A
:2003C000002100200022214B5B6803F00C0121B1042906D0082928D107E0214B214C236049
:2003E00027E01F4B1F4C236023E0184B5B6803F47010164B5B6803F48032022303EB90404E
:2004000022B9194B4343174C23600DE00F4B5B6813F4003F04D0144B4343124C236003E064
:200420000F4B43430F4C236003E00D4B0D4C236000BF00BF054B5B68C3F303130B4CE15CF6
:20044000084B1B68CB40074C236010BD00100240002002400000FFF8FFFFF6FE08ED00E0A6
:2004600000127A000000002000093D000400002010B56FF0040000F05FF92D4800682D49A3
:20048000B0FBF1F02C4908700846007800EB4001C1EBC0104FF6FF7101EAC000274908801D
:2004A00010BD0146244A12784A434FF0E0235A6100229A611A46126942F001021A6100BF3F
:2004C0004FF0E022106910F0010F02D010F4803FF6D04FF0E022126922F001024FF0E023E4
:2004E0001A6100229A6170470146144A12884A434FF0E0235A6100229A611A46126942F0BA
:2005000001021A6100BF4FF0E022106910F0010F02D010F4803FF6D04FF0E022126922F0AB
:2005200001024FF0E0231A6100229A61704700000000002000127A00140000201600002011
:2005400010B54FF4A06000F0A7F810BD014600BF704700BF434A128812F0400FFAD0C2B205
:20056000404B1B1D1A80704700213F4A118010B1411E3E4A117070473A49098811F0200F08
:2005800022D03849091D0988C8B239490978012919D13549098840F20722914208D232490E
:2005A0000A880988491C304B19803249885409E030492D4A128888542B49098841F400417E
:2005C000294A118000BF00BF704710B586B00446012144F2040000F0E3FB4FF40070ADF81B
:2005E000140003208DF8160018208DF8170005A9214800F01FF94FF48060ADF81400042036
:200600008DF8170005A91C4800F014F901940020ADF80800ADF80A00ADF80C00ADF81000B8
:200620000C20ADF80E0001A90E4800F064FC25208DF8000003208DF801008DF80200012070
:200640008DF80300684600F02CF8012240F22551044800F0E8FC0121024800F0D8FC06B07F
:2006600010BD000000380140180000201A0000201B0000204000002000080140054800474A
:20068000FEE7FEE7FEE7FEE7FEE7FEE7FEE7FEE7FEE7FEE7ED00000831490143314A1160C9
:2006A000704770B5002100230F22C4780CB32D4C246804F4E064C4F5E064210AC1F10403CC
:2006C000CA40447804FA03F18478144021430901254C0678A155047804F01F050124AC401A
:2006E00005786D114FF0E02606EB8505C5F8004109E0047804F01F050124AC401B4D0678CD
:20070000761145F8264070BD194A0A400243154B1B1F1A60704739B1124A121D1268024391
:20072000104B1B1D1A6006E00E4A121D126882430C4B1B1D1A607047042808D14FF0E021FB
:20074000096941F004014FF0E022116107E04FF0E021096921F004014FF0E0221161704725
:200760000000FA050CED00E000E400E080E100E080FFFF1F10B50446CA48844208D101211D
:20078000042000F027FB0021042000F023FB46E0C548844208D10121082000F01BFB00218D
:2007A000082000F017FB3AE0C048844208D10121102000F00FFB0021102000F00BFB2EE0AD
:2007C000BB48844208D10121202000F003FB0021202000F0FFFA22E0B648844208D101211C
:2007E000402000F0F7FA0021402000F0F3FA16E0B148844208D10121802000F0EBFA002114
:20080000802000F0E7FA0AE0AC48844207D10121801500F0DFFA0021A01500F0DBFA10BD03
:2008200010B50121084600F0D5FA0021012000F0D1FA10BD2DE9F041024600250026002000
:2008400000230024002791F803C00CF00F0591F803C01CF0100F03D091F802C04CEA0505F9
:2008600091F800C0BCF1000F31D0146800202BE04FF0010C0CFA00F3B1F800C00CEA03061E
:200880009E4220D183004FF00F0C0CFA03F7BC4305FA03FC4CEA040491F803C0BCF1280F3F
:2008A00006D14FF0010C0CFA00FCC2F814C00AE091F803C0BCF1480F05D14FF0010C0CFA23
:2008C00000FCC2F810C0401C0828D1D31460B1F800C0BCF1FF0F34DD546800202EE000F1DE
:2008E000080C4FF0010808FA0CF3B1F800C00CEA03069E4221D183004FF00F0C0CFA03F784
:20090000BC4305FA03FC4CEA040491F803C0BCF1280F05D100F1080C08FA0CF8C2F814803D
:2009200091F803C0BCF1480F07D100F1080C4FF0010808FA0CF8C2F81080401C0828CED3C5
:200940005460BDE8F0814FF6FF710180022181700421C17070470246002093680B4201D0F5
:20096000012000E0002070470146886880B2704702460020D3680B4201D0012000E000209D
:2009800070470146C86880B2704701617047416170470AB1016100E041617047C1607047A0
:2009A0004FF480320A4382618161826182698269704702460020424B18684FF680731840BB
:2009C00040EA021008433E4B186070473D49C8617047F0B50A46002300240021002500F000
:2009E0000046B6F1004F02D1354EF16901E0344E7168C0F3034583B200F44016B6F5401F4B
:200A000008D121F070612E4E766826F070662C4F7E6012E000F48016B6F5801F06D10326B6
:200A200006FA05F4A14341F0706106E0460D360103FA06F6B14341F0706122B1460D36011B
:200A400003FA06F6314300F00046B6F1004F02D11B4EF16101E01A4E7160F0BD30B50022A1
:200A60008B071C0F0F2303FA04F2154B08338C1053F824309343124C08348D1044F8253020
:200A800023468C1053F824308C07240F00FA04F423430B4C08348D1044F8253030BD0A4993
:200AA0000860704700080140000C0140001001400014014000180140001C014000200140C4
:200AC0000000014000002042DC002042DD48006840F00100DB49086008464068DA4908408A
:200AE000D849486008460068D8490840D54908600846006820F4802008600846406820F4AC
:200B0000FE0048604FF41F0088607047CD49096821F48031CB4A11601146096821F48021DD
:200B20001160B0F5803F03D0B0F5802F0ED106E0C449096841F48031C24A116007E0C14922
:200B4000096841F4A021BF4A116000E000BF00BF704710B501460022002300204A11012AA8
:200B600002D1B84C236806E0022A02D1B54C236A01E0B44C636A01F01F02012494401C4289
:200B800001D0012000E0002010BD38B5002000900024002500BF3120FFF7DBFF05460098ED
:200BA000401C00900098B0F5A06F01D0002DF2D03120FFF7CEFF08B1012400E000242046E1
:200BC00038BD014600209F4A106820F0F80040EAC100106070479E490860704702460020D0
:200BE000984B586820F47C1042EA01031843954B5860704796490866704701460020914A92
:200C0000506820F003000843506070478D48406800F00C007047014600208A4A506820F024
:200C2000F00008435060704701460020854A506820F4E06008435060704701460020814AEC
:200C4000506820F4605040EAC1005060704729B17C4A527A02437B4B5A7204E0794A527A10
:200C60008243784B5A7270477A490860704701460020744A506820F4404008435060704764
:200C80000021754A11706F4A82F82010012802D0042808D103E001216F4A117004E0052147
:200CA0006D4A117000E000BF00BF70476B49086070476449096A0143624A1162704767492A
:200CC00044390860704730B500210022002400235C4D6D6805F00C0121B1042905D0082984
:200CE00023D105E05E4D056022E05D4D05601FE0544D6D6805F47012524D6D6805F48034E9
:200D0000022505EB92421CB9564D554305600BE04C4D6D6815F4003F03D0524D5543056063
:200D200002E04F4D5543056002E04D4D056000BF00BF444D6D6805F0F00109094A4D6B5C1D
:200D40000568DD4045603F4D6D6805F4E061090A454D6B5C4568DD4085603A4D6D6805F459
:200D60006051C90A404D6B5C4568DD40C560354D6D6805F44041890B3C4D6B5CC568B5FB1A
:200D8000F3F5056130BD29B12E4A526902432D4B5A6104E02B4A526982432A4B5A617047D3
:200DA00029B1284A92690243264B9A6104E0254A92698243234B9A61704729B1214AD26988
:200DC0000243204BDA6104E01E4AD26982431D4BDA61704729B11B4AD2680243194BDA6026
:200DE00004E0184AD2688243164BDA60704729B1144A12690243134B1A6104E0114A1269D1
:200E00008243104B1A61704714494039086070470F49C86470470B49C87170470948406A11
:200E200040F0807007494862704701460020054A92680A4201D0012000E0002070470149F2
:200E400088727047001002400000FFF8FFFFF6FE00004242D800424220100240800442424C
:200E600000127A0000093D00200000203000002010B50446FB48844209D101218803FFF77B
:200E8000A9FF00214FF48040FFF7A4FF32E0F648844209D101214804FFF7A9FF00214FF48D
:200EA0000030FFF7A4FF25E0F048844209D101218804FFF79CFF00214FF48020FFF797FFBD
:200EC00018E0EB48844209D10121C804FFF78FFF00214FF40020FFF78AFF0BE0E5488442F4
:200EE00008D101210805FFF782FF00214FF48010FFF77DFF10BD2DE9F04786B005460E461E
:200F00000024A24600BFA1460027B08900B100BF2F462C8A4CF6FF700440F08804432C82C2
:200F2000AC894EF6F3100440B08831890843718908430443AC81AC8A4FF6FF400440B089C4
:200F40000443AC8201A8FFF7BEFEC648874202D1DDF810A001E0DDF80CA0A88910F4004FAC
:200F600008D00AEBCA0000EB0A1031684900B0FBF1F807E00AEBCA0000EB0A103168890092
:200F8000B0FBF1F86420B8FBF0F004012009642101FB1089A88910F4004F08D0322000EBC5
:200FA000C900B0FBF1F000F00700044308E0322000EB09106421B0FBF1F000F00F00044309
:200FC0002C8106B0BDE8F0874FF41651016000218180C18001810C214181002181817047D9
:200FE00010B502460020108A4FF2FF0318400B884C8823438C882343CC88234318431082A1
:2010000010BD0021018041808180C180704721B1828942F40052828104E082894DF6FF739B
:201020001A4082817047F0B503460024002600250020A1F510676A3F00D100BF1846C1F3C7
:20104000421401F01F06012707FA06F5012C01D10C3004E0022C01D1103000E014301AB1B2
:2010600007682F43076002E00768AF430760F0BD1AB1838A0B43838202E0838A8B438382E4
:201080007047028A4FF6F0731A400282028A0A430282704782894FF2FF731A40828182894D
:2010A0000A438281704721B1828942F00202828104E082894FF6FD731A4082817047028ACF
:2010C0004FF6DF731A400282028A0A430282704721B1028A42F48042028204E0028A4BF6FC
:2010E000FF731A4002827047C1F308028280704701468888C0F308007047818941F001016C
:2011000081817047028BD2B20283028B42EA012202837047028B02F47F420283028B0A43C5
:201120000283704721B1828A42F02002828204E0828A4FF6DF731A408282704721B1828AC3
:2011400042F01002828204E0828A4FF6EF731A408282704721B1828A42F00802828204E099
:20116000828A4FF6F7731A408282704721B1828942F40042828103E08289C2F30E02828191
:20118000704721B1828A42F40062828204E0828A4FF2FF731A4082827047828A4FF6FB73A7
:2011A0001A408282828A0A438282704721B1828A42F00202828204E0828A4FF6FD731A40A6
:2011C0008282704702460020B1F5007F00D100BF13880B4201D0012000E00020704701F4B1
:2011E0000072B2F5007F00D100BFCA430280704770B502460024002300250020A1F510667C
:201200006A3E00D100BFC1F3421501F01F03012606FA03F3012D02D19689334006E0022DB3
:2012200002D1168A334001E0968A33400C12012606FA04F41688344013B10CB1012000E083
:20124000002070BD10B500220023A1F510646A3C00D100BF0A1201249440A3B2DC430480EA
:2012600010BD0000003801400044004000480040004C00400050004001460020FE4A1068D9
:2012800000F03800084310607047FB49096821F00801F94A116011460968014311607047FD
:2012A000F549096821F01001F34A116011460968014311607047F148EF494860F048486082
:2012C0007047EE48EC494860ED4848607047EA48006940F08000E84908617047E64800697D
:2012E00040F08000E449086170470420E249C96811F0010F01D001200EE0DF49C96811F026
:20130000040F01D0022007E0DB49C96811F0100F01D0032000E00420704700B50246042398
:20132000FFF7E3FF034603E0FFF7DFFF0346521E012B01D1002AF7D102B90523184600BD2E
:2013400030B5044604254FF43020FFF7E6FF0546042D17D1C848006940F00200C649086140
:2013600008464461006940F0400008614FF43020FFF7D3FF0546C048006941F6FD71084034
:20138000BD490861284630BD10B504244FF43020FFF7C3FF0446042C16D1B748006940F052
:2013A0000400B54908610846006940F0400008614FF43020FFF7B1FF0446AF48006941F618
:2013C000FB710840AC490861204610BD00B502460423FFF78AFF034603E0FFF786FF034635
:2013E000521E012B01D1002AF7D102B90523184600BD10B504244FF43020FFF7E7FF0446E9
:20140000042C16D19C48006940F004009A4908610846006940F0400008614FF43020FFF7CF
:20142000D5FF04469448006941F6FB71084092490861204610BD00208F49C96911F0020FAB
:2014400001D0012000E00020704730B5A5250424FFF7F1FF00B100254FF43020FFF75DFF6B
:201460000446042C3AD1854883498860844888600846006940F0200008610846006940F05B
:20148000400008614FF43020FFF747FF0446042C1BD17948006941F6DF710840764908614D
:2014A0000846006940F01000086176480580E002FFF733FF0446052C10D06F48006941F6CD
:2014C000EF7108406C49086108E0052C06D06A48006941F6EF71084067490861204630BDF1
:2014E00078B506460C46042500200090E802FFF714FF0546042D24D15F48006940F00100A3
:201500005D4908613480E802FFF707FF0546042D10D1B01C0090200C00990880E802FFF73C
:20152000FCFE05465448006941F6FE7108405249086106E05048006941F6FE7108404E4903
:201540000861284678BD70B504460D460426F002FFF7E3FE0646042E11D14748006940F042
:201560000100454908612580F002FFF7D6FE06464148006941F6FE7108403F49086130467F
:2015800070BD70B505460E460424E002FFF7C5FE0446042C17D139483749886038488860E4
:2015A0000846006940F0100008612E80E002FFF7B4FE0446052C06D02F48006941F6EF71CB
:2015C00008402D490861204670BD2DE9F04304464FF6FF763746B046B1460425E443E6B2B2
:2015E000C4F30727C4F307484FEA1469E802FFF794FE0546042D49D120481F498860204822
:2016000088600846006940F010000861FF2E06D01C4808300680E802FFF77FFE0546042D84
:2016200008D1FF2F06D017480A300780E802FFF774FE0546042D0AD1B8F1FF0F07D011481D
:201640000C30A0F80080E802FFF767FE0546042D0AD1B9F1FF0F07D00A480E30A0F8009053
:20166000E802FFF75AFE0546052D0FD00248006941F6EF71084007E000200240230167452B
:20168000AB89EFCD00F8FF1F664908612846BDE8F08330B5054604244FF43020FFF73DFE8A
:2016A0000446042C41D160485E4988605F4888600846006940F0200008610846006940F081
:2016C000400008614FF43020FFF727FE0446042C22D15448006941F6DF710840514908616F
:2016E0000846006940F0100008611DB100205049088002E0A5204E4908804FF43020FFF72C
:201700000CFE0446052C10D04648006941F6EF7108404449086108E0052C06D041480069B7
:2017200041F6DF7108403F490861204630BDF0B505460E46174604243B483A4988603B485C
:201740008860E002FFF7E9FD0446042C19D13548006940F010003349086147F0F8003043D2
:2017600028433349891C0880E002FFF7D6FD0446052C06D02B48006941F6EF71084029492C
:2017800008612046F0BD2748C069800870472548006A704700202349096811F0200F01D06A
:2017A000012000E00020704729B11E4A126902431C4B1A6104E01B4A12698243194B1A6105
:2017C000704701460020012908D1164AD26912F0010F01D0012008E0002006E0114AD268C6
:2017E0000A4201D0012000E0002070470D49C860704704200B49C96811F0010F01D0012013
:201800000EE00849C96811F0040F01D0022007E00449C96811F0100F01D0032000E00420D4
:20182000704700000020024023016745AB89EFCD00F8FF1F10B50446BE48844208D10121E3
:201840008014FFF7C7FA0021A014FFF7C3FA16E0B948844208D101210014FFF7C8FA002110
:201860002014FFF7C4FA0AE0B448844207D10121C013FFF7BCFA0021E013FFF7B8FA10BDD2
:2018800010B50022028802F441520B884C8823438C882343CC8823430C8923434C89234317
:2018A0008C892343CC8923431A430280838B4FF2FF74234083830B8A038210BD2DE9F04FAC
:2018C00085B005460C464FF0000902274FF000084FF0010B0026B246A88B4FF24001084018
:2018E000A88302202884B5F81C90A068022801D100BF38E0A08810B94FF0010B01E04FF05F
:20190000020B8D48854200D100E000BF6846FFF7DAF9DDF800A0E088B0F5007F0AD14FEA22
:201920001A2000EB80004000A168B0FBF1F0401D86B20BE04FEA4B10BAFBF0F000EB800019
:201940004000A168B0FBF1F0401D86B20A20B6FBF0F606F00108A6EB0800C0F34F074FF676
:20196000FF7000EA0828022F01DBFF2F02DD02274FF00008E08840EA080038432884A0886B
:20198000A1890843618808432188084340F4006040EA0909A5F81C9005B0BDE8F08F002197
:2019A000018041808180C180018141818181C1810721018270470021018041808180C18014
:2019C0000221816000218181704721B1028842F04002028004E002884FF6BF731A40028016
:2019E000704721B1828B42F48062828304E0828B4FF6FF331A408283704730B5002400238A
:201A00000C110125A540ABB21AB185881D43858002E085889D43858030BD1AB183880B431F
:201A2000838002E083888B438380704781817047014688897047A1F57E42FF3A04D0028879
:201A400042F48072028004E002884FF6FF631A400280704721B1828842F00402828004E03A
:201A600082884FF6FB731A408280704702884FF2FF731A40028002880A43028070470188E4
:201A800041F480510180704721B1028842F40052028004E002884DF6FF731A4002807047EC
:201AA00002460020012901D0108B00E0908A70470146088A7047B1F5804F04D1028842F4DD
:201AC0008042028004E002884BF6FF731A40028070470246002013890B4201D0012000E0EB
:201AE00000207047CA4302817047F0B50246002000240023002501F00F070126BE40B4B2BD
:201B00000B1101269E40B3B2968806EA03051689264202D00DB1012000E00020F0BD10B5FF
:201B2000002201F00F040123A3409AB2D343038110BD00000030014000380040003C004060
:201B400010B500240020D14908604FF0900000F013FA002000F010FA002000F00DFA0020DD
:201B600000F00AFAFF2000F007FA44EA0024FF2000F002FA04430120C549C1F8B0012046BE
:201B800010BD08B501210820FFF70AF94FF48050ADF8000010208DF8030003208DF802005E
:201BA0006946BC48FEF746FE4FF48051B948FEF7ECFE00F008FA002000F04BFAFFF7C0FF49
:201BC000B549088008BD10B500240020AF4908604FF0050000F0D0F9FF2000F0CDF9044635
:201BE0000120AB49C1F8B001204610BD10B504460020A64908604FF0010000F0BDF9204661
:201C000000F0BAF90120A249C1F8B00110BD10B500209E4908604FF0060000F0ADF90120AE
:201C20009B49C1F8B00110BD10B50020974908604FF0040000F0A0F901209549C1F8B00127
:201C400010BD2DE9F04106460C46174600208F4908604FF0030000F08FF9C4F3074000F06D
:201C60008BF9C4F3072000F087F9E0B200F084F9002505E0FF2000F07FF97055681C85B282
:201C8000BD42F7DB012081490860BDE8F08110B500BFFFF798FF10F0010FFAD110BD2DE93B
:201CA000F04106460C461746FFF7B1FF0020774908604FF0020000F05FF9C4F3074000F093
:201CC0005BF9C4F3072000F057F9E0B200F054F9002504E0705D00F04FF9681C85B2BD42FB
:201CE000F8DB012069490860FFF7D1FFBDE8F0812DE9F04107460E461446F0B2C0F580756C
:201D0000AC4200DC254612E02A4631463846FFF7C6FFAC4200D10BE02F442E44601B84B23C
:201D2000B4F5807F02DD4FF4807500E02546EBE700BFBDE8F08110B504462403FFF767FF60
:201D4000FFF7A5FF0020514908604FF0200000F013F9C4F3074000F00FF9C4F3072000F0A8
:201D60000BF9E0B200F008F901204949C1F8B001FFF78DFF10BD2DE9F04781460F461646AB
:201D80004FEA1738C7F30B0ACAF58054A64200DC344644E04FEA08314FF480523F48FFF7F3
:201DA00050FF002508E00AEB05003C49085CFF2800D003E0681C85B2A542F4DB00BFA542F3
:201DC00016DA4046FFF7B7FF002507E019F8050005EB0A01314A5054681C85B2A542F5DB33
:201DE0004FEA08314FF480522C48FFF781FF04E0224639464846FFF77BFFA64200D10FE001
:201E000008F101084FF0000AA1442744301B86B2B6F5805F02DD4FF4805400E03446B9E72A
:201E200000BFBDE8F08710B5FFF7F1FEFFF72FFF0020164908604FF0C70000F09DF8012066
:201E40001349C1F8B001FFF722FF10BD10B500200E4908604FF0B90000F08EF801200C4950
:201E6000C1F8B0010320FEF71CFB10BD10B50020064908604FF0AB0000F07EF801200449A2
:201E8000C1F8B0010320FEF70CFB10BDB081214200802142000C014034000020480200206A
:201EA0002DE9F05F06460F4690460024B3463D46A1461CE068784FEA002A287850441FFA33
:201EC00080FAAD1C2046611C8CB2174921F810A0B4F5806F07D100244FF48062584600F02E
:201EE000F6F80BF5006B09F102001FFA80F9C145E0D324B122460C49584600F0E8F8BDE89D
:201F0000F09F10B50446206808490840B0F1005F08D16068064908602068FEF7F4F80448F5
:201F20000068804710BD0000481200200000FE2F3800002008B501210520FEF731FF01215B
:201F40000B48FEF746FD4FF40040ADF8000010208DF8030003208DF8020069460548FEF77B
:201F600069FC4FF400410348FEF70FFD08BD0000000230000008014070B50546002405E073
:201F8000601CC4B2C82C01DD002070BD02213A48FFF79FFD0028F3D029463748FFF746FDE7
:201FA000002405E0601CC4B2C82C01DD0020ECE701213148FFF78DFD0028F3D02E48FFF7EF
:201FC00037FDC0B2E1E700B587B001210820FEF7E7FE01218803FEF7F0FE4FF46040ADF86B
:201FE000180018208DF81B0003208DF81A0006A92248FEF71FFC4FF460412048FEF7C5FC04
:202000000020ADF804004FF48270ADF806000020ADF808000220ADF80A000120ADF80C00A7
:202020004002ADF80E003820ADF810000020ADF812000720ADF8140001A90F48FFF720FCD4
:2020400001210D48FFF7C1FCFF20FFF795FF07B000BD10B50446084800884FF6C77108408D
:2020600005490880084600882043088001210248FFF7ABFC10BD000000380040000C01402E
:202080000146088870472DE9F04105460E461746002407E036F814102846FFF754FAAD1C97
:2020A000601C84B2BC42F5DBBDE8F08130B503460C461546002207E01846FFF7E1FF24F856
:2020C00012009B1C501C82B2AA42F5DB30BD2DE9F05F80468A461746B8F1006F02D337482A
:2020E000804501D3BDE8F09FFFF7E5F8A8F1006B4FEA9B25CBF34809C9F50074A74200DC3D
:202100003C464DE04FF0006101EB85208A142C49FFF7CCFF00260BE009EB0600284931F866
:202120001000A0F57F41FF3900D003E0701C86B2A642F1DB00BFA6421BDA4FF0006101EBAF
:202140008520FFF7FDF8002608E03AF8160006EB09011B4A22F81100701C86B2A642F4DB93
:202160004FF0006101EB85208A141549FFF78BFF04E0224651464046FFF785FFA74200D115
:202180000FE06D1C4FF000090AEB440AA044381B87B2B7F5007F02DD4FF4007400E03C46A9
:2021A000B0E700BFFFF793F800BF9BE713B50446012201A92046FFF78AFF1CBD0000010861
:2021C000481A0020FDF79DFF00BF7948006800F4E06078490843001D75490860BFF3408F01
:2021E00000BF00BFFEE789B10AE000BF724A128812F0400FFAD010F8012B6F4B1B1D1A8068
:202200000A00A1F1010399B2EFD10EE00AE000BF694A128812F0400FFAD010F8012B664B2F
:202220001B1D1A800278002AF1D170472DE9FC41624C0027002503E0605D0744681C85B2BC
:20224000B5F5007FF8DBD4F80402B84208D0F620009001216846FFF7C6FF0120BDE8FC816A
:20226000D4F80002A0F57D41FD3910D1002504E02846FFF760FD681C85B21F2DF8DDF5206B
:20228000009001216846FFF7AEFF0020E6E7D4F80002012802D14A4908801AE04848008857
:2022A000401CD4F80012814205D0D4F80002A0F57E41FE3905D142480088401C404908809E
:2022C00007E0F620009001216846FFF78CFF0120C4E73B480088401E4602B6F5F03F07D3EF
:2022E000F620009001216846FFF77DFF0120B5E74FF4007231463148FFF7FAFCF520009003
:2023000001216846FFF76FFFD4F80002A0F57E41FE390FD145F6A520019002224FF4F8312F
:2023200001A8FFF7E5FC022226492548FFF7E0FCFFF748FF002091E77CB502224FF4F831B5
:2023400001A8FFF77EFCBDF80400A0F5B441A5392DD102221B496846FFF773FC00240FE097
:20236000A1024FF480621548FFF76BFC164800EB8425421411492846FFF792FD601C84B294
:20238000BDF800008442EBDB4FF6FF70019002224FF4F83101A8FFF7EEFC002000900222CA
:2023A00008496846FFF7E7FC0748FFF7AAFD7CBD0CED00E00000FA0500380140400000206F
:2023C0003C00002010F001000028000810B50020604908606049C1F8A4014FF0C800FEF777
:2023E00083F801205B4908604FF03C00FEF77CF801205949C1F8A40110BD08B50121042060
:20240000FEF7CEFC4FF4C850ADF8000010208DF8030003208DF8020069465048FEF70AFA5B
:202420004FF4C8514D48FEF7B0FA01210420FEF7B7FC4FF40070ADF8000003208DF802001C
:2024400018208DF8030069464448FEF7F3F94FF400714248FEF799FA08BD70B505460C4653
:202460000220FEF781F800212846FFF7BCFE2046FEF73AF870BD10B50020394908604FF4C1
:202480004870FEF731F801203349C1F8B001C82134A0FFF7E2FF10BD10B500203049086038
:2024A0004FF44870FEF720F801202B49C1F8B001C8212FA0FFF7D1FFC82130A0FFF7CDFF1C
:2024C000C82134A0FFF7C9FFC82136A0FFF7C5FFC82137A0FFF7C1FFC8213AA0FFF7BDFF1D
:2024E000C8213BA0FFF7B9FFC8213CA0FFF7B5FFC8213DA0FFF7B1FFC82141A0FFF7ADFF23
:20250000C82145A0FFF7A9FFC82148A0FFF7A5FFC8214CA0FFF7A1FFC8214DA0FFF79DFF11
:20252000C8214EA0FFF799FFC82150A0FFF795FFC82152A0FFF791FFC82153A0FFF78DFF14
:20254000C82154A0FFF789FFC82155A0FFF785FF10BD0000AC01214200002142000801403F
:20256000B001214261742B44663D310D0000000061742B57413D310D0000000061742B41CE
:20258000737369643D53616E726973655F6366670D00000061742B41737369646C3D3131DB
:2025A0000D00000061742B41616D3D370D00000061742B4170773D31323334353637380D68
:2025C0000000000061742B4170776C3D380D000061742B416368616E3D330D0061742B6429
:2025E0006863703D300D000061742B4169703D3139322C3136382C302C39390D0000000061
:2026000061742B6D61736B3D3235352C3235352C3235352C300D000061742B67773D3139B7
:20262000322C3136382C302C39390D0061742B646E733D3139322C3136382C302C39390DA6
:202640000000000061742B55547970653D310D0061742B5549703D300D00000061742B552B
:202660004C506F72743D383038300D0061742B55623D3131353230300D00000061742B55D0
:20268000643D380D0000000061742B55703D300D0000000061742B55733D310D00000000D2
:2026A00061742B52623D310D0000000008B501210820FEF775FB0420ADF8000028208DF8E9
:2026C000030069460148FEF7B5F808BD000C0140064C074D06E0E06840F0010394E80700C0
:2026E00098471034AC42F6D3FDF704FD142700083427000802E008C8121F08C1002AFAD1C4
:2027000070477047002001E001C1121F002AFBD170470000342700080000002040000000E7
:20272000F42600087427000840000020082600000427000800A24A04000000000000000023
:2027400001020304060708090000000000000000000000000000000001020304010203043D
:20276000060708090204060816EF00000000000000000000FFFFFFFFFFFFFFFFFFFFFFFF2E
:20278000FFFFFFFFFFFFFFFFFFFFFFFFFFFFFFFFFFFFFFFFFFFFFFFFFFFFFFFFFFFFFFFF59
:2027A000FFFFFFFFFFFFFFFFFFFFFFFFFFFFFFFFFFFFFFFFFFFFFFFFFFFFFFFFFFFFFFFF39
:2027C000FFFFFFFFFFFFFFFFFFFFFFFFFFFFFFFFFFFFFFFFFFFFFFFFFFFFFFFFFFFFFFFF19
:2027E000FFFFFFFFFFFFFFFFFFFFFFFFFFFFFFFFFFFFFFFFFFFFFFFFFFFFFFFFFFFFFFFFF9
:20280000D8380020F9B50008D1C20008D3C20008D7C20008DBC20008DFC2000800000000AB
:2028200000000000000000000000000075290008E3C2000800000000FD2900084D2A000898
:202840000FB600080FB600080FB60008D57300080FB600080FB600080FB600080FB600088D
:202860000FB600080FB600080FB600080FB600080FB600080FB600080FB600080FB60008F0
:202880000FB600080FB600080FB600080FB600080FB600080FB600080FB600080FB60008D0
:2028A0000FB600080FB600080FB600080FB600080FB600080FB600080FB600080FB60008B0
:2028C0000FB600080FB600080FB600080FB600080FB600086F2B00080FB600080FB60008BB
:2028E0000FB600080FB600080FB60008DFF80CD00AF0BAF900480047F5C10008D838002094
:2029000030BF72B662B680F30888704780F309887047EFF309807047684680F309880448F3
:202920000078C00714BF0220032080F314887047E4EA0008DFF818C0EFF305831B0618BF93
:202940006047EFF31483DB0708BF604700DF7047B7CE0008DFF818C0EFF305831B0618BFD3
:202960006047EFF31483DB0708BF604700DF704705D10008EFF30980816911F8021C39BB03
:2029800090E80F10E047EFF3098C194B93E80600914218D059B10CB44FF0010381F8263086
:2029A0002CE9F00FC1F82CC00AF074FD0CBC1A60D2F82CC0BCE8F00F92F826308CF3098868
:2029C0001BB192F82500CCF800006FF0020E704710B5084A1268914209D8074C54F821404D
:2029E00090E80F10A047EFF3098C8CE80F0010BDC4000020CCCC0008CCCC00080AF07CFCFC
:202A0000114B93E8060091421BD00CB44FF0000381F82630EFF3098C2CE9F00FC1F82CC01A
:202A20000AF038FD0CBC1A60D2F82CC0BCE8F00F8CF3098892F826301BB192F82530CCF86D
:202A400000306FF0020E7047C40000200AF0F2FDD6E700000AF02EFA0AF0ECFDD0E70000DA
:202A600010B56FF0040000F016FC2D4800682D49B0FBF1F02C490870084600784FF4FA61FC
:202A800048434FF0E0214861002088610846006940F00100086110BDF0B5034600224FF04C
:202AA000E026B16975695E1E1F4F3F7806FB07F400BF10E04FF0E026B06988420BD08842FF
:202AC00002D20E1A324402E02E1A0E4432440146A24200D300E0EDE700BFF0BD10B5044665
:202AE00003E04FF47A70FFF7D7FF201EA4F101018CB2F6D110BD70B504460D46601EC6B29B
:202B000000200A4921F8160021462846DFF820C000DF00BF054830F816000028FAD070BD3F
:202B2000AC00002000127A00000000200200002075D6000810B54FF4A06000F05DFB10BD8B
:202B4000014600BF704700BF914A128802F04002002AF9D0C2B28E4B1B1D1A807047002166
:202B60008C4A118010B1411E8B4A117070478849098801F02001002978D08549091D098857
:202B8000C8B28649097821B1012955D0022952D16DE08049098801F4004100294BD17D4914
:202BA000098801F4804159B30A2803D00021794A118040E078490978D9B177490978491EB4
:202BC000754A117073490988C1F30D01714A11800D21734A6F4B1B88D1540A22704B6D4950
:202BE0000988491C5A546B490988891C694A118021E06849098841F40041664A11801AE00F
:202C00000D2806D16349098841F48041614A118011E060490988C1F30D01614A50545D4957
:202C20000988491C5B4A118011460988B1F5027F01D30021118036E05649098840F2072232
:202C4000914208D253490A880988491C514B19805349885409E052494E4A128888544D49CE
:202C6000098841F400414B4A11801CE01CE04949098840F20722914214D2F12802D10021EB
:202C8000444A118043490A880988491C414B198043498854F32805D11946098841F400411D
:202CA0001A46118000BF00BF704710B586B00446012144F2040000F029FE4FF40070ADF8DE
:202CC000140003208DF8160018208DF8170005A9344800F05FFB4FF48060ADF814000420DA
:202CE0008DF8170005A92F4800F054FB01940020ADF80800ADF80A00ADF80C00ADF810005D
:202D00000C20ADF80E0001A9214800F0A6FE25208DF8000000208DF8010004208DF8020012
:202D200001208DF80300684600F06BFA012240F22551174800F029FF0121154800F019FF1E
:202D400006B010BD91B10BE000BF114A128802F04002002AF9D010F8012B0D4B1B1D1A808A
:202D60000A1EA1F1010399B2EED10FE00BE000BF074A128802F04002002AF9D010F8012BAC
:202D8000034B1B1D1A800278002AF0D170470000003801400C0000200E0000200F000020F5
:202DA000EC0000200008014010B50446FA48844208D10121401500F0C3FD0021601500F021
:202DC000BFFD17E0F548844208D10121001500F0B7FD0021201500F0B3FD0BE0F0488442AA
:202DE00008D10121C80300F0ABFD00214FF4004000F0A6FD10BD30B5024600200023506849
:202E0000E84C20400D790C6844EA0524204350609068E54C2040D1E902542C434D7944EABE
:202E2000450420439060D06A20F470000C7C641EE4B2234340EA0350D06230BD0021016014
:202E4000017141718160C16001210174704721B1826842F00102826003E0826822F0010249
:202E60008260704721B1826842F48072826003E0826822F480728260704710B50023CBB220
:202E80001AB144681C43446002E044689C43446010BD816841F008018160704701460020B8
:202EA0008A6802F008020AB1012000E000207047816841F0040181607047014600208A6881
:202EC00002F004020AB1012000E00020704721B1826842F4A002826003E0826822F4A0026C
:202EE00082607047014600208A6802F480020AB1012000E00020704710B50A46002100237C
:202F0000416821F46041531E41EA4331416010BD21B1426842F40062426003E0426822F47B
:202F2000006242607047F0B504460D4600200021092D11DDE068A5F10A0606EB46070726D6
:202F400006FA07F18843A5F10A0606EB460603FA06F10843E0600CE0206905EB450707266E
:202F600006FA07F1884305EB450603FA06F108432061072A0FDA606B561E06EB86071F2677
:202F800006FA07F18843561E06EB860605FA06F10843606322E00D2A0FDA206BD61F06EBE6
:202FA00086071F2606FA07F18843D61F06EB860605FA06F10843206310E0E06AA2F10D0666
:202FC00006EB86071F2606FA07F18843A2F10D0606EB860605FA06F10843E062F0BD21B146
:202FE000826842F48012826003E0826822F48012826070470146C86C80B2704766484C30A1
:203000000068704721B1426842F48062426003E0426822F480624260704721B1426842F4CB
:203020008052426003E0426822F48052426070470A460021816821F4E041114381607047D2
:2030400021B1826842F40042826003E0826822F400428260704721B1826842F402128260B4
:2030600003E0826822F4021282607047014600208A6802F400120AB1012000E000207047CC
:20308000F0B504461546002000220026092911DDE068A1F10A0707EB470C072707FA0CF201
:2030A0009043A1F10A0707EB470703FA07F21043E0600CE0206901EB410C072707FA0CF2F6
:2030C000904301EB410703FA07F210432061A06BC0F30156EF1C06F1010CA7EB0C0707EB64
:2030E000870C1F2707FA0CF29043EF1C06F1010CA7EB0C0707EB870701FA07F21043A063A7
:20310000F0BD10B50A4600210023816B21F44011531E41EA0351816310BD08B50023009343
:203120000090009B0B440093009B1A6008BD08B5024600200090009201F12800009B184450
:2031400000900098006880B208BD0A4600214168164B19401143416070474162826270472A
:203160000A460021416821F01F0111434160704740B109490831096841F40001064A0832AB
:20318000116007E004490831096821F40001024A083211607047000000240140002801404E
:2031A000003C0140FFFEF0FFFDF7F1FFFFFD3FFF0246002013680B400BB1012000E000207D
:2031C0007047CA430260704770B502460020002300240B125568CEB205EA060415681D4011
:2031E00015B10CB1012000E0002070BD00220A12D34303607047000031490143314A1160E6
:20320000704770B5002100230F22C47804B32D4C246804F4E064C4F5E064210AC1F1040348
:20322000CA40447804FA03F18478144021430901254C0678A155047804F01F050124AC408E
:2032400005786D11AD0005F1E025C5F8004109E0047804F01F050124AC401C4D06787611D1
:2032600045F8264070BD1A4A0A400243154B1B1F1A60704739B1134A121D12680243114B2F
:203280001B1D1A6006E00F4A121D126882430D4B1B1D1A607047042808D14FF0E021096957
:2032A00041F004014FF0E022116107E04FF0E021096921F004014FF0E0221161704700000C
:2032C0000000FA050CED00E000E400E080E100E080FFFF1F10B50446CC48844208D1012190
:2032E000042000F02DFB0021042000F029FB46E0C748844208D10121082000F021FB0021EE
:20330000082000F01DFB3AE0C248844208D10121102000F015FB0021102000F011FB2EE00D
:20332000BD48844208D10121202000F009FB0021202000F005FB22E0B848844208D101217F
:20334000402000F0FDFA0021402000F0F9FA16E0B348844208D10121802000F0F1FA002174
:20336000802000F0EDFA0AE0AE48844207D10121801500F0E5FA0021A01500F0E1FA10BD64
:2033800010B50121084600F0DBFA0021012000F0D7FA10BD2DE9F041024600250026002069
:2033A00000230024002791F803C00CF00F0591F803C00CF0100CBCF1000F03D091F802C005
:2033C0004CEA050591F800C0BCF1000F31D0146800202BE04FF0010C0CFA00F3B1F800C052
:2033E0000CEA03069E4220D183004FF00F0C0CFA03F7BC4305FA03FC4CEA040491F803C099
:20340000BCF1280F06D14FF0010C0CFA00FCC2F814C00AE091F803C0BCF1480F05D14FF0C6
:20342000010C0CFA00FCC2F810C0401C0828D1D31460B1F800C0BCF1FF0F34DD546800203E
:203440002EE000F1080C4FF0010808FA0CF3B1F800C00CEA03069E4221D183004FF00F0CF9
:203460000CFA03F7BC4305FA03FC4CEA040491F803C0BCF1280F05D100F1080C08FA0CF800
:20348000C2F8148091F803C0BCF1480F07D100F1080C4FF0010808FA0CF8C2F81080401CBD
:2034A0000828CED35460BDE8F0814FF6FF710180022181700421C1707047024600209368B7
:2034C0000B400BB1012000E0002070470146886880B2704702460020D3680B400BB1012022
:2034E00000E0002070470146C86880B2704701617047416170470AB1016100E041617047ED
:20350000C16070474FF480320A4382618161826182698269704702460020434B18684FF6A1
:203520008073184040EA021008433F4B186070473E49C8617047F0B50A460023002400213C
:20354000002500F00046B6F1004F02D1364EF16901E0354E7168C0F3034583B200F44016B2
:20356000B6F5401F08D121F070612F4E766826F070662D4F7E6012E000F48016B6F5801F1F
:2035800006D1032606FA05F4A14341F0706106E0460D360103FA06F6B14341F0706122B11A
:2035A000460D360103FA06F6314300F00046B6F1004F02D11C4EF16101E01B4E7160F0BD91
:2035C00030B500228B071C0F0F2303FA04F2164B08338C1053F824309343134C08348D101D
:2035E00044F8253023468C1053F824308C07240F00FA04F423430C4C08348D1044F82530B6
:2036000030BD0A49DC3108607047000000080140000C0140001001400014014000180140A9
:20362000001C0140002001400000014000002042DF48006840F00100DD49086008464068E5
:20364000DC490840DA49486008460068DA490840D74908600846006820F480200860084669
:20366000406820F4FE0048604FF41F0088607047CF49096821F48031CD4A11601146096848
:2036800021F480211160B0F5803F03D0B0F5802F0ED106E0C649096841F48031C44A1160CE
:2036A00007E0C349096841F4A021C14A116000E000BF00BF704710B50146002200230020AE
:2036C0004A11012A02D1BA4C236806E0022A02D1B74C236A01E0B64C636A01F01F020124A4
:2036E00094401C400CB1012000E0002010BD38B5002000900024002500BF3120FFF7DBFF29
:2037000005460098401C00900098B0F5A06F01D0002DF2D03120FFF7CEFF08B1012400E0FC
:203720000024204638BD01460020A14A106820F0F80040EAC10010607047A049086070471E
:20374000024600209A4B586820F47C1042EA01031843974B58607047984908667047014693
:203760000020934A506820F003000843506070478F48406800F00C007047014600208C4A60
:20378000506820F0F00008435060704701460020874A506820F4E060084350607047014682
:2037A0000020834A506820F4605040EAC1005060704729B17E4A527A02437D4B5A7204E023
:2037C0007B4A527A82437A4B5A7270477B49D8310860704701460020754A506820F44040ED
:2037E0000843506070470021714A20321170704A82F82010012802D004280AD104E00121FC
:203800006B4A2032117005E00521694A2032117000E000BF00BF70476949086070476449FC
:20382000096A0143624A11627047654944390860704730B500210022002400235C4D6D68C4
:2038400005F00C0121B1042905D0082923D105E05C4D056022E05B4D05601FE0544D6D68F6
:2038600005F47012524D6D6805F48034022505EB92421CB9544D554305600BE04C4D6D68F5
:2038800005F400351DB1504D5543056002E04D4D5543056002E04B4D056000BF00BF444D2B
:2038A0006D6805F0F0010909484D6B5C0568DD4045603F4D6D6805F4E061090A434D6B5CAB
:2038C0004568DD4085603A4D6D6805F46051C90A3E4D6B5C4568DD40C560354D6D6805F4CF
:2038E0004041890B3A4D6B5CC568B5FBF3F5056130BD29B12E4A526902432D4B5A6104E0E4
:203900002B4A526982432A4B5A61704729B1284A92690243264B9A6104E0254A92698243C0
:20392000234B9A61704729B1214AD2690243204BDA6104E01E4AD26982431D4BDA61704756
:2039400029B11B4AD2680243194BDA6004E0184AD2688243164BDA60704729B1144A1269C1
:203960000243134B1A6104E0114A12698243104B1A61704712494039086070470F49C864A6
:2039800070470B49C87170470948406A40F0807007494862704701460020054A92680A4066
:2039A0000AB1012000E000207047014988727047001002400000FFF8FFFFF6FE00004242BA
:2039C0008004424200127A0000093D00100000202000002010B50446FB48844209D1012189
:2039E0008803FFF7ADFF00214FF48040FFF7A8FF32E0F648844209D101214804FFF7ADFFD9
:203A000000214FF40030FFF7A8FF25E0F048844209D101218804FFF7A0FF00214FF4802051
:203A2000FFF79BFF18E0EB48844209D10121C804FFF793FF00214FF40020FFF78EFF0BE0C3
:203A4000E548844208D101210805FFF786FF00214FF48010FFF781FF10BD2DE9F04786B036
:203A600005460E460024A24600BFA1460027B08900B100BF2F462C8A4CF6FF700440F0888D
:203A800004432C82AC894EF6F3100440B08831890843718908430443AC81AC8A4FF6FF40C1
:203AA0000440B0890443AC8201A8FFF7C2FEC648874202D1DDF810A001E0DDF80CA0A889F3
:203AC00000F4004040B10AEBCA0000EB0A1031684900B0FBF1F807E00AEBCA0000EB0A10DC
:203AE00031688900B0FBF1F86420B8FBF0F004012009642101FB1089A88900F4004040B15B
:203B0000322000EBC900B0FBF1F000F00700044308E0322000EB09106421B0FBF1F000F096
:203B20000F0004432C8106B0BDE8F0874FF41651016000218180C18001810C2141810021B0
:203B40008181704710B502460020108A4FF2FF0318400B884C8823438C882343CC88234349
:203B60001843108210BD0021018041808180C180704721B1828942F40052828104E08289D8
:203B80004DF6FF731A4082817047F0B50346002400260025002040F66A17B94200D100BF9D
:203BA0001846C1F3421401F01F06012707FA06F5012C01D10C3004E0022C01D1103000E024
:203BC00014301AB107682F43076002E00768AF430760F0BD1AB1838A0B43838202E0838A1D
:203BE0008B4383827047028A4FF6F0731A400282028A0A430282704782894FF2FF731A40FD
:203C0000828182890A438281704721B1828942F00202828104E082894FF6FD731A40828178
:203C20007047028A4FF6DF731A400282028A0A430282704721B1028A42F48042028204E0FA
:203C4000028A4BF6FF731A4002827047C1F308028280704701468888C0F308007047818946
:203C600041F0010181817047028BD2B20283028B42EA012202837047028B02F47F420283E1
:203C8000028B0A430283704721B1828A42F02002828204E0828A4FF6DF731A40828270473C
:203CA00021B1828A42F01002828204E0828A4FF6EF731A408282704721B1828A42F0080218
:203CC000828204E0828A4FF6F7731A408282704721B1828942F40042828103E08289C2F331
:203CE0000E028281704721B1828A42F40062828204E0828A4FF2FF731A4082827047828ABC
:203D00004FF6FB731A408282828A0A438282704721B1828A42F00202828204E0828A4FF631
:203D2000FD731A408282704702460020B1F5007F00D100BF13880B400BB1012000E000201E
:203D4000704701F40072B2F5007F00D100BFCA430280704770B50246002400230025002050
:203D600040F66A16B14200D100BFC1F3421501F01F03012606FA03F3012D02D1968933403C
:203D800006E0022D02D1168A334001E0968A33400C12012606FA04F41688344013B10CB1E4
:203DA000012000E0002070BD10B50022002340F66A14A14200D100BF0A1201249440A3B21A
:203DC000DC43048010BD0000003801400044004000480040004C00400050004010B50446C3
:203DE000BE48844208D101218014FFF7A9FD0021A014FFF7A5FD16E0B948844208D10121A7
:203E00000014FFF7AAFD00212014FFF7A6FD0AE0B448844207D10121C013FFF79EFD0021D8
:203E2000E013FFF79AFD10BD10B50022028802F441520B884C8823438C882343CC8823433A
:203E40000C8923434C8923438C892343CC8923431A430280838B4FF2FF74234083830B8A57
:203E6000038210BD2DE9F04F85B005460C464FF0000902274FF000084FF0010B0026B246A8
:203E8000A88B4FF240010840A88302202884B5F81C90A068022801D100BF38E0A08810B907
:203EA0004FF0010B01E04FF0020B8D48854200D100E000BF6846FFF7BCFCDDF800A0E08845
:203EC000B0F5007F0AD14FEA1A2000EB80004000A168B0FBF1F0401D86B20BE04FEA4B101C
:203EE000BAFBF0F000EB80004000A168B0FBF1F0401D86B20A20B6FBF0F606F00108A6EB07
:203F00000800C0F34F074FF6FF7000EA0828022F01DBFF2F02DD02274FF00008E08840EAA6
:203F2000080038432884A088A1890843618808432188084340F4006040EA0909A5F81C9074
:203F400005B0BDE8F08F0021018041808180C180018141818181C1810721018270470021D8
:203F6000018041808180C1800221816000218181704721B1028842F04002028004E002881F
:203F80004FF6BF731A400280704721B1828B42F48062828304E0828B4FF6FF331A40828354
:203FA000704730B5002400230C110125A540ABB21AB185881D43858002E085889D43858088
:203FC00030BD1AB183880B43838002E083888B4383807047818170470146888970474FF64B
:203FE000FF62914204D0028842F48072028004E002884FF6FF631A400280704721B1828801
:2040000042F00402828004E082884FF6FB731A408280704702884FF2FF731A40028002880F
:204020000A4302807047018841F480510180704721B1028842F40052028004E002884DF61C
:20404000FF731A400280704702460020012901D0108B00E0908A70470146088A7047B1F576
:20406000804F04D1028842F48042028004E002884BF6FF731A4002807047024600201389E0
:204080000B400BB1012000E000207047CA4302817047F0B50246002000240023002501F090
:2040A0000F070126BE40B4B20B1101269E40B3B2968806EA03051689264016B10DB1012018
:2040C00000E00020F0BD10B5002201F00F040123A3409AB2D343038110BD0000003001401D
:2040E00000380040003C004001460020FE4A106800F03800084310607047FB49096821F045
:204100000801F94A116011460968014311607047F549096821F01001F34A11601146096867
:20412000014311607047F148EF494860F04848607047EE48EC494860ED4848607047EA488A
:20414000006940F08000E84908617047E648006940F08000E449086170470420E249C968E1
:2041600001F0010109B101200EE0DF49C96801F0040109B1022007E0DB49C96801F010011A
:2041800009B1032000E00420704700B502460423FFF7E3FF034603E0FFF7DFFF0346521ED2
:2041A000012B01D1002AF7D102B90523184600BD30B5044604254FF43020FFF7E6FF054600
:2041C000042D17D1C848006940F00200C649086108464461006940F0400008614FF43020DB
:2041E000FFF7D3FF0546C048006941F6FD710840BD490861284630BD10B504244FF4302004
:20420000FFF7C3FF0446042C16D1B748006940F00400B54908610846006940F040000861F2
:204220004FF43020FFF7B1FF0446AF48006941F6FB710840AC490861204610BD00B5024622
:204240000423FFF78AFF034603E0FFF786FF0346521E012B01D1002AF7D102B90523184627
:2042600000BD10B504244FF43020FFF7E7FF0446042C16D19C48006940F004009A490861F7
:204280000846006940F0400008614FF43020FFF7D5FF04469448006941F6FB7108409249DC
:2042A0000861204610BD00208F49C96901F0020109B1012000E00020704730B5A5250424DB
:2042C000FFF7F1FF00B100254FF43020FFF75DFF0446042C3AD18548834988608448886083
:2042E0000846006940F0200008610846006940F0400008614FF43020FFF747FF0446042C75
:204300001BD17948006941F6DF710840764908610846006940F01000086176480580E0020B
:20432000FFF733FF0446052C10D06F48006941F6EF7108406C49086108E0052C06D06A483C
:20434000006941F6EF71084067490861204630BD78B506460C46042500200090E802FFF725
:2043600014FF0546042D24D15F48006940F001005D4908613480E802FFF707FF0546042D53
:2043800010D1B01C0090200C00990880E802FFF7FCFE05465448006941F6FE7108405249E0
:2043A000086106E05048006941F6FE7108404E490861284678BD70B504460D460426F0023E
:2043C000FFF7E3FE0646042E11D14748006940F00100454908612580F002FFF7D6FE0646D9
:2043E0004148006941F6FE7108403F490861304670BD70B505460E460424E002FFF7C5FEC2
:204400000446042C17D1394837498860384888600846006940F0100008612E80E002FFF703
:20442000B4FE0446052C06D02F48006941F6EF7108402D490861204670BD2DE9F0430446B5
:204440004FF6FF763746B046B1460425E443E6B2C4F30727C4F307484FEA1469E802FFF7CF
:2044600094FE0546042D49D120481F498860204888600846006940F010000861FF2E06D0A9
:204480001C4808300680E802FFF77FFE0546042D08D1FF2F06D017480A300780E802FFF744
:2044A00074FE0546042D0AD1B8F1FF0F07D011480C30A0F80080E802FFF767FE0546042D37
:2044C0000AD1B9F1FF0F07D00A480E30A0F80090E802FFF75AFE0546052D0FD00248006973
:2044E00041F6EF71084007E00020024023016745AB89EFCD00F8FF1F664908612846BDE893
:20450000F08330B5054604244FF43020FFF73DFE0446042C41D160485E4988605F488860BA
:204520000846006940F0200008610846006940F0400008614FF43020FFF727FE0446042C53
:2045400022D15448006941F6DF710840514908610846006940F0100008611DB100205049AA
:20456000088002E0A5204E4908804FF43020FFF70CFE0446052C10D04648006941F6EF7171
:2045800008404449086108E0052C06D04148006941F6DF7108403F490861204630BDF0B544
:2045A00005460E46174604243B483A4988603B488860E002FFF7E9FD0446042C19D13548DF
:2045C000006940F010003349086147F0F800304328433349891C0880E002FFF7D6FD0446A2
:2045E000052C06D02B48006941F6EF710840294908612046F0BD2748C069800870472548C7
:20460000006A704700202349096801F0200109B1012000E00020704729B11E4A12690243D6
:204620001C4B1A6104E01B4A12698243194B1A61704701460020012908D1164AD26902F082
:2046400001020AB1012008E0002006E0114AD2680A400AB1012000E0002070470D49C8609D
:20466000704704200B49C96801F0010109B101200EE00849C96801F0040109B1022007E0E3
:204680000449C96801F0100109B1032000E00420704700000020024023016745AB89EFCDE0
:2046A00000F8FF1F10B50446FE48844208D10121C014FFF745F90021E014FFF741F9C4E0DD
:2046C000B4F1804F08D101210846FFF746F900210120FFF742F9B8E0F348844208D10121E1
:2046E0000220FFF73AF900210220FFF736F9ACE0EE48844208D101210420FFF72EF9002122
:204700000420FFF72AF9A0E0E948844208D101210820FFF722F900210820FFF71EF994E0E7
:20472000E448844208D101211020FFF716F900211020FFF712F988E0DF48844208D10121B5
:204740002020FFF70AF900212020FFF706F97CE0DA48844208D101214014FFF7F1F8002137
:204760006014FFF7EDF870E0D548844209D10121C804FFF7E5F800214FF40020FFF7E0F8CA
:2047800063E0D048844209D101210805FFF7D8F800214FF48010FFF7D3F856E0CA48844266
:2047A00009D101214805FFF7CBF800214FF40010FFF7C6F849E0C548844208D10121402078
:2047C000FFF7CBF800214020FFF7C7F83DE0C048844208D101218020FFF7BFF800218020F6
:2047E000FFF7BBF831E0BB48844208D101218015FFF7B3F80021A015FFF7AFF825E0B6488F
:20480000844209D101210804FFF79AF800214FF48030FFF795F818E0B048844209D10121F9
:204820004804FFF78DF800214FF40030FFF788F80BE0AB48844208D101218804FFF780F80E
:2048400000214FF48020FFF77BF810BD00220288944B98420ED0994B98420BD0B0F1804FD2
:2048600008D0914B984205D0904B984202D0904B984204D14FF68F731A404B881A438D4B1B
:20488000984207D08C4B984204D04FF6FF431A40CB881A4302808B8883850B880385814BCD
:2048A00098420BD0854B984208D08B4B984205D08A4B984202D08A4B984201D10B7A03862C
:2048C00001238382704770B5002400220023058C4FF6FE7635400584028C8388048B4FF6B5
:2048E0008F752C40B51E2C400D882C43751E2A400D892A434D882A436A4DA8420BD06F4D8B
:20490000A84208D0744DA84205D0744DA84202D0734DA84213D14FF6F7752A404D892A43EC
:204920004FF6FB752A408D882A434FF6FF652B404FF6FF552B408D892B43CD892B43838073
:204940000483CD888586028470BD70B5002400220023058C4FF6EF7635400584028C83885D
:20496000048B48F6FF752C404FF6FF452C400D884FF6FF7606EA05252C434FF6DF752A40BA
:204980000D8906EA05152A434D8806EA05152A43444DA84202D0494DA8421DD14FF67F75CA
:2049A0002A404D894FF6FF7606EA05152A434FF6BF752A408D8806EA05152A434FF6FF359E
:2049C0002B404FF2FF752B408D8906EA85052B43CD8906EA85052B4383800483CD880587A5
:2049E000028470BD70B5002400220023058C4FF6FF6635400584028C8388848B4FF68F754C
:204A00002C404FF6FC752C400D882C434FF6FF552A400D894FF6FF7606EA05252A434D8855
:204A200006EA05252A431F4DA84202D0234DA8421DD14FF2FF752A404D894FF6FF7606EAE0
:204A400005252A434FF6FF352A408D8806EA05252A434EF6FF752B404DF6FF752B408D89E5
:204A600006EA05152B43CD8906EA05152B4383808483CD888587028470BD70B50022002368
:204A80000024058C4EF6FF7635400584038C8488828B48F6FF752A404FF6FF452A400D885E
:204AA00020E00000002C01400004004000080040000C004000100040001400400034014098
:204AC000004C0140005001400054014000180040001C004000200040004001400044014009
:204AE000004801404FF6FF7606EA05252A434DF6FF752B400D8906EA05352B434D8806EAD7
:204B000005352B43FA4DA84202D0FA4DA84208D14BF6FF752C408D894FF6FF7606EA851565
:204B20002C4384808283CD88A0F84050038470BD828B4FF2FF331A408283828B4FF6FF7329
:204B400003EA01231A4382837047F0B50C461546002200210026078C4EF6FF7C07EA0C071A
:204B60000784828B018C4FF6FF7707EA043640F6FF473A404FF6FF7707EA05273A434FF69A
:204B8000FF7707EA03373A43D94FB8420ED0D94FB8420BD0B0F1804F08D0D74FB84205D0BD
:204BA000D64FB84202D0D64FB84206D14DF6FF77394046F48057394305E047F6FF5739405E
:204BC00044F48057394382830184F0BD828B4FF6F3731A408283828B0A4382837047F0B541
:204BE0000C461546002200210026078C4FF6FF6C07EA0C070784828B018C4FF6FF7707EA87
:204C000004264FF60C773A404FF6FF7707EA03172F433A43B64FB8420ED0B64FB8420BD0BC
:204C2000B0F1804F08D0B44FB84205D0B34FB84202D0B34FB84206D14FF6FF57394046F46B
:204C40008077394305E04FF2FF57394044F48077394382830184F0BD028B4FF2FF331A40B0
:204C60000283028B4FF6FF7303EA01231A4302837047F0B50C461546002200210026078C73
:204C80004FF6EF7C07EA0C070784028B018C4FF6FF7707EA041640F6FF473A404FF6FF7744
:204CA00007EA03373A434FF6FF7707EA05273A438F4FB8420ED08F4FB8420BD0B0F1804F1E
:204CC00008D08D4FB84205D08C4FB84202D08C4FB84206D14FF6DF77394046F01007394321
:204CE00005E04FF65F77394044F01007394302830184F0BD028B4FF6F3731A400283028B19
:204D00000A4302837047F0B50C46154600220021068C4FF6FE773E400684028B018C4FF6C2
:204D20000C7632407E1C06EA03162E433243704EB0420ED06F4EB0420BD0B0F1804F08D096
:204D40006D4EB04205D06D4EB04202D06C4EB04206D14FF6FD76314044F00106314305E012
:204D60004FF6F576314044F00106314302830184F0BD70B505460C465D4885420ED05D48FB
:204D800085420BD0B5F1804F08D05B48854205D05A48854202D05A48854200D100E000BFD1
:204DA000208850B92389A28861882846FFF7ABFFE1882846FFF79EFF25E0208804280AD157
:204DC0002389A28861882846FFF753FFE1882846FFF742FF17E0208808280AD12389A288D0
:204DE00061882846FFF7FBFEE1882846FFF7EEFE09E02389A28861882846FFF7A6FEE1889B
:204E00002846FFF795FE70BD2DE9F04105460C4600260127608808B9022600E00026A0883D
:204E2000012801D1022700E001272088A0B92389A28861882846FFF766FFE1882846FFF7F0
:204E400059FF23893A4631462846FFF712FFE1882846FFF701FF13E02389A28861882846F5
:204E6000FFF707FFE1882846FFF7F6FE23893A4631462846FFF747FFE1882846FFF73AFF22
:204E8000BDE8F0810A884B881A438B881A43CB881A430B891A434B891A438B891A43A0F8EF
:204EA000442070474FF6FF71818000210180C1804180017270470021018041808180C180AE
:204EC000018141818181C1817047002101804180012181800021C1800181704700210180D0
:204EE00041808180C18001814181818170470000002C014000340140000400400008004044
:204F0000000C004021B1028842F00102028004E002884FF6FE731A400280704731B1B0F8F1
:204F2000442042F40042A0F8442005E0B0F84420C2F30E02A0F8442070471AB183890B430B
:204F4000838102E083898B43838170478182704741EA0203A0F8483070471AB183890B4300
:204F6000838102E083898B438381704701894FF6F8721140018170470A46002101894FF6B3
:204F80008F73194011430181704730B504460D4629462046FFF7F0FF208940F0070020816C
:204FA00030BD2DE9F04104460D4616461F46602D06D13B46012231462046FFF75AFE05E047
:204FC0003B46012231462046FFF79DFE29462046FFF7D2FF208940F007002081BDE8F0818C
:204FE00030B50C4600210189C9B24FF6FF7505EA0325154325432943018130BD2DE9F041A2
:2050000005460E4617469846002443463A4631462846FFF7E5FF2C894FF6F870044044F0F0
:2050200007044FF68F70044044F070042C81BDE8F081F0B504460D4616461F463B46324676
:2050400029462046FFF7CCFF208940F480402081F0BD0185828270470A46002101884FF64F
:205060008F731940114301807047F0B50C4615461E460021002200230189028B038C4FF642
:20508000F877394021434FF6FC473A4040F201173A434FF6DD773B404FF6FF7707EA06171E
:2050A0002F433B43018102830384F0BD0A460021018B4FF68F7319401143018370470A4649
:2050C0000021018B48F6FF7319404FF6FF7303EA02231943018370470A460021818B4FF6F8
:2050E0008F7319401143818370470A460021818B48F6FF7319404FF6FF7303EA022319439B
:205100008183704721B1028842F08002028004E002884FF67F731A400280704721B182882E
:2051200042F00402828004E082884FF6FB731A408280704721B1828842F00802828004E083
:2051400082884FF6F7731A408280704721B1828842F00102828004E082884FF6FE731A4072
:20516000828070470A460021018B4FF6F77319401143018370470A460021018B4FF2FF7332
:2051800019404FF6FF7303EA02231943018370470A460021818B4FF6F77319401143818379
:2051A00070470A460021818B4FF2FF7319404FF6FF7303EA02231943818370470A4600215E
:2051C000018B4FF6FB7319401143018370470A460021018B4FF6FF3319404FF6FF7303EA37
:2051E00002231943018370470A460021818B4FF6FB7319401143818370470A460021818BDE
:205200004FF6FF3319404FF6FF7303EA02231943818370470A460021018B4FF67F73194051
:205220001143018370470A460021018BC1F30E014FF6FF7303EA02231943018370470A466F
:205240000021818B4FF67F7319401143818370470A460021818BC1F30E014FF6FF7303EA9E
:2052600002231943818370470A460021018C4FF6FD7319401143018470470A460021018C58
:205280004FF6F77319401143018470470A460021018C4FF6DF7319404FF6FF7303EA0213CF
:2052A0001943018470470A460021018C4FF67F7319404FF6FF7303EA021319430184704777
:2052C0000A460021018C4FF6FF5319404FF6FF7303EA02231943018470470A460021018C81
:2052E0004FF2FF7319404FF6FF7303EA02231943018470470A460021018C4DF6FF73194035
:205300004FF6FF7303EA023319430184704730B5002301248C40A3B2048C9C430484048C47
:2053200002FA01F5ADB22C43048430BD30B5002304248C40A3B2048C9C430484048C02FA64
:2053400001F5ADB22C43048430BD70B50346002000241846183001258D40ACB21D8CA543DA
:205360001D8409B1082909D100EB6100056825F0700505600568154305600EE00D1FC5F323
:205380004E052844056825F4E045056005684FF6FF7606EA02263543056070BD21B1028899
:2053A00042F00202028004E002884FF6FD731A400280704721B1028842F00402028004E085
:2053C00002884FF6FB731A400280704721B1828842F08002828004E082884FF67F731A40EC
:2053E0008280704702884FF6F7731A40028002880A430280704782884FF68F731A40828022
:2054000082880A438280704702894FF6F8731A40028102890A430281704702894FF67F7390
:205420001A40028102890A4302817047818470478185704781867047018770478187704748
:20544000A0F84010704702884FF6FF431A40028002880A43028070470146888E7047014655
:20546000088F70470146888F70470146B1F8400070470146888C70470146088D70470246F5
:205480000020138A0B400BB1012000E000207047CA430282704730B5024600200023002494
:2054A000158A05EA0103958905EA010413B10CB1012000E0002030BDCA4302827047000071
:2054C00010B50120FEF756FA0020FEF753FA10BD2A49086070472949091F086070472749B7
:2054E00084310860704701460020254A10884FF67F4210400843224A1080704701460020AF
:205500001F4A10884FF68072104008431C4A1080704708B500220092194A2C3A0092009AA5
:2055200002440092009A116008BD08B501460020009013482C3800900098084400900098B4
:20554000008808BD0D489C300068C0B270470C480830008840F0010009490831088070473D
:205560000648A0300068C0B2704705480830008840F00200024908310880704704860D42A1
:205580002C6C004029B1504A128802434E4B1A8004E04D4A128882434B4B1A8070474A485A
:2055A000001D008840F010004749091D088070474548001D00884FF6EF7108404249091D41
:2055C00008807047002140481C300188001F008841EA0040704700B50246FFF7E0FF100C57
:2055E000394918310880091D0A80FFF7E1FF00BD00B50246FFF7D3FFC2F3034032490831A4
:205600000880091D0A80FFF7D3FF00BD00B50246FFF7C5FF100C2C4920310880091D0A80FC
:20562000FFF7C6FF00BD00202749103109880907080B2549143109880843704700BF2248FE
:20564000001D008800F020000028F8D070471E48001D00884FF6F77108401B49091D0880DC
:2056600000BF1948001D008800F008000028F8D0704701460020144A121D12880A400AB133
:20568000012000E0002070470F49091D098881430D4A121D11807047014600200A4A121DA7
:2056A00012880A40D0B2084A12880A4012B108B1012000E0002070470349091D0988814333
:2056C000014A121D118070470028004010B501210807FEF742F900214FF08050FEF73DF91F
:2056E00010BD2A490862704728490861704701460020274A106820F0E00008431060704706
:205700002249A0310860704710B502460020204B186820F00300104318601E4B1B6843F019
:2057200004031C4C2360012901D130BF00E020BF184B1B6823F00403164C236010BD1448BF
:20574000006840F00400124908600846006840F0020008600F48006840F004000D490860E9
:2057600000BF00BF30BF704701460020084A52680A400AB1012000E00020704704490968F7
:2057800041EA8001024A11607047000000000E420070004010ED00E008B501210520FEF713
:2057A000B5F801211548FDF7C6FE4FF40040ADF8000010208DF8030003208DF802006946CC
:2057C0000F48FDF7E7FD4FF400410D48FDF78FFE01210820FEF79AF80820ADF80000102072
:2057E0008DF8030003208DF8020069460548FDF7D1FD08210348FDF77AFE08BD00023000E2
:2058000000080140000C014070B504460D4600261DB10120FE49086002E00020FC490860BD
:205820000020FB49083908602146FA48FEF7D2FB04E0701C86B2012E00DD05E00221F548F7
:20584000FEF71BFC0028F4D100BF0120F0490839086070BD70B500241CE004F1B001C8B2FB
:205860000021FFF7D1FF00210846FFF7CDFF00211020FFF7C9FF002508E0E74901EB850152
:20588000085D0121FFF7C0FF681CC5B2802DF4DB601CC4B2042CE0DB70BD10B500218D20B8
:2058A000FFF7B2FF00211420FFF7AEFF0021AF20FFF7AAFF10BD10B500218D20FFF7A4FFC1
:2058C00000211020FFF7A0FF0021AE20FFF79CFF10BD00200CE0002106E00022CE4B03EB59
:2058E00081031A544A1CD1B28029F6DB421CD0B20428F0DB704710B5FFF7EBFFFFF7AAFF81
:2059000010BDF0B5144600267F2801DC1F2900DDF0BD0B46CF1701EB5777FF10C7F1070779
:20592000FAB2CF1701EB5777FF10A1EBC707FDB2C5F107070123BB40DEB24CB1B64B03EBA4
:2059400080039B5C3343B44F07EB8007BB5408E0B14B03EB80039B5CB343AF4F07EB800713
:20596000BB5400BFD4E72DE9F04706460F4690469946DDF820A034460CE03D4606E05246FF
:2059800029462046FFF7BDFF681CC5B24D45F6DD601CC4B24445F0DDBDE8F0872DE9F04F67
:2059A00080460C4615461E46A346A5F12000C5B200273EE00C2E07D105EB4500974901EBA2
:2059C000800010F8079004E0954800EB051010F807904FF0000A26E009F0800028B1214640
:2059E0004046099AFFF78DFF09E0099808B9012000E00020024621464046FFF782FF4FEAAB
:205A000049604FEA1069601CC4B2A4EB0B00B04205D15C4608F1010000F0FF0806E00AF163
:205A2000010000F0FF0ABAF1080FD5DB00BF781CC7B2B742BEDBBDE8F08F10B5024601204A
:205A400000E050430B1EA1F10104E1B2F9D110BD2DE9FF4F81B0074691461E460E9D4FF0E2
:205A6000000A002439E0301B401EC1B20A20FFF7E4FFB9FBF0F00A21B0FBF1F201FB12085D
:205A8000BAF1000F16D1701EA04213DDB8F1000F0ED10120AB4605EBDB71491001FB047156
:205AA0000090C8B22B4620220299FFF777FF12E04FF0010A0120AB4605EBDB71491001FB43
:205AC00004710090C8B208F13001CAB22B460299FFF764FF00BF601CC4B2B442C3DB05B042
:205AE000BDE8F08F78B505460E46144618E07A2D03DD002506F11000C6B21A2E04DD0020F0
:205B000005460646FFF7E5FE012000902278102331462846FFF742FF05F10800C5B2641C86
:205B200020780028E3D178BDF8B505460E4614461F4617E07A2D03DD002506F11000C6B28F
:205B40001A2E04DD002005460646FFF7C2FE00972278102331462846FFF720FF05F1080053
:205B6000C5B2641C20780028E4D1F8BD00B587B001210420FDF7CAFE01210803FDF7C6FE31
:205B80001C20ADF8180010208DF81B0003208DF81A0006A92348FDF7FDFB1C212148FDF7DA
:205BA000A6FCE020ADF8180018208DF81B0003208DF81A0006A91B48FDF7ECFBE02119489D
:205BC000FDF795FC4FF44040ADF804004FF48270ADF806000020ADF808000220ADF80A0056
:205BE0000120ADF80C004002ADF80E000020ADF81000ADF812000720ADF8140001A905487B
:205C0000FEF712F901210348FEF7B3F901210BE09001214200300140F402002030D90008DD
:205C2000A4DD0008000801409F48FEF7E7F900209E4908606420FCF751FF01209C49C1F8E1
:205C40008C010021AE20FFF7DFFD0021D520FFF7DBFD00218020FFF7D7FD0021A820FFF7A8
:205C6000D3FD00211F20FFF7CFFD0021D320FFF7CBFD00210846FFF7C7FD00214020FFF7C0
:205C8000C3FD00218D20FFF7BFFD00211420FFF7BBFD0021A120FFF7B7FD0021C820FFF736
:205CA000B3FD0021DA20FFF7AFFD00210220FFF7ABFD00218120FFF7A7FD00218F20FFF774
:205CC000A3FD0021D920FFF79FFD0021F120FFF79BFD0021DB20FFF797FD00214020FFF79B
:205CE00093FD00212020FFF78FFD00210220FFF78BFD0021C020FFF787FD0021A420FFF71A
:205D000083FD0021A620FFF77FFD0021AF20FFF77BFDFFF7F0FD07B000BDF0B503460D46B4
:205D2000C5F10704E1B200200FE012F8016B1C18E71704EB5767FF11A4EBC717DFF874C122
:205D40000CEB87077E54441CE0B21028EDDB4C1EE1B200200FE012F8016B1C18E71704EB57
:205D60005767FF11A4EBC717DFF848C10CEB87077E54441CE0B21028EDDBF0BDF0B5034624
:205D8000C1F10704E1B2052900DD072100200EE012F8015B1C18E61704EB5666F611A4EB9A
:205DA000C616444F07EB86067554441CE0B21828EEDB00200FE012F8016B1C18E51704EB8E
:205DC0005565ED11A4EBC5153A4F07EB85074D1E7E55441CE0B21828EDDB00200FE012F84A
:205DE000016B1C18E51704EB5565ED11A4EBC515304F07EB85078D1E7E55441CE0B218284A
:205E0000EDDBF0BD30B504220EE0002108E010F8014B284B03EB8105531EEC544B1CD9B22D
:205E20008029F4DB531EDAB2002AEED130BD30B502220EE0002108E010F8014B1D4B03EB6D
:205E40008105531EEC544B1CD9B28029F4DB531EDAB2002AEED130BD70B50346802A00DBDB
:205E60007F220324A4EB4104E1B2002019E01C18104D05EB8404645CE4431D180D4E06EB69
:205E800085056C541C18354605EB84054C1E2C5DE443E5B21C1806EB84064C1E3555441CDC
:205EA000E0B29042E3DB70BD003001408C01214200002142F4020020FCF723FD00BF6A4835
:205EC000006800F4E06069490843001D66490860BFF34F8F00BF00BFFEE72DE9FC41644CFF
:205EE0000027002503E0605D0744681C85B2B5F5007FF8DBD4F80402B84208D0F62000906A
:205F000001216846FCF71EFF0120BDE8FC814FF6FD51D4F80002884210D1002504E02846DB
:205F200000F0A3F9681C85B21F2DF8DDF520009001216846FCF706FF0020E6E7D4F80002D1
:205F4000012802D14B4908801AE04A480088401CD4F80012814205D04FF6FE61D4F80002D1
:205F6000884205D143480088401C4249088007E0F620009001216846FCF7E4FE0120C4E701
:205F80003C480088401E4602B6F5F03F07D3F620009001216846FCF7D5FE0120B5E74FF45F
:205FA00000723146324800F03DF9F520009001216846FCF7C7FE4FF6FE61D4F800028842EF
:205FC00013D145F6A520019002224FF4F83101A800F028F902222849264800F023F94FF4B0
:205FE0007A70FCF77BFDFFF767FF00208DE77CB502224FF4F83101A800F0BEF8BDF8040093
:2060000045F6A52188422DD102221B49684600F0B3F800240FE0A1024FF48062144800F0BF
:20602000ABF8164800EB842542141149284600F0CDF9601C84B2BDF800008442EBDB4FF6BF
:20604000FF70019002224FF4F83101A800F0EAF80020009002220849684600F0E3F8074848
:2060600000F0E5F97CBD00000CED00E00000FA05EC0000202400002010F0010000280008C0
:2060800010B500240020CC490860902000F0E8F9002000F0E5F9002000F0E2F9002000F010
:2060A000DFF9FF2000F0DCF944EA0024FF2000F0D7F904430120C149C1F8B001204610BDE4
:2060C00008B501210820FDF721FC4FF48050ADF8000010208DF8030003208DF802006946DF
:2060E000B748FDF757F94FF48051B548FDF7FFF900F0DDF9002000F020FAFFF7C1FFB149C0
:20610000088008BD10B500240020AB490860052000F0A6F9FF2000F0A3F904460120A74913
:20612000C1F8B001204610BD10B504460020A2490860012000F094F9204600F091F90120A1
:206140009E49C1F8B00110BD10B500209A490860062000F085F901209849C1F8B00110BD24
:2061600010B5002094490860042000F079F901209249C1F8B00110BD2DE9F04106460C4657
:20618000174600208C490860032000F069F9C4F3074000F065F9C4F3072000F061F9E0B2CA
:2061A00000F05EF9002505E0FF2000F059F97055681C85B2BD42F7DB01207F490860BDE8E6
:2061C000F08110B500BFFFF79DFF00F001000028F9D110BD2DE9F04106460C461746FFF750
:2061E000B3FF002074490860022000F039F9C4F3074000F035F9C4F3072000F031F9E0B2BE
:2062000000F02EF9002504E0705D00F029F9681C85B2BD42F8DB012067490860FFF7D1FFF3
:20622000BDE8F0812DE9F04107460E461446F0B2C0F58075AC4200DC254612E02A463146AC
:206240003846FFF7C7FFAC4200D10BE02F442E44601B84B2B4F5807F02DD4FF4807500E025
:206260002546EBE700BFBDE8F08110B504462403FFF76AFFFFF7A5FF00204F49086020207D
:2062800000F0EEF8C4F3074000F0EAF8C4F3072000F0E6F8E0B200F0E3F801204749C1F8E5
:2062A000B001FFF78EFF10BD2DE9F04781460F4616464FEA1738C7F30B0ACAF58054A64246
:2062C00000DC344644E04FEA08314FF480523E48FFF752FF002508E00AEB05003A49085C02
:2062E000FF2800D003E0681C85B2A542F4DB00BFA54216DA4046FFF7B8FF002507E019F86D
:20630000050005EB0A01304A5054681C85B2A542F5DB4FEA08314FF480522B48FFF782FF7C
:2063200004E0224639464846FFF77CFFA64200D10FE008F101084FF0000AA1442744301B05
:2063400086B2B6F5805F02DD4FF4805400E03446B9E700BFBDE8F08710B5FFF7F5FEFFF70C
:2063600030FF002014490860C72000F079F801201249C1F8B001FFF724FF10BD10B5002010
:206380000D490860B92000F06BF801200B49C1F8B0010320FCF780FB10BD10B500200649A2
:2063A0000860AB2000F05CF801200449C1F8B0010320FCF771FB10BDB081214200802142C8
:2063C000000C014026000020F40400202DE9F05F06460F4690460024B3463D46A1461CE0B3
:2063E00068784FEA002A287850441FFA80FAAD1C2046611C8CB2174921F810A0B4F5806FE8
:2064000007D100244FF48062584600F0D4F80BF5006B09F102001FFA80F9C145E0D324B17A
:2064200022460C49584600F0C6F8BDE8F09F10B50446206808490840B0F1005F08D160684E
:20644000064908602068FCF75EFA04480068804710BD0000F41400200000FE2F28000020CD
:2064600070B50546002405E0601CC4B2C82C01DD002070BD02213A48FDF7FFFD0028F3D012
:2064800029463748FDF7A6FD002405E0601CC4B2C82C01DD0020ECE701213148FDF7EDFD3E
:2064A0000028F3D02E48FDF797FDC0B2E1E700B587B001210820FDF729FA01218803FDF7CB
:2064C00032FA4FF46040ADF8180018208DF81B0003208DF81A0006A92248FCF75BFF4FF4AD
:2064E00060412048FDF703F80020ADF804004FF48270ADF806000020ADF808000220ADF867
:206500000A000120ADF80C004002ADF80E003820ADF810000020ADF812000720ADF81400E6
:2065200001A90F48FDF780FC01210D48FDF721FDFF20FFF795FF07B000BD10B504460848E5
:2065400000884FF6C771084005490880084600882043088001210248FDF70BFD10BD000022
:2065600000380040000C01400146088870472DE9F04105460E461746002407E036F8141028
:206580002846FDF718FFAD1C601C84B2BC42F5DBBDE8F08130B503460C461546002207E03F
:2065A0001846FFF7E1FF24F812009B1C501C82B2AA42F5DB30BD2DE9F05F80468A46174621
:2065C000B8F1006F02D33748804501D3BDE8F09FFDF7A9FDA8F1006B4FEA9B25CBF34809DC
:2065E000C9F50074A74200DC3C464DE04FF0006101EB85208A142C49FFF7CCFF00260BE0DF
:2066000009EB0600284931F810004FF6FF71884200D003E0701C86B2A642F1DB00BFA64285
:206620001BDA4FF0006101EB8520FDF7C1FD002608E03AF8160006EB09011B4A22F81100A1
:20664000701C86B2A642F4DB4FF0006101EB85208A141549FFF78BFF04E0224651464046A9
:20666000FFF785FFA74200D10FE06D1C4FF000090AEB440AA044381B87B2B7F5007F02DD69
:206680004FF4007400E03C46B0E700BFFDF757FD00BF9BE713B50446012201A92046FFF7C7
:2066A0008AFF1CBD00000108F41C002030B589B005460C4601210220FDF735F901210920D3
:2066C000FDF724F90121FB48FCF735FF3020ADF8200018208DF8230003208DF8220008A9AD
:2066E000F548FCF757FEADF81850ADF814400020ADF81A00ADF8160005A9F048FEF7A6F8FC
:206700007020ADF804000120ADF806000220ADF80C0001A9E948FEF7D6F801A9E748FEF735
:2067200014F90821E548FEF71DFD0821E348FEF722FD0121E148FEF7E5FB09B030BD30B5D4
:2067400089B005460C4601210420FDF7ECF801210920FDF7DBF84FF47070ADF82000182013
:206760008DF8230003208DF8220008A9D248FCF711FEADF81850ADF814400020ADF81A00F5
:20678000ADF8160005A9CE48FEF760F87020ADF804000120ADF806000220ADF80C0001A9AB
:2067A000C748FEF790F801A9C548FEF7CEF801A9C348FEF717F901A9C148FEF75EF90821F9
:2067C000BF48FEF7CFFC0821BD48FEF7D4FC0821BB48FEF7DDFC0821B948FEF7E2FC0121E6
:2067E000B748FEF78FFB09B030BD10B523216520FFF75CFF23216520FFF7A1FF0021B0481E
:20680000FEF718FE0021AE48FEF716FE0021AC48FEF714FE0021AA48FEF712FE0021A74809
:20682000FEF708FE0021A548FEF706FE10BDF0B5DDE9054518B1861CA24F3E8002E00026B2
:20684000A04F3E8019B18E1C9E4F7E8002E000269C4F7E801AB1961C9A4FBE8002E000268F
:20686000984FBE801BB19E1C964FFE8002E00026944FFE801CB1A61C924F3E8102E000266A
:20688000904F3E811DB1AE1C8E4F7E8102E000268C4F7E81F0BD2DE9FC4704460D46164605
:2068A0001F46DDE90A8924B1A11C8548FEF7C2FD03E000218248FEF7BDFD25B1A91C804827
:2068C000FEF7BAFD03E000217D48FEF7B5FD26B1B11C7B48FEF7B2FD03E000217848FEF7D8
:2068E000ADFD27B1B91C7648FEF7AAFD03E000217348FEF7A5FDB8F1000F05D008F1020108
:206900006E48FEF797FD03E000216C48FEF792FDB9F1000F05D009F102016848FEF78CFD43
