:020000040800F2
:10000000784B0020CD9A0008D5A90008D7A9000890
:10001000DBA90008DFA90008E3A900080000000030
:100020000000000000000000000000007501000852
:10003000E7A9000800000000FD0100084D020008CB
:10004000E39A0008E39A0008E39A0008994E000832
:10005000E39A0008E39A0008E39A0008E39A00088C
:10006000E39A0008E39A0008E39A0008E39A00087C
:10007000E39A0008E39A0008E39A0008E39A00086C
:10008000E39A0008E39A0008E39A0008E39A00085C
:10009000E39A0008E39A0008E39A0008E39A00084C
:1000A000E39A0008E1650008E39A0008E39A000873
:1000B000E39A0008E39A0008E39A0008E39A00082C
:1000C000E39A0008E39A0008E39A0008E39A00081C
:1000D000E39A0008B7030008E39A0008E39A0008CF
:1000E0007D550008E39A0008E39A0008DFF80CD079
:1000F0000BF09AFA0048004795A80008784B0020BA
:1001000030BF72B662B680F30888704780F3098802
:100110007047EFF309807047684680F30988044808
:100120000078C00714BF0220032080F314887047B2
:1001300004DA0008DFF818C0EFF305831B0618BFC8
:100140006047EFF31483DB0708BF604700DF7047A9
:10015000E7BC0008DFF818C0EFF305831B0618BFE3
:100160006047EFF31483DB0708BF604700DF704789
:1001700035BF0008EFF30980816911F8021C39BB13
:1001800090E80F10E047EFF3098C194B93E8060055
:10019000914218D059B10CB44FF0010381F82630C8
:1001A0002CE9F00FC1F82CC00CF08CF80CBC1A60D4
:1001B000D2F82CC0BCE8F00F92F826308CF30988F6
:1001C0001BB192F82500CCF800006FF0020E7047CA
:1001D00010B5084A1268914209D8074C54F82140DA
:1001E00090E80F10A047EFF3098C8CE80F0010BDCA
:1001F000F4000020E8B90008E8B900080BF094FF0B
:10020000114B93E8060091421BD00CB44FF0000351
:1002100081F82630EFF3098C2CE9F00FC1F82CC0DF
:100220000CF050F80CBC1A60D2F82CC0BCE8F00FEF
:100230008CF3098892F826301BB192F82530CCF85F
:1002400000306FF0020E7047F40000200CF00AF945
:10025000D6E700000BF046FD0CF004F9D0E70000F3
:1002600010B56FF0040000F096FC2D4800682D4991
:10027000B0FBF1F02C490870084600784FF4FA61A1
:1002800048434FF0E021486100208861084600693A
:1002900040F00100086110BDF0B5034600224FF0A8
:1002A000E026B16975695E1E1F4F3F7806FB07F4B3
:1002B00000BF10E04FF0E026B06988420BD08842C2
:1002C00002D20E1A324402E02E1A0E443244014683
:1002D000A24200D300E0EDE700BFF0BD10B5044638
:1002E00003E04FF47A70FFF7D7FF201EA4F101015D
:1002F0008CB2F6D110BD70B504460D46601EC6B274
:1003000000200A4921F8160021462846DFF820C0BF
:1003100000DF00BF054830F816000028FAD070BD95
:10032000DC00002000127A00000000200200002003
:10033000A5C4000810B54FF4A06000F0DDFB10BDAF
:100340000EB50D48006802900B48001D0068019032
:10035000094808300068009008490098884207D191
:1003600007490198884203D106490298884201D082
:1003700000200EBD0120FCE7E8F7FF1F11470957D9
:100380003454323031FF7106014600BF704700BF60
:10039000B94A128802F04002002AF9D0C2B2B64B24
:1003A0001B1D1A8070470021B44A118010B1411EF4
:1003B000B34A1170704710B5AF48008800F02000B4
:1003C000002872D0AC48001D0088C4B2AD48007847
:1003D00020B101286BD0022866D182E0AA48417C76
:1003E000407C401CA84A5074104644540A2C02D148
:1003F000012011468874A448407C102802DD0020AA
:10040000A14948749D48008800F4004000284BD161
:100410009A48008800F4804058B30A2C03D000208A
:100420009649088040E096480078D8B19448007812
:10043000401E9349087091480088C0F30D008F4911
:1004400008800D2091498D4A128888540A218F4ACC
:100450008A480088401C115488480088801C8749BD
:10046000088021E08548008840F4004083490880E6
:100470001AE00D2C06D18148008840F480407F4965
:10048000088011E07D480088C0F30D007F490C54BE
:100490007A480088401C7949088008460088B0F5F1
:1004A000027F01D30020088072E072E0FFE773480A
:1004B000008840F20721884208D2704801880088ED
:1004C000401C6E4A10807148445409E06F486B49E3
:1004D000098844546948008840F40040674908800E
:1004E00056E06948417C407C401C674A5074104685
:1004F00044540A2C02D10120114688746248407C81
:10050000102802DD0020604948745C48008840F2F1
:100510000721884215D2F22C02D1002057490880C9
:10052000564801880088401C544A1080574844545B
:10053000F32C09D11046008840F400401146088091
:1005400002E000204D4908805148007809281EDA51
:100550002B2C02D100204E4908704D4801780078BC
:10056000401C4B4A10704B484454104600780728F2
:100570000DDD052248A147480AF0FBFC20B945489B
:10058000407930384649087000204149087000BF62
:1005900000BF10BD10B586B00446012144F204002E
:1005A00000F034FE4FF40070ADF8140003208DF815
:1005B000160018208DF8170005A93A4800F06AFBCC
:1005C0004FF48060ADF8140004208DF8170005A9E1
:1005D000344800F05FFB01940020ADF80800ADF84E
:1005E0000A00ADF80C00ADF810000C20ADF80E00BC
:1005F00001A9214800F0B1FE25208DF8000000205F
:100600008DF8010004208DF8020001208DF8030010
:10061000684600F076FA012240F22551164800F0B3
:1006200034FF0121144800F024FF06B010BD91B141
:100630000BE000BF104A128802F04002002AF9D0F5
:1006400010F8012B0C4B1B1D1A800A1EA1F101038F
:1006500099B2EED10FE00BE000BF074A128802F01A
:100660004002002AF9D010F8012B034B1B1D1A8001
:100670000278002AF0D17047003801400C000020B9
:100680000E0000200F000020240300201C01002089
:1006900010000020370300202B4950442C0000009C
:1006A000680000200008014010B50446FA48844262
:1006B00008D10121401500F0C3FD0021601500F0B4
:1006C000BFFD17E0F548844208D10121001500F074
:1006D000B7FD0021201500F0B3FD0BE0F048844287
:1006E00008D10121C80300F0ABFD00214FF4004008
:1006F00000F0A6FD10BD30B5024600200023506872
:10070000E84C20400D790C6844EA052420435060F1
:100710009068E54C2040D1E902542C434D7944EADD
:10072000450420439060D06A20F470000C7C641E65
:10073000E4B2234340EA0350D06230BD002101609F
:10074000017141718160C16001210174704721B163
:10075000826842F00102826003E0826822F00102B6
:100760008260704721B1826842F48072826003E047
:10077000826822F480728260704710B50023CBB289
:100780001AB144681C43446002E044689C434460DE
:1007900010BD816841F0080181607047014600206A
:1007A0008A6802F008020AB1012000E000207047C8
:1007B000816841F0040181607047014600208A6829
:1007C00002F004020AB1012000E00020704721B1CC
:1007D000826842F4A002826003E0826822F4A002F0
:1007E00082607047014600208A6802F480020AB1E4
:1007F000012000E00020704710B50A4600210023C8
:10080000416821F46041531E41EA4331416010BD0B
:1008100021B1426842F40062426003E0426822F47F
:10082000006242607047F0B504460D46002000218A
:10083000092D11DDE068A5F10A0606EB460707263B
:1008400006FA07F18843A5F10A0606EB460603FA05
:1008500006F10843E0600CE0206905EB4507072638
:1008600006FA07F1884305EB450603FA06F108434B
:100870002061072A0FDA606B561E06EB86071F26DB
:1008800006FA07F18843561E06EB860605FA06F1BE
:100890000843606322E00D2A0FDA206BD61F06EBB7
:1008A00086071F2606FA07F18843D61F06EB860641
:1008B00005FA06F10843206310E0E06AA2F10D0694
:1008C00006EB86071F2606FA07F18843A2F10D06FC
:1008D00006EB860605FA06F10843E062F0BD21B199
:1008E000826842F48012826003E0826822F48012FF
:1008F000826070470146C86C80B2704766484C30D1
:100900000068704721B1426842F48062426003E0AF
:10091000426822F480624260704721B1426842F42A
:100920008052426003E0426822F480524260704785
:100930000A460021816821F4E0411143816070473B
:1009400021B1826842F40042826003E0826822F4AE
:1009500000428260704721B1826842F402128260D4
:1009600003E0826822F40212826070470146002090
:100970008A6802F400120AB1012000E000207047EA
:10098000F0B504461546002000220026092911DD95
:10099000E068A1F10A0707EB470C072707FA0CF2FA
:1009A0009043A1F10A0707EB470703FA07F2104348
:1009B000E0600CE0206901EB410C072707FA0CF21C
:1009C000904301EB410703FA07F210432061A06B4B
:1009D000C0F30156EF1C06F1010CA7EB0C0707EB67
:1009E000870C1F2707FA0CF29043EF1C06F1010C4D
:1009F000A7EB0C0707EB870701FA07F21043A06388
:100A0000F0BD10B50A4600210023816B21F440118E
:100A1000531E41EA0351816310BD08B500230093C2
:100A20000090009B0B440093009B1A6008BD08B522
:100A3000024600200090009201F12800009B18441B
:100A400000900098006880B208BD0A460021416805
:100A5000164B1940114341607047416282627047F2
:100A60000A460021416821F01F011143416070478F
:100A700040B109490831096841F40001064A0832C9
:100A8000116007E004490831096821F40001024AB5
:100A90000832116070470000002401400028014026
:100AA000003C0140FFFEF0FFFDF7F1FFFFFD3FFFBF
:100AB0000246002013680B400BB1012000E000202B
:100AC0007047CA430260704770B502460020002399
:100AD00000240B125568CEB205EA060415681D40C5
:100AE00015B10CB1012000E0002070BD00220A12F7
:100AF000D34303607047000031490143314A11601C
:100B0000704770B5002100230F22C47804B32D4C28
:100B1000246804F4E064C4F5E064210AC1F104032C
:100B2000CA40447804FA03F184781440214309014F
:100B3000254C0678A155047804F01F050124AC402B
:100B400005786D11AD0005F1E025C5F8004109E01B
:100B5000047804F01F050124AC401C4D0678761182
:100B600045F8264070BD1A4A0A400243154B1B1F28
:100B70001A60704739B1134A121D12680243114BB3
:100B80001B1D1A6006E00F4A121D126882430D4BAE
:100B90001B1D1A607047042808D14FF0E021096935
:100BA00041F004014FF0E022116107E04FF0E02135
:100BB000096921F004014FF0E02211617047000043
:100BC0000000FA050CED00E000E400E080E100E048
:100BD00080FFFF1F10B50446CC48844208D1012194
:100BE000042000F02DFB0021042000F029FB46E04A
:100BF000C748844208D10121082000F021FB0021D0
:100C0000082000F01DFB3AE0C248844208D10121CF
:100C1000102000F015FB0021102000F011FB2EE049
:100C2000BD48844208D10121202000F009FB0021A9
:100C3000202000F005FB22E0B848844208D10121C1
:100C4000402000F0FDFA0021402000F0F9FA16E003
:100C5000B348844208D10121802000F0F1FA00213C
:100C6000802000F0EDFA0AE0AE48844207D101216D
:100C7000801500F0E5FA0021A01500F0E1FA10BDA2
:100C800010B50121084600F0DBFA0021012000F038
:100C9000D7FA10BD2DE9F0410246002500260020BC
:100CA00000230024002791F803C00CF00F0591F8F1
:100CB00003C00CF0100CBCF1000F03D091F802C07F
:100CC0004CEA050591F800C0BCF1000F31D0146862
:100CD00000202BE04FF0010C0CFA00F3B1F800C03B
:100CE0000CEA03069E4220D183004FF00F0C0CFA51
:100CF00003F7BC4305FA03FC4CEA040491F803C073
:100D0000BCF1280F06D14FF0010C0CFA00FCC2F820
:100D100014C00AE091F803C0BCF1480F05D14FF0B0
:100D2000010C0CFA00FCC2F810C0401C0828D1D3FA
:100D30001460B1F800C0BCF1FF0F34DD546800202E
:100D40002EE000F1080C4FF0010808FA0CF3B1F89E
:100D500000C00CEA03069E4221D183004FF00F0C25
:100D60000CFA03F7BC4305FA03FC4CEA040491F8BF
:100D700003C0BCF1280F05D100F1080C08FA0CF8EB
:100D8000C2F8148091F803C0BCF1480F07D100F1FC
:100D9000080C4FF0010808FA0CF8C2F81080401C4B
:100DA0000828CED35460BDE8F0814FF6FF71018072
:100DB000022181700421C1707047024600209368AF
:100DC0000B400BB1012000E000207047014688680D
:100DD00080B2704702460020D3680B400BB101205F
:100DE00000E0002070470146C86880B2704701618A
:100DF0007047416170470AB1016100E0416170478D
:100E0000C16070474FF480320A4382618161826120
:100E100082698269704702460020434B18684FF68A
:100E20008073184040EA021008433F4B1860704737
:100E30003E49C8617047F0B50A46002300240021EE
:100E4000002500F00046B6F1004F02D1364EF169A0
:100E500001E0354E7168C0F3034583B200F44016DB
:100E6000B6F5401F08D121F070612F4E766826F04C
:100E700070662D4F7E6012E000F48016B6F5801F7C
:100E800006D1032606FA05F4A14341F0706106E09D
:100E9000460D360103FA06F6B14341F0706122B106
:100EA000460D360103FA06F6314300F00046B6F16E
:100EB000004F02D11C4EF16101E01B4E7160F0BD8C
:100EC00030B500228B071C0F0F2303FA04F2164BD8
:100ED00008338C1053F824309343134C08348D108E
:100EE00044F8253023468C1053F824308C07240F07
:100EF00000FA04F423430C4C08348D1044F82530D8
:100F000030BD0A49DC31086070470000000801402C
:100F1000000C014000100140001401400018014085
:100F2000001C014000200140000001400000204260
:100F3000DF48006840F00100DD490860084640686D
:100F4000DC490840DA49486008460068DA49084048
:100F5000D74908600846006820F4802008600846E9
:100F6000406820F4FE0048604FF41F00886070471E
:100F7000CF49096821F48031CD4A116011460968D2
:100F800021F480211160B0F5803F03D0B0F5802FAF
:100F90000ED106E0C649096841F48031C44A1160A7
:100FA00007E0C349096841F4A021C14A116000E08B
:100FB00000BF00BF704710B501460022002300208B
:100FC0004A11012A02D1BA4C236806E0022A02D152
:100FD000B74C236A01E0B64C636A01F01F0201249A
:100FE00094401C400CB1012000E0002010BD38B539
:100FF000002000900024002500BF3120FFF7DBFF18
:1010000005460098401C00900098B0F5A06F01D0F4
:10101000002DF2D03120FFF7CEFF08B1012400E00F
:101020000024204638BD01460020A14A106820F067
:10103000F80040EAC10010607047A049086070479E
:10104000024600209A4B586820F47C1042EA0103C3
:101050001843974B58607047984908667047014697
:101060000020934A506820F0030008435060704706
:101070008F48406800F00C007047014600208C4A01
:10108000506820F0F000084350607047014600208F
:10109000874A506820F4E06008435060704701467A
:1010A0000020834A506820F4605040EAC10050603C
:1010B000704729B17E4A527A02437D4B5A7204E04E
:1010C0007B4A527A82437A4B5A7270477B49D831B5
:1010D0000860704701460020754A506820F440407F
:1010E0000843506070470021714A20321170704AE5
:1010F00082F82010012802D004280AD104E001213E
:101100006B4A2032117005E00521694A20321170C6
:1011100000E000BF00BF704769490860704764493C
:10112000096A0143624A116270476549443908609F
:10113000704730B500210022002400235C4D6D680B
:1011400005F00C0121B1042905D0082923D105E0BF
:101150005C4D056022E05B4D05601FE0544D6D68FD
:1011600005F47012524D6D6805F48034022505EBCC
:1011700092421CB9544D554305600BE04C4D6D68CF
:1011800005F400351DB1504D5543056002E04D4D4D
:101190005543056002E04B4D056000BF00BF444D64
:1011A0006D6805F0F0010909484D6B5C0568DD408C
:1011B00045603F4D6D6805F4E061090A434D6B5C85
:1011C0004568DD4085603A4D6D6805F46051C90A97
:1011D0003E4D6B5C4568DD40C560354D6D6805F47E
:1011E0004041890B3A4D6B5CC568B5FBF3F5056171
:1011F00030BD29B12E4A526902432D4B5A6104E099
:101200002B4A526982432A4B5A61704729B1284AB6
:1012100092690243264B9A6104E0254A926982430F
:10122000234B9A61704729B1214AD2690243204B6E
:10123000DA6104E01E4AD26982431D4BDA617047CD
:1012400029B11B4AD2680243194BDA6004E0184AFC
:10125000D2688243164BDA60704729B1144A12698A
:101260000243134B1A6104E0114A12698243104B86
:101270001A61704712494039086070470F49C864C5
:1012800070470B49C87170470948406A40F0807048
:1012900007494862704701460020054A92680A40A3
:1012A0000AB1012000E000207047014988727047B0
:1012B000001002400000FFF8FFFFF6FE000042426F
:1012C0008004424200127A0000093D001100002013
:1012D0002100002010B50446FB48844209D10121B9
:1012E0008803FFF7ADFF00214FF48040FFF7A8FF10
:1012F00032E0F648844209D101214804FFF7ADFFEE
:1013000000214FF40030FFF7A8FF25E0F0488442A9
:1013100009D101218804FFF7A0FF00214FF48020AC
:10132000FFF79BFF18E0EB48844209D10121C80474
:10133000FFF793FF00214FF40020FFF78EFF0BE033
:10134000E548844208D101210805FFF786FF002106
:101350004FF48010FFF781FF10BD2DE9F04786B0F4
:1013600005460E460024A24600BFA1460027B089CC
:1013700000B100BF2F462C8A4CF6FF700440F08865
:1013800004432C82AC894EF6F3100440B0883189B6
:101390000843718908430443AC81AC8A4FF6FF408F
:1013A0000440B0890443AC8201A8FFF7C2FEC648DE
:1013B000874202D1DDF810A001E0DDF80CA0A88979
:1013C00000F4004040B10AEBCA0000EB0A1031689B
:1013D0004900B0FBF1F807E00AEBCA0000EB0A1085
:1013E00031688900B0FBF1F86420B8FBF0F004012B
:1013F0002009642101FB1089A88900F4004040B154
:10140000322000EBC900B0FBF1F000F0070004430C
:1014100008E0322000EB09106421B0FBF1F000F08D
:101420000F0004432C8106B0BDE8F0874FF416513D
:10143000016000218180C18001810C214181002156
:101440008181704710B502460020108A4FF2FF03D9
:1014500018400B884C8823438C882343CC88234333
:101460001843108210BD0021018041808180C1801D
:10147000704721B1828942F40052828104E082895E
:101480004DF6FF731A4082817047F0B50346002481
:1014900000260025002040F66A17B94200D100BF9F
:1014A0001846C1F3421401F01F06012707FA06F59A
:1014B000012C01D10C3004E0022C01D1103000E0ED
:1014C00014301AB107682F43076002E00768AF4382
:1014D0000760F0BD1AB1838A0B43838202E0838ADE
:1014E0008B4383827047028A4FF6F0731A40028260
:1014F000028A0A430282704782894FF2FF731A40C0
:10150000828182890A438281704721B1828942F0B7
:101510000202828104E082894FF6FD731A408281C3
:101520007047028A4FF6DF731A400282028A0A432A
:101530000282704721B1028A42F48042028204E0B2
:10154000028A4BF6FF731A4002827047C1F3080209
:101550008280704701468888C0F3080070478189FF
:1015600041F0010181817047028BD2B20283028B6C
:1015700042EA012202837047028B02F47F42028317
:10158000028B0A430283704721B1828A42F0200213
:10159000828204E0828A4FF6DF731A4082827047AB
:1015A00021B1828A42F01002828204E0828A4FF6E0
:1015B000EF731A408282704721B1828A42F008029A
:1015C000828204E0828A4FF6F7731A408282704763
:1015D00021B1828942F40042828103E08289C2F310
:1015E0000E028281704721B1828A42F400628282B7
:1015F00004E0828A4FF2FF731A4082827047828A27
:101600004FF6FB731A408282828A0A4382827047B5
:1016100021B1828A42F00202828204E0828A4FF67D
:10162000FD731A408282704702460020B1F5007FA8
:1016300000D100BF13880B400BB1012000E0002057
:10164000704701F40072B2F5007F00D100BFCA43B9
:101650000280704770B50246002400230025002058
:1016600040F66A16B14200D100BFC1F3421501F045
:101670001F03012606FA03F3012D02D19689334098
:1016800006E0022D02D1168A334001E0968A3340EB
:101690000C12012606FA04F41688344013B10CB17A
:1016A000012000E0002070BD10B50022002340F6AC
:1016B0006A14A14200D100BF0A1201249440A3B2CF
:1016C000DC43048010BD00000038014000440040AD
:1016D00000480040004C00400050004010B5044657
:1016E000BE48844208D101218014FFF7A9FD0021E2
:1016F000A014FFF7A5FD16E0B948844208D10121E6
:101700000014FFF7AAFD00212014FFF7A6FD0AE050
:10171000B448844207D10121C013FFF79EFD002188
:10172000E013FFF79AFD10BD10B50022028802F405
:1017300041520B884C8823438C882343CC88234315
:101740000C8923434C8923438C892343CC8923432D
:101750001A430280838B4FF2FF74234083830B8AEA
:10176000038210BD2DE9F04F85B005460C464FF0C1
:10177000000902274FF000084FF0010B0026B24687
:10178000A88B4FF240010840A88302202884B5F8B6
:101790001C90A068022801D100BF38E0A08810B9D1
:1017A0004FF0010B01E04FF0020B8D48854200D154
:1017B00000E000BF6846FFF7BCFCDDF800A0E08851
:1017C000B0F5007F0AD14FEA1A2000EB80004000FC
:1017D000A168B0FBF1F0401D86B20BE04FEA4B1060
:1017E000BAFBF0F000EB80004000A168B0FBF1F024
:1017F000401D86B20A20B6FBF0F606F00108A6EB03
:101800000800C0F34F074FF6FF7000EA0828022FC8
:1018100001DBFF2F02DD02274FF00008E08840EADD
:10182000080038432884A088A189084361880843B8
:101830002188084340F4006040EA0909A5F81C909B
:1018400005B0BDE8F08F0021018041808180C1801A
:10185000018141818181C18107210182704700217D
:10186000018041808180C1800221816000218181CD
:10187000704721B1028842F04002028004E00288F1
:101880004FF6BF731A400280704721B1828B42F439
:101890008062828304E0828B4FF6FF331A4082839A
:1018A000704730B5002400230C110125A540ABB2D0
:1018B0001AB185881D43858002E085889D43858017
:1018C00030BD1AB183880B43838002E083888B4349
:1018D00083807047818170470146888970474FF641
:1018E000FF62914204D0028842F48072028004E0D8
:1018F00002884FF6FF631A400280704721B1828848
:1019000042F00402828004E082884FF6FB731A40A2
:101910008280704702884FF2FF731A40028002886B
:101920000A4302807047018841F48051018070476A
:1019300021B1028842F40052028004E002884DF690
:10194000FF731A400280704702460020012901D02F
:10195000108B00E0908A70470146088A7047B1F505
:10196000804F04D1028842F48042028004E0028861
:101970004BF6FF731A40028070470246002013891D
:101980000B400BB1012000E000207047CA430281E8
:101990007047F0B50246002000240023002501F026
:1019A0000F070126BE40B4B20B1101269E40B3B210
:1019B000968806EA03051689264016B10DB1012066
:1019C00000E00020F0BD10B5002201F00F0401235B
:1019D000A3409AB2D343038110BD00000030014000
:1019E00000380040003C004001460020FE4A1068DC
:1019F00000F03800084310607047FB49096821F087
:101A00000801F94A116011460968014311607047E5
:101A1000F549096821F01001F34A1160114609687F
:101A2000014311607047F148EF494860F048486051
:101A30007047EE48EC494860ED4848607047EA4816
:101A4000006940F08000E84908617047E648006995
:101A500040F08000E449086170470420E249C96809
:101A600001F0010109B101200EE0DF49C96801F070
:101A7000040109B1022007E0DB49C96801F0100147
:101A800009B1032000E00420704700B5024604239A
:101A9000FFF7E3FF034603E0FFF7DFFF0346521EB5
:101AA000012B01D1002AF7D102B90523184600BD48
:101AB00030B5044604254FF43020FFF7E6FF054615
:101AC000042D17D1C848006940F00200C6490861DA
:101AD00008464461006940F0400008614FF430203E
:101AE000FFF7D3FF0546C048006941F6FD71084085
:101AF000BD490861284630BD10B504244FF430209C
:101B0000FFF7C3FF0446042C16D1B748006940F024
:101B10000400B54908610846006940F040000861CA
:101B20004FF43020FFF7B1FF0446AF48006941F69B
:101B3000FB710840AC490861204610BD00B5024663
:101B40000423FFF78AFF034603E0FFF786FF0346FF
:101B5000521E012B01D1002AF7D102B905231846E4
:101B600000BD10B504244FF43020FFF7E7FF044612
:101B7000042C16D19C48006940F004009A49086181
:101B80000846006940F0400008614FF43020FFF73C
:101B9000D5FF04469448006941F6FB71084092491C
:101BA0000861204610BD00208F49C96901F002017B
:101BB00009B1012000E00020704730B5A5250424BC
:101BC000FFF7F1FF00B100254FF43020FFF75DFF74
:101BD0000446042C3AD1854883498860844888604B
:101BE0000846006940F0200008610846006940F09E
:101BF000400008614FF43020FFF747FF0446042CF3
:101C00001BD17948006941F6DF71084076490861C7
:101C10000846006940F01000086176480580E0023F
:101C2000FFF733FF0446052C10D06F48006941F6DA
:101C3000EF7108406C49086108E0052C06D06A483D
:101C4000006941F6EF71084067490861204630BDE0
:101C500078B506460C46042500200090E802FFF700
:101C600014FF0546042D24D15F48006940F00100AF
:101C70005D4908613480E802FFF707FF0546042D3F
:101C800010D1B01C0090200C00990880E802FFF7EA
:101C9000FCFE05465448006941F6FE710840524971
:101CA000086106E05048006941F6FE7108404E495F
:101CB0000861284678BD70B504460D460426F0023A
:101CC000FFF7E3FE0646042E11D14748006940F0B5
:101CD0000100454908612580F002FFF7D6FE06465F
:101CE0004148006941F6FE7108403F4908613046AD
:101CF00070BD70B505460E460424E002FFF7C5FE30
:101D00000446042C17D13948374988603848886020
:101D10000846006940F0100008612E80E002FFF7DD
:101D2000B4FE0446052C06D02F48006941F6EF7139
:101D300008402D490861204670BD2DE9F043044656
:101D40004FF6FF763746B046B1460425E443E6B287
:101D5000C4F30727C4F307484FEA1469E802FFF702
:101D600094FE0546042D49D120481F49886020482B
:101D700088600846006940F010000861FF2E06D018
:101D80001C4808300680E802FFF77FFE0546042D58
:101D900008D1FF2F06D017480A300780E802FFF766
:101DA00074FE0546042D0AD1B8F1FF0F07D0114883
:101DB0000C30A0F80080E802FFF767FE0546042D0E
:101DC0000AD1B9F1FF0F07D00A480E30A0F80090F1
:101DD000E802FFF75AFE0546052D0FD002480069BC
:101DE00041F6EF71084007E00020024023016745FB
:101DF000AB89EFCD00F8FF1F664908612846BDE8B2
:101E0000F08330B5054604244FF43020FFF73DFE43
:101E10000446042C41D160485E4988605F48886070
:101E20000846006940F0200008610846006940F05B
:101E3000400008614FF43020FFF727FE0446042CD1
:101E400022D15448006941F6DF71084051490861C8
:101E50000846006940F0100008611DB1002050499B
:101E6000088002E0A5204E4908804FF43020FFF79B
:101E70000CFE0446052C10D04648006941F6EF716F
:101E800008404449086108E0052C06D04148006933
:101E900041F6DF7108403F490861204630BDF0B58A
:101EA00005460E46174604243B483A4988603B489D
:101EB0008860E002FFF7E9FD0446042C19D135489B
:101EC000006940F010003349086147F0F8003043E2
:101ED00028433349891C0880E002FFF7D6FD0446F9
:101EE000052C06D02B48006941F6EF7108402949BE
:101EF00008612046F0BD2748C06980087047254822
:101F0000006A704700202349096801F0200109B1E7
:101F1000012000E00020704729B11E4A12690243E7
:101F20001C4B1A6104E01B4A12698243194B1A6167
:101F3000704701460020012908D1164AD26902F0F3
:101F400001020AB1012008E0002006E0114AD2682F
:101F50000A400AB1012000E0002070470D49C86026
:101F6000704704200B49C96801F0010109B1012043
:101F70000EE00849C96801F0040109B1022007E038
:101F80000449C96801F0100109B1032000E00420F0
:101F9000704700000020024023016745AB89EFCD68
:101FA00000F8FF1F10B50446FE48844208D1012105
:101FB000C014FFF745F90021E014FFF741F9C4E030
:101FC000B4F1804F08D101210846FFF746F90021FE
:101FD0000120FFF742F9B8E0F348844208D101211B
:101FE0000220FFF73AF900210220FFF736F9ACE0B2
:101FF000EE48844208D101210420FFF72EF9002188
:102000000420FFF72AF9A0E0E948844208D1012121
:102010000820FFF722F900210820FFF71EF994E0BD
:10202000E448844208D101211020FFF716F900216D
:102030001020FFF712F988E0DF48844208D101211F
:102040002020FFF70AF900212020FFF706F97CE0A5
:10205000DA48844208D101214014FFF7F1F8002149
:102060006014FFF7EDF870E0D548844209D10121F2
:10207000C804FFF7E5F800214FF40020FFF7E0F86F
:1020800063E0D048844209D101210805FFF7D8F860
:1020900000214FF48010FFF7D3F856E0CA4884427D
:1020A00009D101214805FFF7CBF800214FF40010BA
:1020B000FFF7C6F849E0C548844208D10121402015
:1020C000FFF7CBF800214020FFF7C7F83DE0C048FC
:1020D000844208D101218020FFF7BFF80021802031
:1020E000FFF7BBF831E0BB48844208D101218015DD
:1020F000FFF7B3F80021A015FFF7AFF825E0B648C9
:10210000844209D101210804FFF79AF800214FF415
:102110008030FFF795F818E0B048844209D10121DA
:102120004804FFF78DF800214FF40030FFF788F8DE
:102130000BE0AB48844208D101218804FFF780F806
:1021400000214FF48020FFF77BF810BD00220288A9
:10215000944B98420ED0994B98420BD0B0F1804FDF
:1021600008D0914B984205D0904B984202D0904BAA
:10217000984204D14FF68F731A404B881A438D4B07
:10218000984207D08C4B984204D04FF6FF431A4038
:10219000CB881A4302808B8883850B880385814B0B
:1021A00098420BD0854B984208D08B4B984205D073
:1021B0008A4B984202D08A4B984201D10B7A03860F
:1021C00001238382704770B5002400220023058C10
:1021D0004FF6FE7635400584028C8388048B4FF6DB
:1021E0008F752C40B51E2C400D882C43751E2A403F
:1021F0000D892A434D882A436A4DA8420BD06F4D62
:10220000A84208D0744DA84205D0744DA84202D00F
:10221000734DA84213D14FF6F7752A404D892A43D2
:102220004FF6FB752A408D882A434FF6FF652B40F9
:102230004FF6FF552B408D892B43CD892B4383804F
:102240000483CD888586028470BD70B50024002289
:102250000023058C4FF6EF7635400584028C838889
:10226000048B48F6FF752C404FF6FF452C400D8837
:102270004FF6FF7606EA05252C434FF6DF752A4018
:102280000D8906EA05152A434D8806EA05152A43F5
:10229000444DA84202D0494DA8421DD14FF67F754A
:1022A0002A404D894FF6FF7606EA05152A434FF678
:1022B000BF752A408D8806EA05152A434FF6FF357B
:1022C0002B404FF2FF752B408D8906EA85052B4385
:1022D000CD8906EA85052B4383800483CD88058755
:1022E000028470BD70B5002400220023058C4FF6D7
:1022F000FF6635400584028C8388848B4FF68F758A
:102300002C404FF6FC752C400D882C434FF6FF55A2
:102310002A400D894FF6FF7606EA05252A434D88A7
:1023200006EA05252A431F4DA84202D0234DA842A4
:102330001DD14FF2FF752A404D894FF6FF7606EA10
:1023400005252A434FF6FF352A408D8806EA0525E4
:102350002A434EF6FF752B404DF6FF752B408D89B5
:1023600006EA05152B43CD8906EA05152B43838024
:102370008483CD888587028470BD70B500220023D8
:102380000024058C4EF6FF7635400584038C848846
:10239000828B48F6FF752A404FF6FF452A400D888C
:1023A00020E00000002C0140000400400008004034
:1023B000000C0040001000400014004000340140B8
:1023C000004C014000500140005401400018004002
:1023D000001C00400020004000400140004401403B
:1023E000004801404FF6FF7606EA05252A434DF6E0
:1023F000FF752B400D8906EA05352B434D8806EA0B
:1024000005352B43FA4DA84202D0FA4DA84208D117
:102410004BF6FF752C408D894FF6FF7606EA851541
:102420002C4384808283CD88A0F84050038470BD03
:10243000828B4FF2FF331A408283828B4FF6FF73F9
:1024400003EA01231A4382837047F0B50C46154610
:10245000002200210026078C4EF6FF7C07EA0C07BD
:102460000784828B018C4FF6FF7707EA043640F62B
:10247000FF473A404FF6FF7707EA05273A434FF602
:10248000FF7707EA03373A43D94FB8420ED0D94F06
:10249000B8420BD0B0F1804F08D0D74FB84205D02A
:1024A000D64FB84202D0D64FB84206D14DF6FF778C
:1024B000394046F48057394305E047F6FF57394025
:1024C00044F48057394382830184F0BD828B4FF6F8
:1024D000F3731A408283828B0A4382837047F0B57C
:1024E0000C461546002200210026078C4FF6FF6C93
:1024F00007EA0C070784828B018C4FF6FF7707EA07
:1025000004264FF60C773A404FF6FF7707EA031799
:102510002F433A43B64FB8420ED0B64FB8420BD015
:10252000B0F1804F08D0B44FB84205D0B34FB84295
:1025300002D0B34FB84206D14FF6FF57394046F4A8
:102540008077394305E04FF2FF57394044F48077F4
:10255000394382830184F0BD028B4FF2FF331A406E
:102560000283028B4FF6FF7303EA01231A430283AF
:102570007047F0B50C461546002200210026078C56
:102580004FF6EF7C07EA0C070784028B018C4FF6AD
:10259000FF7707EA041640F6FF473A404FF6FF7709
:1025A00007EA03373A434FF6FF7707EA05273A432E
:1025B0008F4FB8420ED08F4FB8420BD0B0F1804F42
:1025C00008D08D4FB84205D08C4FB84202D08C4F06
:1025D000B84206D14FF6DF77394046F0100739434D
:1025E00005E04FF65F77394044F010073943028326
:1025F0000184F0BD028B4FF6F3731A400283028B05
:102600000A4302837047F0B50C46154600220021AC
:10261000068C4FF6FE773E400684028B018C4FF607
:102620000C7632407E1C06EA03162E433243704E6F
:10263000B0420ED06F4EB0420BD0B0F1804F08D0F8
:102640006D4EB04205D06D4EB04202D06C4EB042DD
:1026500006D14FF6FD76314044F00106314305E0E6
:102660004FF6F576314044F0010631430283018490
:10267000F0BD70B505460C465D4885420ED05D48FC
:1026800085420BD0B5F1804F08D05B48854205D01C
:102690005A48854202D05A48854200D100E000BF26
:1026A000208850B92389A28861882846FFF7ABFFAC
:1026B000E1882846FFF79EFF25E0208804280AD1FC
:1026C0002389A28861882846FFF753FFE1882846BE
:1026D000FFF742FF17E0208808280AD12389A28843
:1026E00061882846FFF7FBFEE1882846FFF7EEFEEB
:1026F00009E02389A28861882846FFF7A6FEE188C1
:102700002846FFF795FE70BD2DE9F04105460C46C1
:1027100000260127608808B9022600E00026A0886C
:10272000012801D1022700E001272088A0B92389D0
:10273000A28861882846FFF766FFE1882846FFF7F0
:1027400059FF23893A4631462846FFF712FFE188B0
:102750002846FFF701FF13E02389A28861882846F5
:10276000FFF707FFE1882846FFF7F6FE23893A4680
:1027700031462846FFF747FFE1882846FFF73AFF32
:10278000BDE8F0810A884B881A438B881A43CB88AE
:102790001A430B891A434B891A438B891A43A0F8B1
:1027A000442070474FF6FF71818000210180C18075
:1027B0004180017270470021018041808180C18089
:1027C000018141818181C181704700210180418067
:1027D000012181800021C180018170470021018099
:1027E00041808180C18001814181818170470000E9
:1027F000002C01400034014000040040000800406B
:10280000000C004021B1028842F00102028004E085
:1028100002884FF6FE731A400280704731B1B0F85B
:10282000442042F40042A0F8442005E0B0F84420DF
:10283000C2F30E02A0F8442070471AB183890B43FB
:10284000838102E083898B43838170478182704753
:1028500041EA0203A0F8483070471AB183890B435C
:10286000838102E083898B438381704701894FF61E
:10287000F8721140018170470A46002101894FF624
:102880008F73194011430181704730B504460D46DE
:1028900029462046FFF7F0FF208940F007002081FD
:1028A00030BD2DE9F04104460D4616461F46602D09
:1028B00006D13B46012231462046FFF75AFE05E08D
:1028C0003B46012231462046FFF79DFE2946204621
:1028D000FFF7D2FF208940F007002081BDE8F0819A
:1028E00030B50C4600210189C9B24FF6FF7505EAE3
:1028F0000325154325432943018130BD2DE9F041CE
:1029000005460E4617469846002443463A46314649
:102910002846FFF7E5FF2C894FF6F870044044F095
:1029200007044FF68F70044044F070042C81BDE81A
:10293000F081F0B504460D4616461F463B4632462A
:1029400029462046FFF7CCFF208940F480402081B3
:10295000F0BD0185828270470A46002101884FF64A
:102960008F731940114301807047F0B50C4615462E
:102970001E460021002200230189028B038C4FF6A2
:10298000F877394021434FF6FC473A4040F20117AF
:102990003A434FF6DD773B404FF6FF7707EA0617DD
:1029A0002F433B43018102830384F0BD0A4600218B
:1029B000018B4FF68F7319401143018370470A460C
:1029C0000021018B48F6FF7319404FF6FF7303EAAD
:1029D00002231943018370470A460021818B4FF679
:1029E0008F7319401143818370470A460021818B00
:1029F00048F6FF7319404FF6FF7303EA02231943A9
:102A00008183704721B1028842F08002028004E095
:102A100002884FF67F731A400280704721B1828886
:102A200042F00402828004E082884FF6FB731A4071
:102A30008280704721B1828842F00802828004E0DF
:102A400082884FF6F7731A408280704721B18288DE
:102A500042F00102828004E082884FF6FE731A4041
:102A6000828070470A460021018B4FF6F7731940A8
:102A70001143018370470A460021018B4FF2FF7317
:102A800019404FF6FF7303EA02231943018370478D
:102A90000A460021818B4FF6F77319401143818359
:102AA00070470A460021818B4FF2FF7319404FF6A1
:102AB000FF7303EA02231943818370470A4600210A
:102AC000018B4FF6FB7319401143018370470A468F
:102AD0000021018B4FF6FF3319404FF6FF7303EAD5
:102AE00002231943018370470A460021818B4FF668
:102AF000FB7319401143818370470A460021818B83
:102B00004FF6FF3319404FF6FF7303EA02231943D0
:102B1000818370470A460021018B4FF67F7319406D
:102B20001143018370470A460021018BC1F30E0156
:102B30004FF6FF7303EA02231943018370470A46E5
:102B40000021818B4FF67F731940114381837047B9
:102B50000A460021818BC1F30E014FF6FF7303EA91
:102B600002231943818370470A460021018C4FF6E6
:102B7000FD7319401143018470470A460021018CFE
:102B80004FF6F77319401143018470470A4600213C
:102B9000018C4FF6DF7319404FF6FF7303EA0213FF
:102BA0001943018470470A460021018C4FF67F7358
:102BB00019404FF6FF7303EA02131943018470476B
:102BC0000A460021018C4FF6FF5319404FF6FF7360
:102BD00003EA02231943018470470A460021018C4D
:102BE0004FF2FF7319404FF6FF7303EA02231943B4
:102BF000018470470A460021018C4DF6FF7319408D
:102C00004FF6FF7303EA023319430184704730B56E
:102C1000002301248C40A3B2048C9C430484048CC4
:102C200002FA01F5ADB22C43048430BD30B5002367
:102C300004248C40A3B2048C9C430484048C02FAC8
:102C400001F5ADB22C43048430BD70B503460020BD
:102C500000241846183001258D40ACB21D8CA543C8
:102C60001D8409B1082909D100EB6100056825F030
:102C7000700505600568154305600EE00D1FC5F37E
:102C80004E052844056825F4E045056005684FF6C3
:102C9000FF7606EA02263543056070BD21B1028841
:102CA00042F00202028004E002884FF6FD731A40EF
:102CB0000280704721B1028842F00402028004E0E1
:102CC00002884FF6FB731A400280704721B1828858
:102CD00042F08002828004E082884FF67F731A40BF
:102CE0008280704702884FF6F7731A40028002888C
:102CF0000A430280704782884FF68F731A408280A1
:102D000082880A438280704702894FF6F8731A401E
:102D1000028102890A430281704702894FF67F735C
:102D20001A40028102890A430281704781847047F8
:102D3000818570478186704701877047818770471A
:102D4000A0F84010704702884FF6FF431A400280F7
:102D500002880A43028070470146888E7047014608
:102D6000088F70470146888F70470146B1F84000D0
:102D700070470146888C70470146088D70470246AF
:102D80000020138A0B400BB1012000E000207047A7
:102D9000CA430282704730B5024600200023002457
:102DA000158A05EA0103958905EA010413B10CB1FE
:102DB000012000E0002030BDCA43028270470000BD
:102DC00010B50120FEF756FA0020FEF753FA10BDA9
:102DD0002A49086070472949091F08607047274938
:102DE00084310860704701460020254A10884FF65C
:102DF0007F4210400843224A10807047014600205D
:102E00001F4A10884FF68072104008431C4A1080F9
:102E1000704708B500220092194A2C3A0092009A95
:102E200002440092009A116008BD08B501460020D6
:102E3000009013482C3800900098084400900098A7
:102E4000008808BD0D489C300068C0B270470C482F
:102E50000830008840F001000949083108807047B7
:102E60000648A0300068C0B27047054808300088A6
:102E700040F00200024908310880704704860D4284
:102E80002C6C004029B1504A128802434E4B1A80E4
:102E900004E04D4A128882434B4B1A8070474A48DF
:102EA000001D008840F010004749091D0880704748
:102EB0004548001D00884FF6EF7108404249091D42
:102EC00008807047002140481C300188001F00889E
:102ED00041EA0040704700B50246FFF7E0FF100CE2
:102EE000394918310880091D0A80FFF7E1FF00BD4C
:102EF00000B50246FFF7D3FFC2F303403249083161
:102F00000880091D0A80FFF7D3FF00BD00B5024607
:102F1000FFF7C5FF100C2C4920310880091D0A80DD
:102F2000FFF7C6FF00BD00202749103109880907B7
:102F3000080B2549143109880843704700BF22480F
:102F4000001D008800F020000028F8D070471E48BF
:102F5000001D00884FF6F77108401B49091D0880C5
:102F600000BF1948001D008800F008000028F8D0B4
:102F7000704701460020144A121D12880A400AB107
:102F8000012000E0002070470F49091D0988814396
:102F90000D4A121D11807047014600200A4A121D79
:102FA00012880A40D0B2084A12880A4012B108B109
:102FB000012000E0002070470349091D0988814372
:102FC000014A121D118070470028004010B50121F0
:102FD0000807FEF742F900214FF08050FEF73DF957
:102FE00010BD2A49086270472849086170470146A8
:102FF0000020274A106820F0E00008431060704766
:103000002249A0310860704710B502460020204BCD
:10301000186820F00300104318601E4B1B6843F033
:1030200004031C4C2360012901D130BF00E020BF04
:10303000184B1B6823F00403164C236010BD144882
:10304000006840F00400124908600846006840F03B
:10305000020008600F48006840F004000D49086055
:1030600000BF00BF30BF704701460020084A5268C9
:103070000A400AB1012000E00020704704490968B5
:1030800041EA8001024A11607047000000000E42D0
:103090000070004010ED00E0002044490860091D68
:1030A0000860091D0860091D086041483F49143146
:1030B0000860704700213D498279002A3AD00A46CB
:1030C000126803689A430B461A600A1D1268036867
:1030D0009A430B1D1A60027911440A6803681A4367
:1030E0000A60324A0832126803689A432F4B083349
:1030F0001A601A1D126803689A432C4B0C331A602D
:103100004279102A0ED11A1F126803681A43274BFE
:1031100008331A601A1D126803681A43234B0C33D4
:103120001A600DE02149427911440A6803681A4384
:103130000A6005E0027911440A6803689A430A604C
:1031400070470021016001710C21417100218171E2
:1031500070471649103109680143144A1032116052
:10316000704701460020114A143212680A400AB121
:10317000012000E0002070470C49143108607047BE
:10318000014600200022094B1B6803EA0102074B9D
:1031900014331B680B4013B10AB1012000E000207A
:1031A0007047024914310860704700000004014074
:1031B000FFFF0F0008B501210520FEF727F80121C8
:1031C0001548FDF738FE4FF40040ADF80000102020
:1031D0008DF8030003208DF8020069460F48FDF7C3
:1031E00059FD4FF400410D48FDF703FE0121082071
:1031F000FEF70CF80820ADF8000010208DF8030051
:1032000003208DF8020069460548FDF743FD0821BB
:103210000348FDF7ECFD08BD000230000008014046
:10322000000C014070B504460D4600261DB101207A
:10323000FE49086002E00020FC4908600020FB49CC
:10324000083908602146FA48FEF744FB04E0701C88
:1032500086B2012E00DD05E00221F548FEF78DFB68
:103260000028F4D100BF0120F0490839086070BD82
:1032700070B500241CE004F1B001C8B20021FFF7D2
:10328000D1FF00210846FFF7CDFF00211020FFF7F6
:10329000C9FF002508E0E74901EB8501085D012130
:1032A000FFF7C0FF681CC5B2802DF4DB601CC4B200
:1032B000042CE0DB70BD10B500218D20FFF7B2FFBC
:1032C00000211420FFF7AEFF0021AF20FFF7AAFF77
:1032D00010BD10B500218D20FFF7A4FF00211020A4
:1032E000FFF7A0FF0021AE20FFF79CFF10BD0020DC
:1032F0000CE0002106E00022CE4B03EB81031A54C0
:103300004A1CD1B28029F6DB421CD0B20428F0DB83
:10331000704710B5FFF7EBFFFFF7AAFF10BDF0B540
:10332000144600267F2801DC1F2900DDF0BD0B4676
:10333000CF1701EB5777FF10C7F10707FAB2CF1786
:1033400001EB5777FF10A1EBC707FDB2C5F10707E7
:103350000123BB40DEB24CB1B64B03EB80039B5C58
:103360003343B44F07EB8007BB5408E0B14B03EB8A
:1033700080039B5CB343AF4F07EB8007BB5400BF98
:10338000D4E72DE9F04706460F4690469946DDF80A
:1033900020A034460CE03D4606E052462946204631
:1033A000FFF7BDFF681CC5B24D45F6DD601CC4B219
:1033B0004445F0DDBDE8F0872DE9F04F80460C462E
:1033C00015461E46A346A5F12000C5B200273EE0E3
:1033D0000C2E07D105EB4500974901EB800010F852
:1033E000079004E0954800EB051010F807904FF0A7
:1033F000000A26E009F0800028B121464046099ADB
:10340000FFF78DFF09E0099808B9012000E00020CE
:10341000024621464046FFF782FF4FEA49604FEAE5
:103420001069601CC4B2A4EB0B00B04205D15C462D
:1034300008F1010000F0FF0806E00AF1010000F0C9
:10344000FF0ABAF1080FD5DB00BF781CC7B2B7423C
:10345000BEDBBDE8F08F10B50246012000E050430E
:103460000B1EA1F10104E1B2F9D110BD2DE9FF4F0E
:1034700081B0074691461E460E9D4FF0000A00247B
:1034800039E0301B401EC1B20A20FFF7E4FFB9FB50
:10349000F0F00A21B0FBF1F201FB1208BAF1000FC3
:1034A00016D1701EA04213DDB8F1000F0ED101201D
:1034B000AB4605EBDB71491001FB04710090C8B20B
:1034C0002B4620220299FFF777FF12E04FF0010A06
:1034D0000120AB4605EBDB71491001FB0471009044
:1034E000C8B208F13001CAB22B460299FFF764FF57
:1034F00000BF601CC4B2B442C3DB05B0BDE8F08FAE
:1035000078B505460E46144618E07A2D03DD0025F1
:1035100006F11000C6B21A2E04DD0020054606464C
:10352000FFF7E5FE0120009022781023314628465F
:10353000FFF742FF05F10800C5B2641C207800289F
:10354000E3D178BDF8B505460E4614461F4617E090
:103550007A2D03DD002506F11000C6B21A2E04DD17
:10356000002005460646FFF7C2FE0097227810238A
:1035700031462846FFF720FF05F10800C5B2641C5C
:1035800020780028E4D1F8BD00B587B001210420DF
:10359000FDF73CFE01210803FDF738FE1C20ADF8C5
:1035A000180010208DF81B0003208DF81A0006A9C2
:1035B0002348FDF76FFB1C212148FDF718FCE02094
:1035C000ADF8180018208DF81B0003208DF81A00A4
:1035D00006A91B48FDF75EFBE0211948FDF707FC33
:1035E0004FF44040ADF804004FF48270ADF806008F
:1035F0000020ADF808000220ADF80A000120ADF867
:103600000C004002ADF80E000020ADF81000ADF83F
:1036100012000720ADF8140001A90548FEF784F850
:1036200001210348FEF725F901210BE09001214219
:10363000003001404103002060C70008D4CB0008DF
:10364000000801409F48FEF759F900209E49086094
:103650006420FCF743FE01209C49C1F88C01002145
:10366000AE20FFF7DFFD0021D520FFF7DBFD0021B5
:103670008020FFF7D7FD0021A820FFF7D3FD002110
:103680001F20FFF7CFFD0021D320FFF7CBFD002146
:103690000846FFF7C7FD00214020FFF7C3FD0021CA
:1036A0008D20FFF7BFFD00211420FFF7BBFD002197
:1036B000A120FFF7B7FD0021C820FFF7B3FD0021CF
:1036C000DA20FFF7AFFD00210220FFF7ABFD00215C
:1036D0008120FFF7A7FD00218F20FFF7A3FD002128
:1036E000D920FFF79FFD0021F120FFF79BFD00216E
:1036F000DB20FFF797FD00214020FFF793FD00211D
:103700002020FFF78FFD00210220FFF78BFD002115
:10371000C020FFF787FD0021A420FFF783FD0021D3
:10372000A620FFF77FFD0021AF20FFF77BFDFFF70D
:10373000F0FD07B000BDF0B503460D46C5F1070426
:10374000E1B200200FE012F8016B1C18E71704EB40
:103750005767FF11A4EBC717DFF874C10CEB87079D
:103760007E54441CE0B21028EDDB4C1EE1B2002078
:103770000FE012F8016B1C18E71704EB5767FF11F5
:10378000A4EBC717DFF848C10CEB87077E54441C35
:10379000E0B21028EDDBF0BDF0B50346C1F107043F
:1037A000E1B2052900DD072100200EE012F8015BDF
:1037B0001C18E61704EB5666F611A4EBC616444F28
:1037C00007EB86067554441CE0B21828EEDB002097
:1037D0000FE012F8016B1C18E51704EB5565ED11AD
:1037E000A4EBC5153A4F07EB85074D1E7E55441CCB
:1037F000E0B21828EDDB00200FE012F8016B1C1876
:10380000E51704EB5565ED11A4EBC515304F07EB3B
:1038100085078D1E7E55441CE0B21828EDDBF0BDF7
:1038200030B504220EE0002108E010F8014B284BCF
:1038300003EB8105531EEC544B1CD9B28029F4DBF9
:10384000531EDAB2002AEED130BD30B502220EE0AE
:10385000002108E010F8014B1D4B03EB8105531EBE
:10386000EC544B1CD9B28029F4DB531EDAB2002A87
:10387000EED130BD70B50346802A00DB7F220324E1
:10388000A4EB4104E1B2002019E01C18104D05EB37
:103890008404645CE4431D180D4E06EB85056C54EE
:1038A0001C18354605EB84054C1E2C5DE443E5B23F
:1038B0001C1806EB84064C1E3555441CE0B29042A1
:1038C000E3DB70BD003001408C0121420000214249
:1038D00041030020FCF715FC00BF6F48006800F4AE
:1038E000E0606E490843001D6B490860BFF34F8FCD
:1038F00000BF00BFFEE72DE9FC41694C0027002511
:1039000003E0605D0744681C85B2B5F5007FF8DB15
:10391000D4F80402B8420AD0F62000900122694689
:103920006048007801F0B7FF0120BDE8FC814FF648
:10393000FD51D4F80002884212D1002504E0284647
:1039400000F0ADF9681C85B21F2DF8DDF520009060
:10395000012269465348007801F09DFF0020E4E70A
:10396000D4F80002012802D14F4908801CE04E48DB
:103970000088401CD4F80012814205D04FF6FE6149
:10398000D4F80002884205D147480088401C4649C7
:10399000088009E0F620009001226946414800783D
:1039A00001F079FF0120C0E73F480088401E460231
:1039B000B6F5F03F09D3F620009001226946394858
:1039C000007801F068FF0120AFE74FF40072314644
:1039D000334800F041F9F520009001226946314852
:1039E000007801F058FF4FF6FE61D4F800028842DB
:1039F00013D145F6A520019002224FF4F83101A819
:103A000000F02AF902222949274800F025F94FF44D
:103A10007A70FCF763FCFFF75DFF002085E77CB55B
:103A200002224FF4F83101A800F0C0F8BDF80400FC
:103A300045F6A52188422DD102221C49684600F096
:103A4000B5F800240FE0A1024FF48062144800F0A2
:103A5000ADF8174800EB842542141149284600F0C0
:103A6000CFF9601C84B2BDF800008442EBDB4FF656
:103A7000FF70019002224FF4F83101A800F0ECF839
:103A80000020009002220949684600F0E5F8084845
:103A900000F0E7F97CBD00000CED00E00000FA0545
:103AA0001C010020680000202600002010F001000A
:103AB0000028000810B500240020CC4908609020A0
:103AC00000F0E8F9002000F0E5F9002000F0E2F94C
:103AD000002000F0DFF9FF2000F0DCF944EA0024C8
:103AE000FF2000F0D7F904430120C149C1F8B0011B
:103AF000204610BD08B501210820FDF787FB4FF4D3
:103B00008050ADF8000010208DF8030003208DF8E0
:103B100002006946B748FDF7BDF84FF48051B5483B
:103B2000FDF765F900F0DDF9002000F020FAFFF75D
:103B3000C1FFB149088008BD10B500240020AB4981
:103B40000860052000F0A6F9FF2000F0A3F9044664
:103B50000120A749C1F8B001204610BD10B50446A8
:103B60000020A2490860012000F094F9204600F0EE
:103B700091F901209E49C1F8B00110BD10B5002097
:103B80009A490860062000F085F901209849C1F89B
:103B9000B00110BD10B5002094490860042000F069
:103BA00079F901209249C1F8B00110BD2DE9F04129
:103BB00006460C46174600208C490860032000F09A
:103BC00069F9C4F3074000F065F9C4F3072000F079
:103BD00061F9E0B200F05EF9002505E0FF2000F099
:103BE00059F97055681C85B2BD42F7DB01207F4949
:103BF0000860BDE8F08110B500BFFFF79DFF00F041
:103C000001000028F9D110BD2DE9F04106460C460F
:103C10001746FFF7B3FF002074490860022000F048
:103C200039F9C4F3074000F035F9C4F3072000F078
:103C300031F9E0B200F02EF9002504E0705D00F0EB
:103C400029F9681C85B2BD42F8DB0120674908608C
:103C5000FFF7D1FFBDE8F0812DE9F04107460E46A0
:103C60001446F0B2C0F58075AC4200DC254612E087
:103C70002A4631463846FFF7C7FFAC4200D10BE079
:103C80002F442E44601B84B2B4F5807F02DD4FF4D4
:103C9000807500E02546EBE700BFBDE8F08110B578
:103CA00004462403FFF76AFFFFF7A5FF00204F49F2
:103CB0000860202000F0EEF8C4F3074000F0EAF8B6
:103CC000C4F3072000F0E6F8E0B200F0E3F80120CA
:103CD0004749C1F8B001FFF78EFF10BD2DE9F0474D
:103CE00081460F4616464FEA1738C7F30B0ACAF546
:103CF0008054A64200DC344644E04FEA08314FF4D9
:103D000080523E48FFF752FF002508E00AEB05000D
:103D10003A49085CFF2800D003E0681C85B2A54240
:103D2000F4DB00BFA54216DA4046FFF7B8FF0025D6
:103D300007E019F8050005EB0A01304A5054681CE9
:103D400085B2A542F5DB4FEA08314FF480522B488B
:103D5000FFF782FF04E0224639464846FFF77CFF22
:103D6000A64200D10FE008F101084FF0000AA1447B
:103D70002744301B86B2B6F5805F02DD4FF48054D5
:103D800000E03446B9E700BFBDE8F08710B5FFF7A3
:103D9000F5FEFFF730FF002014490860C72000F04F
:103DA00079F801201249C1F8B001FFF724FF10BDD6
:103DB00010B500200D490860B92000F06BF8012013
:103DC0000B49C1F8B0010320FCF766FA10BD10B52D
:103DD000002006490860AB2000F05CF8012004498F
:103DE000C1F8B0010320FCF757FA10BDB0812142A1
:103DF00000802142000C01402800002041050020E5
:103E00002DE9F05F06460F4690460024B3463D4636
:103E1000A1461CE068784FEA002A287850441FFA2F
:103E200080FAAD1C2046611C8CB2174921F810A005
:103E3000B4F5806F07D100244FF48062584600F03B
:103E4000D4F80BF5006B09F102001FFA80F9C145A7
:103E5000E0D324B122460C49584600F0C6F8BDE82C
:103E6000F09F10B50446206808490840B0F1005F93
:103E700008D16068064908602068FCF744F90448E6
:103E80000068804710BD0000421500200000FE2F92
:103E90002C00002070B50546002405E0601CC4B26B
:103EA000C82C01DD002070BD02213A48FDF765FDF8
:103EB0000028F3D029463748FDF70CFD002405E023
:103EC000601CC4B2C82C01DD0020ECE701213148A0
:103ED000FDF753FD0028F3D02E48FDF7FDFCC0B2DE
:103EE000E1E700B587B001210820FDF78FF9012136
:103EF0008803FDF798F94FF46040ADF818001820DA
:103F00008DF81B0003208DF81A0006A92248FCF743
:103F1000C1FE4FF460412048FCF769FF0020ADF876
:103F200004004FF48270ADF806000020ADF80800E0
:103F30000220ADF80A000120ADF80C004002ADF8F7
:103F40000E003820ADF810000020ADF81200072058
:103F5000ADF8140001A90F48FDF7E6FB01210D485B
:103F6000FDF787FCFF20FFF795FF07B000BD10B5F8
:103F70000446084800884FF6C77108400549088084
:103F8000084600882043088001210248FDF771FCA3
:103F900010BD000000380040000C014001460888B8
:103FA00070472DE9F04105460E461746002407E00C
:103FB00036F814102846FDF77EFEAD1C601C84B256
:103FC000BC42F5DBBDE8F08130B503460C46154632
:103FD000002207E01846FFF7E1FF24F812009B1CBF
:103FE000501C82B2AA42F5DB30BD2DE9F05F80465D
:103FF0008A461746B8F1006F02D33748804501D38F
:10400000BDE8F09FFDF70FFDA8F1006B4FEA9B257F
:10401000CBF34809C9F50074A74200DC3C464DE0EB
:104020004FF0006101EB85208A142C49FFF7CCFF8B
:1040300000260BE009EB0600284931F810004FF686
:10404000FF71884200D003E0701C86B2A642F1DB0B
:1040500000BFA6421BDA4FF0006101EB8520FDF79F
:1040600027FD002608E03AF8160006EB09011B4A76
:1040700022F81100701C86B2A642F4DB4FF00061FA
:1040800001EB85208A141549FFF78BFF04E02246D7
:1040900051464046FFF785FFA74200D10FE06D1C57
:1040A0004FF000090AEB440AA044381B87B2B7F569
:1040B000007F02DD4FF4007400E03C46B0E700BF33
:1040C000FDF7BDFC00BF9BE713B50446012201A923
:1040D0002046FFF78AFF1CBD00000108421D00209A
:1040E00030B589B005460C4601210220FDF79BF84A
:1040F00001210920FDF78AF80121F848FCF79BFE11
:104100003020ADF8200018208DF8230003208DF812
:10411000220008A9F248FCF7BDFDADF81850ADF833
:1041200014400020ADF81A00ADF8160005A9ED48BE
:10413000FEF70CF87020ADF804000120ADF8060081
:104140000220ADF80C0001A9E648FEF73CF801A9F1
:10415000E448FEF77AF80821E248FEF783FC0821DC
:10416000E048FEF788FC0121DE48FEF74BFB09B072
:1041700030BD30B589B005460C4601210420FDF75D
:1041800052F801210920FDF741F84FF47070ADF8A5
:10419000200018208DF8230003208DF8220008A9A4
:1041A000CF48FCF777FDADF81850ADF8144000206B
:1041B000ADF81A00ADF8160005A9CB48FDF7C6FF0B
:1041C0007020ADF804000120ADF806000220ADF823
:1041D0000C0001A9C448FDF7F6FF01A9C248FEF78B
:1041E00034F801A9C048FEF77DF801A9BE48FEF7E2
:1041F000C4F80821BC48FEF735FC0821BA48FEF790
:104200003AFC0821B848FEF743FC0821B648FEF7FF
:1042100048FC0121B448FEF7F5FA09B030BD10B5ED
:1042200023216520FFF75CFF23216520FFF7A1FF15
:104230000021AD48FEF77EFD0021AB48FEF77CFD76
:104240000021A948FEF77AFD0021A748FEF778FD76
:104250000021A448FEF76EFD0021A248FEF76CFD88
:1042600010BDF0B5DDE9054518B1861C9F4F3E80B5
:1042700002E000269D4F3E8019B18E1C9B4F7E8030
:1042800002E00026994F7E801AB1961C974FBE809F
:1042900002E00026954FBE801BB19E1C934FFE800E
:1042A00002E00026914FFE801CB1A61C8F4F3E817C
:1042B00002E000268D4F3E811DB1AE1C8B4F7E81EA
:1042C00002E00026894F7E81F0BD2DE9FC470446BF
:1042D0000D4616461F46DDE90A8924B1A11C824815
:1042E000FEF728FD03E000217F48FEF723FD25B1FE
:1042F000A91C7D48FEF720FD03E000217A48FEF767
:104300001BFD26B1B11C7848FEF718FD03E0002123
:104310007548FEF713FD27B1B91C7348FEF710FD71
:1043200003E000217048FEF70BFDB8F1000F05D047
:1043300008F102016B48FEF7FDFC03E0002169482B
:10434000FEF7F8FCB9F1000F05D009F1020165484C
:10435000FEF7F2FC03E000216248FEF7EDFC3B466D
:10436000324629462046CDE90089FFF77AFF5F48AB
:1043700000885F4908805D48408848805B488088A5
:1043800088805A48C088C8805848008908815748A2
:1043900040894881BDE8FC877CB504460D4655B18F
:1043A00060792179CDE90010E378A27861782078EE
:1043B000FFF78BFF09E060792179CDE90010E37800
:1043C000A27861782078FFF74CFF7CBD47480078E1
:1043D000484908704548807848704448007988709A
:1043E00042488079C8704148007A08713F48807A15
:1043F00048710846704710B500203F4908703B4897
:1044000000883B490988884218D0384800883849D4
:104410000988884205DD36480088401C34490880F8
:1044200004E033480088401E314908803048018844
:104430002D48FEF77FFC01202F4908702B4840884B
:104440002B494988884218D02848408828494988FB
:10445000884205DD26484088401C2549488004E004
:1044600023484088401E22494880214841881E48F0
:10447000FEF762FC0120204908701C4880881C4916
:104480008988884218D019488088194989888842C3
:1044900005DD17488088401C1549888004E01448D1
:1044A0008088401E12498880114881880E48FEF796
:1044B00045FC0120104908700C48C0880C49C98887
:1044C000884228D00948C0880949C988884215DD32
:1044D0000748C088401C0649C88014E000081A003C
:1044E000000C014000040040000800404E21002064
:1044F0004221002031000020300000203148C088D7
:10450000401E3049C8802F48C1882F48FEF718FC4C
:1045100001202E4908702E4800892A4909898842BD
:1045200018D02B48008927490989884205DD25488C
:104530000089401C2349088104E022480089401E6C
:10454000204908811F4801892248FEF7F3FB01201A
:104550001E4908701E4840891A494989884218D066
:104560001B48408917494989884205DD154840891B
:10457000401C1449488104E012484089401E1149FA
:104580004881104841891348FEF7D6FB01200F49A6
:1045900008700E48007810BD014606290CDC481E44
:1045A0000B4A32F8100028B1481E12F81000801E85
:1045B000C0B270470020FCE70020FAE7034800780B
:1045C0007047000042210020000800403000002019
:1045D0004E2100200004004000B587B001214FF4B7
:1045E0000270FCF713FE4FF40040FCF773FD03204C
:1045F000ADF8040000208DF8070001A92348FCF75E
:1046000049FB2348FCF750F8002002908DF80C007D
:104610008DF80D004FF460200490002005900120DB
:104620008DF8180002A91A48FCF765F8012118480E
:10463000FCF78DF81648FCF7ACF800BF1448FCF7FF
:10464000ADF80028FAD11248FCF7B2F800BF1048C4
:10465000FCF7B3F80028FAD107B000BD10B5044646
:104660000723012221460A48FCF7DDF8012108480A
:10467000FCF7ADF800BF02210548FCF719FA002845
:10468000F9D00348FCF736F910BD0000000C0140DA
:1046900000240140FB48006860B9FB480078401CDA
:1046A000F949087008460078C82806DD002008701F
:1046B000052070470020F4490870F448007830B1B4
:1046C00001280BD002281FD003283ED133E0ED484B
:1046D000006810B90120ED49087037E0EC48008807
:1046E000401CEB490880E7480068012802D10220FD
:1046F000E6490870E64800880F2804DD0320E349F6
:1047000008700220D5E721E0E1480088401CE0491C
:104710000880084600880F2807DADA48006848B998
:104720000320DA4908700120C3E70320D749087045
:104730000220BEE70AE0D3480068012804D1002027
:10474000D2490870D249088000E000BF00BFD148BC
:104750000078012804D10020CE4908700320A8E782
:10476000CD480078012804D10020CB4908700420EE
:104770009FE700209DE710B50422C849C848FFF70D
:1047800034FC10BD02468A4201DD501A00E0881A4E
:1047900080B270472DE9F84304460F464FF00008F9
:1047A0003A4600210846FEF7ABFEBEA210210020CB
:1047B000FEF7A6FEFEF75CFD4FF47A70FBF78EFD68
:1047C0004FF47A70FBF78AFD0820FFF747FF814618
:1047D000032632E00820FFF741FF0546102005239D
:1047E0002A46014600903C20FEF740FE102001239F
:1047F0003246014600901846FEF738FEFEF738FDB7
:104800002088A0F59670A84211DA208800F59670ED
:10481000A8420CDD29464846FFF7B4FF1E2804DAFB
:1048200008F1010000F0FF0801E04FF000084FF42C
:10483000FA70FBF753FD701E86B2002ECADCB8F189
:10484000030F1BDBA4F800909AA200210846FEF794
:1048500057FE102000902288052301463C20FEF7D9
:1048600005FEFEF705FD4FF47A70FBF737FD4FF4B8
:104870007A70FBF733FD0120BDE8F88392A2002196
:104880000846FEF73DFE10200090228805230146D1
:104890003C20FEF7EBFDFEF7EBFC4FF47A70FBF7E4
:1048A0001DFD4FF47A70FBF719FD0020E4E738B5E1
:1048B0000820FFF7D3FE40F2EC41884200DD38BD0E
:1048C000FEF715FD40F2B4507449088040F6DE0052
:1048D000488040F6AC50888040F6B830C8807FA54C
:1048E00000BF29466D48FFF755FF0028F9D07FA586
:1048F00000BF29466948801CFFF74CFF0028F8D00C
:104900007EA500BF29466548001DFFF743FF00282C
:10491000F8D07EA500BF29466048801DFFF73AFF0A
:104920000028F8D0FEF7E3FC102000905B480288D6
:10493000052300210120FEF799FD10200090574823
:104940004288052300213C20FEF790FD10200090B6
:1049500052488288052310210120FEF787FD102090
:1049600000904E48C288052310213C20FEF77EFDB2
:10497000FEF77EFCFFF7FFFE642407E0FFF78AFEE8
:10498000012800D107E06420FBF7A8FC201EA4F159
:1049900001018CB2F2D100BF00BF90E710B5042234
:1049A0003E493F48FFF710FB10BD5C490870704757
:1049B00030B55A4C2478012C15D0022C31D100246A
:1049C000564D2C703BB10478641CE4B204708C42E8
:1049D00008DD027006E00478641CE4B204708C42C6
:1049E00000DD01701EE000244C4D2C7063B1047892
:1049F0000CB9017014E00478641EE5B20570541E11
:104A0000A5420DD101700BE004780CB9027007E0EB
:104A10000478641EE5B20570541EA54200D10270F0
:104A200000E000BF00BF30BD10B53C4B1B78012B30
:104A300002D0022B0AD100BF0023384C2370037828
:104A40008B4201D0017000E0027000BF00BF10BDBA
:104A500000B5FFF71FFE324908700846007831495B
:104A60000978884262D02E4800782E4908700020CC
:104A70002D4908802A48007810B12948007800BDE7
:104A800065E053E018012142450000204400002069
:104A90004200002066000020670000203A0000204D
:104AA00010FC0008782020206E756D3A2020202010
:104AB000200000002020202020204F4B20202020FC
:104AC00020202020000000002020202020204E4711
:104AD000202020202020202000000000507265733C
:104AE0007320455343206B65792020005072657315
:104AF00073204F4B206B6579202020005072657326
:104B00007320272D27206B65792020005072657354
:104B10007320272B27206B65792020003800002088
:104B20003900002046000020480000200948007895
:104B300068B109480088401C074908800846008879
:104B4000322804DD2C2008800248007800BD0020B7
:104B5000FCE70000390000204800002008B50320D1
:104B60008DF8000002208DF8010004208DF802006D
:104B700001208DF803006846FBF7C3FF08BDF0B5C0
:104B800003460C461546642093FBF0F0C6B2642041
:104B900093FBF0F700FB1730C1B2132E02DD01F1D9
:104BA0006400C1B20846CF1701EB977701EBA70766
:104BB000BAB2072092FBF0F700FB172082B2571918
:104BC000601EDFF8FCC21CF80000384482B2CF1728
:104BD00001EB9777BF10A1EB87071FB9032C01DA10
:104BE000501E82B2072092FBF0F700FB1720C0B2E4
:104BF000F0BD0146CA1701EB92729210A1EB82023E
:104C000092B9642091FBF0F200FB121050B94FF4FE
:104C1000C87091FBF0F200FB121008B90120704738
:104C20000020FCE70120FAE70020F8E770B5002635
:104C300000240025A34806883604001D0088064489
:104C4000A148B6FBF0F4A1480088A0423CD09F499F
:104C50000C8040F2B27510E02846FFF7CAFF40B161
:104C6000B4F5B77F02D3A4F5B77404E0681C85B22D
:104C700006E0A4F26D14681C85B2B4F5B67FEBD8DB
:104C800000BF93488580002516E091498888FFF78A
:104C9000B0FF30B1012D04D11D2C01D31D3C09E022
:104CA0000CE08C48405DA04203D88A48405D241A3D
:104CB00000E003E0681C85B21C2CE6D200BF681C33
:104CC00083498871601CC8717F48B6FBF0F100FB16
:104CD00011644FF46160B4FBF0F07D4908704FF44B
:104CE0006160B4FBF0F100FB11403C21B0FBF1F03E
:104CF000774948704FF46160B4FBF0F100FB11405C
:104D00003C21B0FBF1F201FB1200714988700B46A7
:104D1000DA7999799888FFF732FF6D490872002097
:104D200070BD2DE9F05F06460F4690469946DDE9D5
:104D30000AAB002440F2B270864203DB40F6330037
:104D4000864202DD0120BDE8F09F40F2B2750AE024
:104D50002846FFF74EFF10B15F48044401E05F486A
:104D60000444681C85B2B542F2DB781EC7B2002548
:104D700010E05848405D40F2A321484304EBC014C2
:104D80003046FFF736FF18B1012D01D14E480444DB
:104D9000681C85B2BD42ECDBA8F1010040F2A32102
:104DA000484304EBC014C9EB4910C0EB092004EBE5
:104DB0000014CAEB0A1004EB80045C4401214FF09C
:104DC000C050FCF730FA0120FEF70BF92046FEF741
:104DD00082F8FEF7B3F80020B5E71CB500240420E4
:104DE000FEF723F845F25001884247D001214FF0E9
:104DF000C050FCF718FA0120FEF7F3F8FDF7E0FFCA
:104E00000120FCF770F904E0601CC4B20A20FBF733
:104E100065FA4120FCF7CFF80028F5D0FA2C01DB29
:104E200001201CBD4FF48070FCF779F90120FCF7DC
:104E30007CF9FEF783F8FEF78AF801210846FEF7B1
:104E400021F8FEF77BF8FEF72AF847F6FF70FEF729
:104E50004FF8FEF773F8322001210A231422CDE91E
:104E60000010072140F2DF70FFF75BFFFEF720F82C
:104E700045F250010420FDF7CCFF07E0FEF767F88C
:104E800001210846FDF7FEFFFEF758F8FFF766FE22
:104E9000FFF7CCFE0020C4E710B50120FEF77CF838
:104EA00008B1FFF7C3FE0220FEF776F810B102202A
:104EB000FEF782F80520FEF77FF8FEF73FF810BDF9
:104EC000C4D1000818280040805101004A00002089
:104ED0005A210020D0D100080085E2018033E10191
:104EE00010B502460B460024114606E008789842A9
:104EF00001D1204610BD641C491C08780028F5D15A
:104F0000401EF7E701460A2903DA01F13002D0B268
:104F100006E0102903DA01F13702D0B200E04620A2
:104F2000704710B503461C46D91703EB1171C1F346
:104F30000710FFF7E7FF724908701C46D91703EB0B
:104F400011710911A3EB0111C8B2FFF7DBFF6C4926
:104F5000487000208870084610BD10B50246012038
:104F600000E050430B1EA1F10104E1B2F9D110BDE4
:104F70002DE9F041054600272C46284605F0F2FFB2
:104F8000064611E0207830280CDB2078392809DC2F
:104F9000F1B20A20FFF7E1FF2178303900FB0177F9
:104FA000641C01E0002703E0301EA6F10106E9D1F0
:104FB00000BF3846BDE8F08130B50246002908DD63
:104FC0000B4602E0002402F8014B1C1EA3F1010372
:104FD000F8D130BDF0B506460127012509E007EB01
:104FE00087004006070E96FBF7F000B903E0681C47
:104FF000C5B2062DF3DB00BF002412E0281B401EC3
:10500000C1B20A20FFF7A9FFB6FBF0F00A21B0FBFE
:10501000F1F201FB120707F130003A490855601C14
:10502000C4B2AC42EADB0020364908550846F0BD60
:10503000F0B502460C46E2B1DCB117E0114623465A
:1050400000200D781E78B5420ED1084600BF0D78BD
:105050003DB11D782DB111F8016B13F8017BBE42F3
:10506000F5D01D7805B9F0BD521C00BF107800289E
:10507000E4D10020F7E72DE9F04782460D461646B9
:105080001F463146504605F063FF04463946601C12
:1050900005F05EFF804664B1B8F1000F09D0641CD2
:1050A000A8EB040000F0FF094A462146284605F017
:1050B0000DFFBDE8F08770B50A46002100230AE025
:1050C000445C944206D00C46491C065D1C465B1CA1
:1050D000065500E0491C445C002CF1D1C45470BD5D
:1050E0000246002009E0135C602B05DD135C7B2B7E
:1050F00002DA135C203B1354401C8842F3DB7047F8
:105100005C0000205F00002030B589B005460C46E9
:1051100001210846FCF787F801210520FCF776F805
:105120000220ADF8200018208DF8230003208DF810
:10513000220008A92048FBF7ADFDADF81850ADF8E6
:1051400014400020ADF81A00ADF8160005A94FF084
:105150008040FCF7FBFF7020ADF804000120ADF8A3
:1051600006000220ADF80C0001A94007FDF76DF81C
:105170000821C806FDF77FFC01218807FDF742FBE7
:1051800009B030BD10B50446642C00DD64240B4822
:10519000047001784FF08040FDF7CEFD10BD10B5D2
:1051A00024216420FFF7B0FF0020FFF7EBFF10BDC4
:1051B00002480078704700000008014065000020A8
:1051C00070B50920FFF74AFA054600240BE00948AC
:1051D00000EB84004088A84203DC064830F9240034
:1051E00070BD601CC4B2642CF1DB0248B0F9000051
:1051F000F6E70000DCD200082DE9F04188B0074650
:105200000D4616460024A046002004900590069006
:10521000079000900190029003902EE0002407E098
:10522000285D04A90855305D0DF80400601CC4B267
:10523000102CF5DB00208DF81F008DF80F0004AA5C
:105240000121FEF75DF96A4610210020FEF758F9AA
:10525000FEF70EF85020FBF741F808F10100C0B24C
:105260008046B84207D14FF49660FBF737F84FF409
:105270009660FBF733F86D1C761C28780028CDD19A
:1052800008B0BDE8F08110B561A26BA10E20FFF758
:10529000B3FF10BD2DE9F0410746FEF728F80025C1
:1052A000012629E000241EE0395D6D4800EB8402F0
:1052B000E81C1154381990F88010694800EB8402FA
:1052C000A81C1154381990F80011654800EB8402AD
:1052D000681C1154381990F88001614901EB840170
:1052E0004855601CC4B2B442DEDBFDF7C1FF0A20A2
:1052F000FAF7F4FF701CC6B2802ED3DB40F6C41060
:10530000FAF7ECFF7F2621E07F2416E000215448C5
:1053100000EB8402E81C1154514800EB8402A81CE5
:1053200011544F4800EB8402681C115400204C4972
:1053300001EB84014855601EC4B2B442E6DCFDF7BF
:1053400097FF0A20FAF7CAFF701EC6B2002EDBDCF8
:10535000BDE8F0812DE9F0410546FDF7C8FF0026C4
:10536000012729E000241EE0295D3D4800EB84026E
:10537000F01C1154281990F88010394800EB840271
:10538000B01C1154281990F80011354800EB840224
:10539000701C1154281990F88001314901EB8401E7
:1053A0008855601CC4B2BC42DEDBFDF761FF0A20F9
:1053B000FAF794FF781CC7B2802FD3DBBDE8F081E9
:1053C00070B57F2621E07F2416E00021244800EB01
:1053D0008402E81C1154224800EB8402A81C1154DA
:1053E0001F4800EB8402681C115400201C4901EB8B
:1053F00084014855601EC4B2B442E6DCFDF738FFB4
:105400000A20FAF76BFF701EC6B2002EDBDC70BDFF
:10541000202020202020202020202020202041711A
:1054200075617269756D204C696768742020202051
:1054300020202020200000002020202020202020CC
:1054400020202020202020202053414E5249534527
:1054500020202020202020202020202020000000AC
:105460004103002008B501211C20FBF7CFFE0420DA
:10547000ADF8000028208DF8030069461848FBF7B6
:1054800009FC0120ADF8000048208DF803006946B2
:105490001448FBF7FFFB4FF40050ADF80000482024
:1054A0008DF8030069461048FBF7F4FB08BD08B50A
:1054B00001211020FBF7AAFE4FF40050ADF80000C8
:1054C00010208DF8030003208DF80200694606487D
:1054D000FBF7E0FB4FF400510348FBF78AFC08BDE3
:1054E000000C014000080140001001401FB54020A1
:1054F000ADF8000028208DF8030069462A48FBF724
:10550000C9FB01210920FBF781FE4FF44060ADF893
:10551000000002208DF8020028208DF80300694663
:105520002248FBF7B7FB4FF48060FDF73AFE0A21F3
:105530000120FBF7C5FC4FF48060019000208DF83E
:1055400008000C208DF8090001208DF80A0001A840
:10555000FDF7B0FD4FF4C060FBF7CEFA28208DF8C0
:105560000C0000208DF80D0002208DF80E000120A7
:105570008DF80F0003A8FBF7C4FA1FBD10B54FF458
:105580008060FDF7FDFD68B14FF48060FDF709FE16
:1055900007480068012802D10649087002E001208E
:1055A0000549087010BD000000080140000C0140D2
:1055B0002C812142670000206600002070B504465F
:1055C0000025FE48008800F4004058B10020FB4947
:1055D0000988C1F30D01FA4A50542146104605F0DE
:1055E000A5FC0546284670BDF8B504460D4616468E
:1055F000002700960120FAF7D6FEFF2C03D921469A
:10560000F0A006F0F3F9E5B1BDF80000C8B10CE078
:105610000320FAF763FEE948008800F4004020B157
:105620002846FFF7CBFF00B106E0BDF80000401EA2
:1056300080B200900028EBD100BFBDF8000000B997
:1056400001273846F8BD2DE9F84305460C461646B5
:105650001F464FF0000800960020DC4908703846CD
:10566000FAF7A1FE2946D7A006F0C0F92CB3BDF881
:10567000000010B314E00120DFF854C300DF20461F
:10568000FFF79CFF00B112E0BDF80000962190FBEF
:10569000F1F201FB120018B92946CAA006F0A6F9DA
:1056A000BDF80000401E80B200900028E3D100BF8A
:1056B000BDF8000008B94FF001080220C349087086
:1056C0004046BDE8F8832DE9F04105460F463E46C9
:1056D0000220FAF768FEFF2D03D92946B9A006F08B
:1056E00085F99EB10DE001210320FAF704FEB348CD
:1056F000008800F4004020B1B6A0FFF75FFF00B1C2
:1057000003E0701E80B2061EEDD100BF3EB1002046
:10571000AA490988C1F30D01A94A505402E00020AA
:10572000A74908700A21A648FFF7DAFB0446601C67
:1057300008B1641C00E00024A1482044BDE8F081C9
:105740002DE9F04104460E4617463D460020FAF783
:105750002AFEFF2C03D921469AA006F047F995B1FD
:105760000CE00A20FAF7BAFD9448008800F40040E3
:1057700020B13046FFF722FF00B103E0681E80B27F
:10578000051EEED100BF3DB100208C490988C1F350
:105790000D018B4A505402E00020894908703146BF
:1057A000874805F0C3FB80464046BDE8F08110B550
:1057B00000208949086096210320FAF79CFD01200A
:1057C0008649C1F8B0010A2403E001210320FAF759
:1057D00092FDC82282A182A0FFF706FF20B1201E01
:1057E000A4F10101CCB2F0D10CB1002010BD012018
:1057F000FCE710B5C8227BA17BA0FFF7F5FE10BD2A
:1058000010B5C8227AA17BA0FFF7EEFE10BD10B53F
:1058100000207149091F08604FF4FA70FAF75EFD25
:1058200001206E49C1F8AC0110BD10B5C82270A1AD
:1058300072A0FFF7D9FE10BD30B5A9B004462021F3
:1058400021A805F05CFB202119A805F058FB0025D4
:1058500022231A4621A92046FFF70DFC2C212046C1
:1058600005F076FB054622231A4619A92846FFF7BC
:1058700002FC19AB21AA64A1684606F0C7F83220E1
:10588000DFF84CC100DF0223002259A16846FFF770
:10589000DAFE29B030BDF0B58DB005460E4614468F
:1058A0003421684605F02BFB23462A465CA1684656
:1058B00006F0ACF8684605F055FB87B239466846F5
:1058C000FAF7B5FE0A20FAF709FD21463046FAF745
:1058D000AEFE0DB0F0BDF0B5BBB00025C82109A8E3
:1058E00005F00DFB202101A805F009FB112151A0B5
:1058F000FAF79DFE1E20DFF8D8C000DF0A2152A073
:10590000FAF795FE0120534908704FF49670DFF8BE
:10591000C0C000DF2A4EF2208DF82400EA208DF866
:105920002500FC208DF826004BA109A805F0F2FA0D
:1059300000BF2CE049A1304605F0F8FA04461CB33C
:1059400022231A4601A92046FFF795FB09A805F076
:1059500009FB074601A805F005FB3844C82812D208
:1059600009A805F0FFFA09A9471801A9384605F06A
:105970000DFB39A109A805F0CDFA202101A805F0F9
:10598000BEFA661C01E004E003E0681CC5B20F2DFE
:10599000D0DB00BF09A805F0E5FA09A9F3220A54F3
:1059A00009A805F0DFFA87B23A4609A92D48007820
:1059B000FFF771FF00202749087055E00C00002018
:1059C0001C01002025730D0A000000000F000020BC
:1059D00039BE000861742B00B00121420000214251
:1059E000617400006F6B000061742B54533D3100F3
:1059F0004F4B000041542B525354000041542B5242
:105A00004553544F5245000041542B43574A41508F
:105A10003D222573222C222573220D0A000000004E
:105A200041542B43495053454E443D25642C256435
:105A30000D0A000041542B43574C41504F50543DE8
:105A4000312C320D0A00000041542B43574C415079
:105A50000D0A0000690000203A3A00002B43574C21
:105A600041503A00680000203BB0F0BD70B5002501
:105A70000223C822FBA1FEA0FFF7E5FD30B9F9A182
:105A8000FE48FFF7D5FA044604B1257A284670BDD2
:105A900010B5FFF7EBFF0446312C12D10323C822C7
:105AA000AFF2B401F6A0FFF7CEFD00BB0621F84827
:105AB000FFF782FA22231A46F549F048FFF7DBFA8E
:105AC00015E0322C01D0332C11D10323C822AFF2C0
:105AD000E001F0A0FFF7B7FD48B90621EC48FFF759
